{
  "contractName": "DiplomaCertificate",
  "abi": [
    {
      "inputs": [],
      "stateMutability": "nonpayable",
      "type": "constructor"
    },
    {
      "anonymous": false,
      "inputs": [
        {
          "indexed": true,
          "internalType": "address",
          "name": "owner",
          "type": "address"
        },
        {
          "indexed": true,
          "internalType": "address",
          "name": "approved",
          "type": "address"
        },
        {
          "indexed": true,
          "internalType": "uint256",
          "name": "tokenId",
          "type": "uint256"
        }
      ],
      "name": "Approval",
      "type": "event"
    },
    {
      "anonymous": false,
      "inputs": [
        {
          "indexed": true,
          "internalType": "address",
          "name": "owner",
          "type": "address"
        },
        {
          "indexed": true,
          "internalType": "address",
          "name": "operator",
          "type": "address"
        },
        {
          "indexed": false,
          "internalType": "bool",
          "name": "approved",
          "type": "bool"
        }
      ],
      "name": "ApprovalForAll",
      "type": "event"
    },
    {
      "anonymous": false,
      "inputs": [
        {
          "indexed": true,
          "internalType": "address",
          "name": "from",
          "type": "address"
        },
        {
          "indexed": true,
          "internalType": "address",
          "name": "to",
          "type": "address"
        },
        {
          "indexed": true,
          "internalType": "uint256",
          "name": "tokenId",
          "type": "uint256"
        }
      ],
      "name": "Transfer",
      "type": "event"
    },
    {
      "inputs": [],
      "name": "_tokenIdCounter",
      "outputs": [
        {
          "internalType": "uint256",
          "name": "_value",
          "type": "uint256"
        }
      ],
      "stateMutability": "view",
      "type": "function",
      "constant": true
    },
    {
      "inputs": [
        {
          "internalType": "address",
          "name": "to",
          "type": "address"
        },
        {
          "internalType": "uint256",
          "name": "tokenId",
          "type": "uint256"
        }
      ],
      "name": "approve",
      "outputs": [],
      "stateMutability": "nonpayable",
      "type": "function"
    },
    {
      "inputs": [
        {
          "internalType": "address",
          "name": "owner",
          "type": "address"
        }
      ],
      "name": "balanceOf",
      "outputs": [
        {
          "internalType": "uint256",
          "name": "",
          "type": "uint256"
        }
      ],
      "stateMutability": "view",
      "type": "function",
      "constant": true
    },
    {
      "inputs": [
        {
          "internalType": "uint256",
          "name": "tokenId",
          "type": "uint256"
        }
      ],
      "name": "getApproved",
      "outputs": [
        {
          "internalType": "address",
          "name": "",
          "type": "address"
        }
      ],
      "stateMutability": "view",
      "type": "function",
      "constant": true
    },
    {
      "inputs": [
        {
          "internalType": "address",
          "name": "owner",
          "type": "address"
        },
        {
          "internalType": "address",
          "name": "operator",
          "type": "address"
        }
      ],
      "name": "isApprovedForAll",
      "outputs": [
        {
          "internalType": "bool",
          "name": "",
          "type": "bool"
        }
      ],
      "stateMutability": "view",
      "type": "function",
      "constant": true
    },
    {
      "inputs": [],
      "name": "name",
      "outputs": [
        {
          "internalType": "string",
          "name": "",
          "type": "string"
        }
      ],
      "stateMutability": "view",
      "type": "function",
      "constant": true
    },
    {
      "inputs": [
        {
          "internalType": "uint256",
          "name": "tokenId",
          "type": "uint256"
        }
      ],
      "name": "ownerOf",
      "outputs": [
        {
          "internalType": "address",
          "name": "",
          "type": "address"
        }
      ],
      "stateMutability": "view",
      "type": "function",
      "constant": true
    },
    {
      "inputs": [
        {
          "internalType": "address",
          "name": "from",
          "type": "address"
        },
        {
          "internalType": "address",
          "name": "to",
          "type": "address"
        },
        {
          "internalType": "uint256",
          "name": "tokenId",
          "type": "uint256"
        }
      ],
      "name": "safeTransferFrom",
      "outputs": [],
      "stateMutability": "nonpayable",
      "type": "function"
    },
    {
      "inputs": [
        {
          "internalType": "address",
          "name": "from",
          "type": "address"
        },
        {
          "internalType": "address",
          "name": "to",
          "type": "address"
        },
        {
          "internalType": "uint256",
          "name": "tokenId",
          "type": "uint256"
        },
        {
          "internalType": "bytes",
          "name": "data",
          "type": "bytes"
        }
      ],
      "name": "safeTransferFrom",
      "outputs": [],
      "stateMutability": "nonpayable",
      "type": "function"
    },
    {
      "inputs": [
        {
          "internalType": "address",
          "name": "operator",
          "type": "address"
        },
        {
          "internalType": "bool",
          "name": "approved",
          "type": "bool"
        }
      ],
      "name": "setApprovalForAll",
      "outputs": [],
      "stateMutability": "nonpayable",
      "type": "function"
    },
    {
      "inputs": [
        {
          "internalType": "bytes4",
          "name": "interfaceId",
          "type": "bytes4"
        }
      ],
      "name": "supportsInterface",
      "outputs": [
        {
          "internalType": "bool",
          "name": "",
          "type": "bool"
        }
      ],
      "stateMutability": "view",
      "type": "function",
      "constant": true
    },
    {
      "inputs": [],
      "name": "symbol",
      "outputs": [
        {
          "internalType": "string",
          "name": "",
          "type": "string"
        }
      ],
      "stateMutability": "view",
      "type": "function",
      "constant": true
    },
    {
      "inputs": [
        {
          "internalType": "uint256",
          "name": "index",
          "type": "uint256"
        }
      ],
      "name": "tokenByIndex",
      "outputs": [
        {
          "internalType": "uint256",
          "name": "",
          "type": "uint256"
        }
      ],
      "stateMutability": "view",
      "type": "function",
      "constant": true
    },
    {
      "inputs": [
        {
          "internalType": "address",
          "name": "owner",
          "type": "address"
        },
        {
          "internalType": "uint256",
          "name": "index",
          "type": "uint256"
        }
      ],
      "name": "tokenOfOwnerByIndex",
      "outputs": [
        {
          "internalType": "uint256",
          "name": "",
          "type": "uint256"
        }
      ],
      "stateMutability": "view",
      "type": "function",
      "constant": true
    },
    {
      "inputs": [
        {
          "internalType": "uint256",
          "name": "tokenId",
          "type": "uint256"
        }
      ],
      "name": "tokenURI",
      "outputs": [
        {
          "internalType": "string",
          "name": "",
          "type": "string"
        }
      ],
      "stateMutability": "view",
      "type": "function",
      "constant": true
    },
    {
      "inputs": [],
      "name": "totalSupply",
      "outputs": [
        {
          "internalType": "uint256",
          "name": "",
          "type": "uint256"
        }
      ],
      "stateMutability": "view",
      "type": "function",
      "constant": true
    },
    {
      "inputs": [
        {
          "internalType": "address",
          "name": "from",
          "type": "address"
        },
        {
          "internalType": "address",
          "name": "to",
          "type": "address"
        },
        {
          "internalType": "uint256",
          "name": "tokenId",
          "type": "uint256"
        }
      ],
      "name": "transferFrom",
      "outputs": [],
      "stateMutability": "nonpayable",
      "type": "function"
    },
    {
      "inputs": [
        {
          "internalType": "address",
          "name": "universityContract",
          "type": "address"
        }
      ],
      "name": "setUniversityContract",
      "outputs": [],
      "stateMutability": "nonpayable",
      "type": "function"
    },
    {
      "inputs": [],
      "name": "getUniversityAddress",
      "outputs": [
        {
          "internalType": "address",
          "name": "",
          "type": "address"
        }
      ],
      "stateMutability": "view",
      "type": "function",
      "constant": true
    },
    {
      "inputs": [
        {
          "internalType": "address",
          "name": "recipient",
          "type": "address"
        },
        {
          "internalType": "string",
          "name": "description",
          "type": "string"
        },
        {
          "internalType": "string",
          "name": "dateIssued",
          "type": "string"
        },
        {
          "internalType": "string",
          "name": "imageUrl",
          "type": "string"
        }
      ],
      "name": "mint",
      "outputs": [],
      "stateMutability": "nonpayable",
      "type": "function"
    },
    {
      "inputs": [
        {
          "internalType": "uint256",
          "name": "tokenId",
          "type": "uint256"
        }
      ],
      "name": "burn",
      "outputs": [],
      "stateMutability": "nonpayable",
      "type": "function"
    },
    {
      "inputs": [],
      "name": "getCurrentTokenId",
      "outputs": [
        {
          "internalType": "uint256",
          "name": "",
          "type": "uint256"
        }
      ],
      "stateMutability": "view",
      "type": "function",
      "constant": true
    },
    {
      "inputs": [
        {
          "internalType": "uint256",
          "name": "tokenId",
          "type": "uint256"
        }
      ],
      "name": "getCertificateDetails",
      "outputs": [
        {
          "internalType": "string",
          "name": "description",
          "type": "string"
        },
        {
          "internalType": "string",
          "name": "dateIssued",
          "type": "string"
        },
        {
          "internalType": "string",
          "name": "imageUrl",
          "type": "string"
        }
      ],
      "stateMutability": "view",
      "type": "function",
      "constant": true
    }
  ],
  "bytecode": "0x60806040523480156200001157600080fd5b506040518060400160405280601281526020017f4469706c6f6d61436572746966696361746500000000000000000000000000008152506040518060400160405280600581526020017f444345525400000000000000000000000000000000000000000000000000000081525081600090816200008f919062000365565b508060019081620000a1919062000365565b50505033600b60006101000a81548173ffffffffffffffffffffffffffffffffffffffff021916908373ffffffffffffffffffffffffffffffffffffffff1602179055506200044c565b600081519050919050565b7f4e487b7100000000000000000000000000000000000000000000000000000000600052604160045260246000fd5b7f4e487b7100000000000000000000000000000000000000000000000000000000600052602260045260246000fd5b600060028204905060018216806200016d57607f821691505b60208210810362000183576200018262000125565b5b50919050565b60008190508160005260206000209050919050565b60006020601f8301049050919050565b600082821b905092915050565b600060088302620001ed7fffffffffffffffffffffffffffffffffffffffffffffffffffffffffffffffff82620001ae565b620001f98683620001ae565b95508019841693508086168417925050509392505050565b6000819050919050565b6000819050919050565b600062000246620002406200023a8462000211565b6200021b565b62000211565b9050919050565b6000819050919050565b620002628362000225565b6200027a62000271826200024d565b848454620001bb565b825550505050565b600090565b6200029162000282565b6200029e81848462000257565b505050565b5b81811015620002c657620002ba60008262000287565b600181019050620002a4565b5050565b601f8211156200031557620002df8162000189565b620002ea846200019e565b81016020851015620002fa578190505b6200031262000309856200019e565b830182620002a3565b50505b505050565b600082821c905092915050565b60006200033a600019846008026200031a565b1980831691505092915050565b600062000355838362000327565b9150826002028217905092915050565b6200037082620000eb565b67ffffffffffffffff8111156200038c576200038b620000f6565b5b62000398825462000154565b620003a5828285620002ca565b600060209050601f831160018114620003dd5760008415620003c8578287015190505b620003d4858262000347565b86555062000444565b601f198416620003ed8662000189565b60005b828110156200041757848901518255600182019150602085019450602081019050620003f0565b8683101562000437578489015162000433601f89168262000327565b8355505b6001600288020188555050505b505050505050565b613aad806200045c6000396000f3fe608060405234801561001057600080fd5b506004361061014d5760003560e01c80634f6ccce7116100c357806395d89b411161007c57806395d89b41146103b0578063a22cb465146103ce578063a901fe5e146103ea578063b88d4fde1461041c578063c87b56dd14610438578063e985e9c5146104685761014d565b80634f6ccce7146102c857806356189236146102f85780636352211e1461031657806370a082311461034657806384c4bd4b146103765780638d46bda4146103945761014d565b806318160ddd1161011557806318160ddd1461020a57806323b872dd146102285780632f745c591461024457806342842e0e1461027457806342966c68146102905780634a0706be146102ac5761014d565b806301ffc9a71461015257806306fdde0314610182578063081812fc146101a0578063095ea7b3146101d057806313b2a04a146101ec575b600080fd5b61016c6004803603810190610167919061260e565b610498565b6040516101799190612656565b60405180910390f35b61018a610512565b6040516101979190612701565b60405180910390f35b6101ba60048036038101906101b59190612759565b6105a4565b6040516101c791906127c7565b60405180910390f35b6101ea60048036038101906101e5919061280e565b6105ea565b005b6101f4610701565b60405161020191906127c7565b60405180910390f35b61021261072b565b60405161021f919061285d565b60405180910390f35b610242600480360381019061023d9190612878565b610738565b005b61025e6004803603810190610259919061280e565b610798565b60405161026b919061285d565b60405180910390f35b61028e60048036038101906102899190612878565b61083d565b005b6102aa60048036038101906102a59190612759565b61085d565b005b6102c660048036038101906102c19190612a00565b6108f9565b005b6102e260048036038101906102dd9190612759565b610a7d565b6040516102ef919061285d565b60405180910390f35b610300610aee565b60405161030d919061285d565b60405180910390f35b610330600480360381019061032b9190612759565b610aff565b60405161033d91906127c7565b60405180910390f35b610360600480360381019061035b9190612abb565b610b85565b60405161036d919061285d565b60405180910390f35b61037e610c3c565b60405161038b919061285d565b60405180910390f35b6103ae60048036038101906103a99190612abb565b610c48565b005b6103b8610d1c565b6040516103c59190612701565b60405180910390f35b6103e860048036038101906103e39190612b14565b610dae565b005b61040460048036038101906103ff9190612759565b610dc4565b60405161041393929190612b54565b60405180910390f35b61043660048036038101906104319190612c41565b610fbe565b005b610452600480360381019061044d9190612759565b611020565b60405161045f9190612701565b60405180910390f35b610482600480360381019061047d9190612cc4565b611088565b60405161048f9190612656565b60405180910390f35b60007f780e9d63000000000000000000000000000000000000000000000000000000007bffffffffffffffffffffffffffffffffffffffffffffffffffffffff1916827bffffffffffffffffffffffffffffffffffffffffffffffffffffffff1916148061050b575061050a8261111c565b5b9050919050565b60606000805461052190612d33565b80601f016020809104026020016040519081016040528092919081815260200182805461054d90612d33565b801561059a5780601f1061056f5761010080835404028352916020019161059a565b820191906000526020600020905b81548152906001019060200180831161057d57829003601f168201915b5050505050905090565b60006105af826111fe565b6004600083815260200190815260200160002060009054906101000a900473ffffffffffffffffffffffffffffffffffffffff169050919050565b60006105f582610aff565b90508073ffffffffffffffffffffffffffffffffffffffff168373ffffffffffffffffffffffffffffffffffffffff1603610665576040517f08c379a000000000000000000000000000000000000000000000000000000000815260040161065c90612dd6565b60405180910390fd5b8073ffffffffffffffffffffffffffffffffffffffff16610684611249565b73ffffffffffffffffffffffffffffffffffffffff1614806106b357506106b2816106ad611249565b611088565b5b6106f2576040517f08c379a00000000000000000000000000000000000000000000000000000000081526004016106e990612e68565b60405180910390fd5b6106fc8383611251565b505050565b6000600c60009054906101000a900473ffffffffffffffffffffffffffffffffffffffff16905090565b6000600880549050905090565b610749610743611249565b8261130a565b610788576040517f08c379a000000000000000000000000000000000000000000000000000000000815260040161077f90612efa565b60405180910390fd5b61079383838361139f565b505050565b60006107a383610b85565b82106107e4576040517f08c379a00000000000000000000000000000000000000000000000000000000081526004016107db90612f8c565b60405180910390fd5b600660008473ffffffffffffffffffffffffffffffffffffffff1673ffffffffffffffffffffffffffffffffffffffff168152602001908152602001600020600083815260200190815260200160002054905092915050565b61085883838360405180602001604052806000815250610fbe565b505050565b600c60009054906101000a900473ffffffffffffffffffffffffffffffffffffffff1673ffffffffffffffffffffffffffffffffffffffff163373ffffffffffffffffffffffffffffffffffffffff16146108ed576040517f08c379a00000000000000000000000000000000000000000000000000000000081526004016108e49061301e565b60405180910390fd5b6108f681611698565b50565b600b60009054906101000a900473ffffffffffffffffffffffffffffffffffffffff1673ffffffffffffffffffffffffffffffffffffffff163373ffffffffffffffffffffffffffffffffffffffff1614806109a25750600c60009054906101000a900473ffffffffffffffffffffffffffffffffffffffff1673ffffffffffffffffffffffffffffffffffffffff163373ffffffffffffffffffffffffffffffffffffffff16145b6109e1576040517f08c379a00000000000000000000000000000000000000000000000000000000081526004016109d89061308a565b60405180910390fd5b6109eb600a6117e6565b60006109f7600a6117fc565b9050610a03858261180a565b604051806060016040528085815260200184815260200183815250600d60008381526020019081526020016000206000820151816000019081610a469190613256565b506020820151816001019081610a5c9190613256565b506040820151816002019081610a729190613256565b509050505050505050565b6000610a8761072b565b8210610ac8576040517f08c379a0000000000000000000000000000000000000000000000000000000008152600401610abf9061339a565b60405180910390fd5b60088281548110610adc57610adb6133ba565b5b90600052602060002001549050919050565b6000610afa600a6117fc565b905090565b600080610b0b83611828565b9050600073ffffffffffffffffffffffffffffffffffffffff168173ffffffffffffffffffffffffffffffffffffffff1603610b7c576040517f08c379a0000000000000000000000000000000000000000000000000000000008152600401610b7390613435565b60405180910390fd5b80915050919050565b60008073ffffffffffffffffffffffffffffffffffffffff168273ffffffffffffffffffffffffffffffffffffffff1603610bf5576040517f08c379a0000000000000000000000000000000000000000000000000000000008152600401610bec906134c7565b60405180910390fd5b600360008373ffffffffffffffffffffffffffffffffffffffff1673ffffffffffffffffffffffffffffffffffffffff168152602001908152602001600020549050919050565b600a8060000154905081565b600b60009054906101000a900473ffffffffffffffffffffffffffffffffffffffff1673ffffffffffffffffffffffffffffffffffffffff163373ffffffffffffffffffffffffffffffffffffffff1614610cd8576040517f08c379a0000000000000000000000000000000000000000000000000000000008152600401610ccf9061308a565b60405180910390fd5b80600c60006101000a81548173ffffffffffffffffffffffffffffffffffffffff021916908373ffffffffffffffffffffffffffffffffffffffff16021790555050565b606060018054610d2b90612d33565b80601f0160208091040260200160405190810160405280929190818152602001828054610d5790612d33565b8015610da45780601f10610d7957610100808354040283529160200191610da4565b820191906000526020600020905b815481529060010190602001808311610d8757829003601f168201915b5050505050905090565b610dc0610db9611249565b8383611865565b5050565b60608060606000600d6000868152602001908152602001600020604051806060016040529081600082018054610df990612d33565b80601f0160208091040260200160405190810160405280929190818152602001828054610e2590612d33565b8015610e725780601f10610e4757610100808354040283529160200191610e72565b820191906000526020600020905b815481529060010190602001808311610e5557829003601f168201915b50505050508152602001600182018054610e8b90612d33565b80601f0160208091040260200160405190810160405280929190818152602001828054610eb790612d33565b8015610f045780601f10610ed957610100808354040283529160200191610f04565b820191906000526020600020905b815481529060010190602001808311610ee757829003601f168201915b50505050508152602001600282018054610f1d90612d33565b80601f0160208091040260200160405190810160405280929190818152602001828054610f4990612d33565b8015610f965780601f10610f6b57610100808354040283529160200191610f96565b820191906000526020600020905b815481529060010190602001808311610f7957829003601f168201915b5050505050815250509050806000015181602001518260400151935093509350509193909250565b610fcf610fc9611249565b8361130a565b61100e576040517f08c379a000000000000000000000000000000000000000000000000000000000815260040161100590612efa565b60405180910390fd5b61101a848484846119d1565b50505050565b606061102b826111fe565b6000611035611a2d565b905060008151116110555760405180602001604052806000815250611080565b8061105f84611a44565b604051602001611070929190613523565b6040516020818303038152906040525b915050919050565b6000600560008473ffffffffffffffffffffffffffffffffffffffff1673ffffffffffffffffffffffffffffffffffffffff16815260200190815260200160002060008373ffffffffffffffffffffffffffffffffffffffff1673ffffffffffffffffffffffffffffffffffffffff16815260200190815260200160002060009054906101000a900460ff16905092915050565b60007f80ac58cd000000000000000000000000000000000000000000000000000000007bffffffffffffffffffffffffffffffffffffffffffffffffffffffff1916827bffffffffffffffffffffffffffffffffffffffffffffffffffffffff191614806111e757507f5b5e139f000000000000000000000000000000000000000000000000000000007bffffffffffffffffffffffffffffffffffffffffffffffffffffffff1916827bffffffffffffffffffffffffffffffffffffffffffffffffffffffff1916145b806111f757506111f682611b12565b5b9050919050565b61120781611b7c565b611246576040517f08c379a000000000000000000000000000000000000000000000000000000000815260040161123d90613435565b60405180910390fd5b50565b600033905090565b816004600083815260200190815260200160002060006101000a81548173ffffffffffffffffffffffffffffffffffffffff021916908373ffffffffffffffffffffffffffffffffffffffff160217905550808273ffffffffffffffffffffffffffffffffffffffff166112c483610aff565b73ffffffffffffffffffffffffffffffffffffffff167f8c5be1e5ebec7d5bd14f71427d1e84f3dd0314c0f7b2291e5b200ac8c7c3b92560405160405180910390a45050565b60008061131683610aff565b90508073ffffffffffffffffffffffffffffffffffffffff168473ffffffffffffffffffffffffffffffffffffffff16148061135857506113578185611088565b5b8061139657508373ffffffffffffffffffffffffffffffffffffffff1661137e846105a4565b73ffffffffffffffffffffffffffffffffffffffff16145b91505092915050565b8273ffffffffffffffffffffffffffffffffffffffff166113bf82610aff565b73ffffffffffffffffffffffffffffffffffffffff1614611415576040517f08c379a000000000000000000000000000000000000000000000000000000000815260040161140c906135b9565b60405180910390fd5b600073ffffffffffffffffffffffffffffffffffffffff168273ffffffffffffffffffffffffffffffffffffffff1603611484576040517f08c379a000000000000000000000000000000000000000000000000000000000815260040161147b9061364b565b60405180910390fd5b6114918383836001611bbd565b8273ffffffffffffffffffffffffffffffffffffffff166114b182610aff565b73ffffffffffffffffffffffffffffffffffffffff1614611507576040517f08c379a00000000000000000000000000000000000000000000000000000000081526004016114fe906135b9565b60405180910390fd5b6004600082815260200190815260200160002060006101000a81549073ffffffffffffffffffffffffffffffffffffffff02191690556001600360008573ffffffffffffffffffffffffffffffffffffffff1673ffffffffffffffffffffffffffffffffffffffff168152602001908152602001600020600082825403925050819055506001600360008473ffffffffffffffffffffffffffffffffffffffff1673ffffffffffffffffffffffffffffffffffffffff16815260200190815260200160002060008282540192505081905550816002600083815260200190815260200160002060006101000a81548173ffffffffffffffffffffffffffffffffffffffff021916908373ffffffffffffffffffffffffffffffffffffffff160217905550808273ffffffffffffffffffffffffffffffffffffffff168473ffffffffffffffffffffffffffffffffffffffff167fddf252ad1be2c89b69c2b068fc378daa952ba7f163c4a11628f55a4df523b3ef60405160405180910390a46116938383836001611d1b565b505050565b60006116a382610aff565b90506116b3816000846001611bbd565b6116bc82610aff565b90506004600083815260200190815260200160002060006101000a81549073ffffffffffffffffffffffffffffffffffffffff02191690556001600360008373ffffffffffffffffffffffffffffffffffffffff1673ffffffffffffffffffffffffffffffffffffffff168152602001908152602001600020600082825403925050819055506002600083815260200190815260200160002060006101000a81549073ffffffffffffffffffffffffffffffffffffffff021916905581600073ffffffffffffffffffffffffffffffffffffffff168273ffffffffffffffffffffffffffffffffffffffff167fddf252ad1be2c89b69c2b068fc378daa952ba7f163c4a11628f55a4df523b3ef60405160405180910390a46117e2816000846001611d1b565b5050565b6001816000016000828254019250508190555050565b600081600001549050919050565b611824828260405180602001604052806000815250611d21565b5050565b60006002600083815260200190815260200160002060009054906101000a900473ffffffffffffffffffffffffffffffffffffffff169050919050565b8173ffffffffffffffffffffffffffffffffffffffff168373ffffffffffffffffffffffffffffffffffffffff16036118d3576040517f08c379a00000000000000000000000000000000000000000000000000000000081526004016118ca906136b7565b60405180910390fd5b80600560008573ffffffffffffffffffffffffffffffffffffffff1673ffffffffffffffffffffffffffffffffffffffff16815260200190815260200160002060008473ffffffffffffffffffffffffffffffffffffffff1673ffffffffffffffffffffffffffffffffffffffff16815260200190815260200160002060006101000a81548160ff0219169083151502179055508173ffffffffffffffffffffffffffffffffffffffff168373ffffffffffffffffffffffffffffffffffffffff167f17307eab39ab6107e8899845ad3d59bd9653f200f220920489ca2b5937696c31836040516119c49190612656565b60405180910390a3505050565b6119dc84848461139f565b6119e884848484611d7c565b611a27576040517f08c379a0000000000000000000000000000000000000000000000000000000008152600401611a1e90613749565b60405180910390fd5b50505050565b606060405180602001604052806000815250905090565b606060006001611a5384611f03565b01905060008167ffffffffffffffff811115611a7257611a716128d5565b5b6040519080825280601f01601f191660200182016040528015611aa45781602001600182028036833780820191505090505b509050600082602001820190505b600115611b07578080600190039150507f3031323334353637383961626364656600000000000000000000000000000000600a86061a8153600a8581611afb57611afa613769565b5b04945060008503611ab2575b819350505050919050565b60007f01ffc9a7000000000000000000000000000000000000000000000000000000007bffffffffffffffffffffffffffffffffffffffffffffffffffffffff1916827bffffffffffffffffffffffffffffffffffffffffffffffffffffffff1916149050919050565b60008073ffffffffffffffffffffffffffffffffffffffff16611b9e83611828565b73ffffffffffffffffffffffffffffffffffffffff1614159050919050565b611bc984848484612056565b6001811115611c0d576040517f08c379a0000000000000000000000000000000000000000000000000000000008152600401611c049061380a565b60405180910390fd5b6000829050600073ffffffffffffffffffffffffffffffffffffffff168573ffffffffffffffffffffffffffffffffffffffff1603611c5457611c4f8161205c565b611c93565b8373ffffffffffffffffffffffffffffffffffffffff168573ffffffffffffffffffffffffffffffffffffffff1614611c9257611c9185826120a5565b5b5b600073ffffffffffffffffffffffffffffffffffffffff168473ffffffffffffffffffffffffffffffffffffffff1603611cd557611cd081612212565b611d14565b8473ffffffffffffffffffffffffffffffffffffffff168473ffffffffffffffffffffffffffffffffffffffff1614611d1357611d1284826122e3565b5b5b5050505050565b50505050565b611d2b8383612362565b611d386000848484611d7c565b611d77576040517f08c379a0000000000000000000000000000000000000000000000000000000008152600401611d6e90613749565b60405180910390fd5b505050565b6000611d9d8473ffffffffffffffffffffffffffffffffffffffff1661257f565b15611ef6578373ffffffffffffffffffffffffffffffffffffffff1663150b7a02611dc6611249565b8786866040518563ffffffff1660e01b8152600401611de8949392919061387f565b6020604051808303816000875af1925050508015611e2457506040513d601f19601f82011682018060405250810190611e2191906138e0565b60015b611ea6573d8060008114611e54576040519150601f19603f3d011682016040523d82523d6000602084013e611e59565b606091505b506000815103611e9e576040517f08c379a0000000000000000000000000000000000000000000000000000000008152600401611e9590613749565b60405180910390fd5b805181602001fd5b63150b7a0260e01b7bffffffffffffffffffffffffffffffffffffffffffffffffffffffff1916817bffffffffffffffffffffffffffffffffffffffffffffffffffffffff191614915050611efb565b600190505b949350505050565b600080600090507a184f03e93ff9f4daa797ed6e38ed64bf6a1f0100000000000000008310611f61577a184f03e93ff9f4daa797ed6e38ed64bf6a1f0100000000000000008381611f5757611f56613769565b5b0492506040810190505b6d04ee2d6d415b85acef81000000008310611f9e576d04ee2d6d415b85acef81000000008381611f9457611f93613769565b5b0492506020810190505b662386f26fc100008310611fcd57662386f26fc100008381611fc357611fc2613769565b5b0492506010810190505b6305f5e1008310611ff6576305f5e1008381611fec57611feb613769565b5b0492506008810190505b612710831061201b57612710838161201157612010613769565b5b0492506004810190505b6064831061203e576064838161203457612033613769565b5b0492506002810190505b600a831061204d576001810190505b80915050919050565b50505050565b6008805490506009600083815260200190815260200160002081905550600881908060018154018082558091505060019003906000526020600020016000909190919091505550565b600060016120b284610b85565b6120bc919061393c565b90506000600760008481526020019081526020016000205490508181146121a1576000600660008673ffffffffffffffffffffffffffffffffffffffff1673ffffffffffffffffffffffffffffffffffffffff168152602001908152602001600020600084815260200190815260200160002054905080600660008773ffffffffffffffffffffffffffffffffffffffff1673ffffffffffffffffffffffffffffffffffffffff168152602001908152602001600020600084815260200190815260200160002081905550816007600083815260200190815260200160002081905550505b6007600084815260200190815260200160002060009055600660008573ffffffffffffffffffffffffffffffffffffffff1673ffffffffffffffffffffffffffffffffffffffff16815260200190815260200160002060008381526020019081526020016000206000905550505050565b60006001600880549050612226919061393c565b9050600060096000848152602001908152602001600020549050600060088381548110612256576122556133ba565b5b906000526020600020015490508060088381548110612278576122776133ba565b5b9060005260206000200181905550816009600083815260200190815260200160002081905550600960008581526020019081526020016000206000905560088054806122c7576122c6613970565b5b6001900381819060005260206000200160009055905550505050565b60006122ee83610b85565b905081600660008573ffffffffffffffffffffffffffffffffffffffff1673ffffffffffffffffffffffffffffffffffffffff168152602001908152602001600020600083815260200190815260200160002081905550806007600084815260200190815260200160002081905550505050565b600073ffffffffffffffffffffffffffffffffffffffff168273ffffffffffffffffffffffffffffffffffffffff16036123d1576040517f08c379a00000000000000000000000000000000000000000000000000000000081526004016123c8906139eb565b60405180910390fd5b6123da81611b7c565b1561241a576040517f08c379a000000000000000000000000000000000000000000000000000000000815260040161241190613a57565b60405180910390fd5b612428600083836001611bbd565b61243181611b7c565b15612471576040517f08c379a000000000000000000000000000000000000000000000000000000000815260040161246890613a57565b60405180910390fd5b6001600360008473ffffffffffffffffffffffffffffffffffffffff1673ffffffffffffffffffffffffffffffffffffffff16815260200190815260200160002060008282540192505081905550816002600083815260200190815260200160002060006101000a81548173ffffffffffffffffffffffffffffffffffffffff021916908373ffffffffffffffffffffffffffffffffffffffff160217905550808273ffffffffffffffffffffffffffffffffffffffff16600073ffffffffffffffffffffffffffffffffffffffff167fddf252ad1be2c89b69c2b068fc378daa952ba7f163c4a11628f55a4df523b3ef60405160405180910390a461257b600083836001611d1b565b5050565b6000808273ffffffffffffffffffffffffffffffffffffffff163b119050919050565b6000604051905090565b600080fd5b600080fd5b60007fffffffff0000000000000000000000000000000000000000000000000000000082169050919050565b6125eb816125b6565b81146125f657600080fd5b50565b600081359050612608816125e2565b92915050565b600060208284031215612624576126236125ac565b5b6000612632848285016125f9565b91505092915050565b60008115159050919050565b6126508161263b565b82525050565b600060208201905061266b6000830184612647565b92915050565b600081519050919050565b600082825260208201905092915050565b60005b838110156126ab578082015181840152602081019050612690565b60008484015250505050565b6000601f19601f8301169050919050565b60006126d382612671565b6126dd818561267c565b93506126ed81856020860161268d565b6126f6816126b7565b840191505092915050565b6000602082019050818103600083015261271b81846126c8565b905092915050565b6000819050919050565b61273681612723565b811461274157600080fd5b50565b6000813590506127538161272d565b92915050565b60006020828403121561276f5761276e6125ac565b5b600061277d84828501612744565b91505092915050565b600073ffffffffffffffffffffffffffffffffffffffff82169050919050565b60006127b182612786565b9050919050565b6127c1816127a6565b82525050565b60006020820190506127dc60008301846127b8565b92915050565b6127eb816127a6565b81146127f657600080fd5b50565b600081359050612808816127e2565b92915050565b60008060408385031215612825576128246125ac565b5b6000612833858286016127f9565b925050602061284485828601612744565b9150509250929050565b61285781612723565b82525050565b6000602082019050612872600083018461284e565b92915050565b600080600060608486031215612891576128906125ac565b5b600061289f868287016127f9565b93505060206128b0868287016127f9565b92505060406128c186828701612744565b9150509250925092565b600080fd5b600080fd5b7f4e487b7100000000000000000000000000000000000000000000000000000000600052604160045260246000fd5b61290d826126b7565b810181811067ffffffffffffffff8211171561292c5761292b6128d5565b5b80604052505050565b600061293f6125a2565b905061294b8282612904565b919050565b600067ffffffffffffffff82111561296b5761296a6128d5565b5b612974826126b7565b9050602081019050919050565b82818337600083830152505050565b60006129a361299e84612950565b612935565b9050828152602081018484840111156129bf576129be6128d0565b5b6129ca848285612981565b509392505050565b600082601f8301126129e7576129e66128cb565b5b81356129f7848260208601612990565b91505092915050565b60008060008060808587031215612a1a57612a196125ac565b5b6000612a28878288016127f9565b945050602085013567ffffffffffffffff811115612a4957612a486125b1565b5b612a55878288016129d2565b935050604085013567ffffffffffffffff811115612a7657612a756125b1565b5b612a82878288016129d2565b925050606085013567ffffffffffffffff811115612aa357612aa26125b1565b5b612aaf878288016129d2565b91505092959194509250565b600060208284031215612ad157612ad06125ac565b5b6000612adf848285016127f9565b91505092915050565b612af18161263b565b8114612afc57600080fd5b50565b600081359050612b0e81612ae8565b92915050565b60008060408385031215612b2b57612b2a6125ac565b5b6000612b39858286016127f9565b9250506020612b4a85828601612aff565b9150509250929050565b60006060820190508181036000830152612b6e81866126c8565b90508181036020830152612b8281856126c8565b90508181036040830152612b9681846126c8565b9050949350505050565b600067ffffffffffffffff821115612bbb57612bba6128d5565b5b612bc4826126b7565b9050602081019050919050565b6000612be4612bdf84612ba0565b612935565b905082815260208101848484011115612c0057612bff6128d0565b5b612c0b848285612981565b509392505050565b600082601f830112612c2857612c276128cb565b5b8135612c38848260208601612bd1565b91505092915050565b60008060008060808587031215612c5b57612c5a6125ac565b5b6000612c69878288016127f9565b9450506020612c7a878288016127f9565b9350506040612c8b87828801612744565b925050606085013567ffffffffffffffff811115612cac57612cab6125b1565b5b612cb887828801612c13565b91505092959194509250565b60008060408385031215612cdb57612cda6125ac565b5b6000612ce9858286016127f9565b9250506020612cfa858286016127f9565b9150509250929050565b7f4e487b7100000000000000000000000000000000000000000000000000000000600052602260045260246000fd5b60006002820490506001821680612d4b57607f821691505b602082108103612d5e57612d5d612d04565b5b50919050565b7f4552433732313a20617070726f76616c20746f2063757272656e74206f776e6560008201527f7200000000000000000000000000000000000000000000000000000000000000602082015250565b6000612dc060218361267c565b9150612dcb82612d64565b604082019050919050565b60006020820190508181036000830152612def81612db3565b9050919050565b7f4552433732313a20617070726f76652063616c6c6572206973206e6f7420746f60008201527f6b656e206f776e6572206f7220617070726f76656420666f7220616c6c000000602082015250565b6000612e52603d8361267c565b9150612e5d82612df6565b604082019050919050565b60006020820190508181036000830152612e8181612e45565b9050919050565b7f4552433732313a2063616c6c6572206973206e6f7420746f6b656e206f776e6560008201527f72206f7220617070726f76656400000000000000000000000000000000000000602082015250565b6000612ee4602d8361267c565b9150612eef82612e88565b604082019050919050565b60006020820190508181036000830152612f1381612ed7565b9050919050565b7f455243373231456e756d657261626c653a206f776e657220696e646578206f7560008201527f74206f6620626f756e6473000000000000000000000000000000000000000000602082015250565b6000612f76602b8361267c565b9150612f8182612f1a565b604082019050919050565b60006020820190508181036000830152612fa581612f69565b9050919050565b7f4f6e6c7920556e6976657273697479546f6b656e2063616e206275726e20746f60008201527f6b656e732e000000000000000000000000000000000000000000000000000000602082015250565b600061300860258361267c565b915061301382612fac565b604082019050919050565b6000602082019050818103600083015261303781612ffb565b9050919050565b7f4e6f7420617574686f72697a6564000000000000000000000000000000000000600082015250565b6000613074600e8361267c565b915061307f8261303e565b602082019050919050565b600060208201905081810360008301526130a381613067565b9050919050565b60008190508160005260206000209050919050565b60006020601f8301049050919050565b600082821b905092915050565b60006008830261310c7fffffffffffffffffffffffffffffffffffffffffffffffffffffffffffffffff826130cf565b61311686836130cf565b95508019841693508086168417925050509392505050565b6000819050919050565b600061315361314e61314984612723565b61312e565b612723565b9050919050565b6000819050919050565b61316d83613138565b6131816131798261315a565b8484546130dc565b825550505050565b600090565b613196613189565b6131a1818484613164565b505050565b5b818110156131c5576131ba60008261318e565b6001810190506131a7565b5050565b601f82111561320a576131db816130aa565b6131e4846130bf565b810160208510156131f3578190505b6132076131ff856130bf565b8301826131a6565b50505b505050565b600082821c905092915050565b600061322d6000198460080261320f565b1980831691505092915050565b6000613246838361321c565b9150826002028217905092915050565b61325f82612671565b67ffffffffffffffff811115613278576132776128d5565b5b6132828254612d33565b61328d8282856131c9565b600060209050601f8311600181146132c057600084156132ae578287015190505b6132b8858261323a565b865550613320565b601f1984166132ce866130aa565b60005b828110156132f6578489015182556001820191506020850194506020810190506132d1565b86831015613313578489015161330f601f89168261321c565b8355505b6001600288020188555050505b505050505050565b7f455243373231456e756d657261626c653a20676c6f62616c20696e646578206f60008201527f7574206f6620626f756e64730000000000000000000000000000000000000000602082015250565b6000613384602c8361267c565b915061338f82613328565b604082019050919050565b600060208201905081810360008301526133b381613377565b9050919050565b7f4e487b7100000000000000000000000000000000000000000000000000000000600052603260045260246000fd5b7f4552433732313a20696e76616c696420746f6b656e2049440000000000000000600082015250565b600061341f60188361267c565b915061342a826133e9565b602082019050919050565b6000602082019050818103600083015261344e81613412565b9050919050565b7f4552433732313a2061646472657373207a65726f206973206e6f74206120766160008201527f6c6964206f776e65720000000000000000000000000000000000000000000000602082015250565b60006134b160298361267c565b91506134bc82613455565b604082019050919050565b600060208201905081810360008301526134e0816134a4565b9050919050565b600081905092915050565b60006134fd82612671565b61350781856134e7565b935061351781856020860161268d565b80840191505092915050565b600061352f82856134f2565b915061353b82846134f2565b91508190509392505050565b7f4552433732313a207472616e736665722066726f6d20696e636f72726563742060008201527f6f776e6572000000000000000000000000000000000000000000000000000000602082015250565b60006135a360258361267c565b91506135ae82613547565b604082019050919050565b600060208201905081810360008301526135d281613596565b9050919050565b7f4552433732313a207472616e7366657220746f20746865207a65726f2061646460008201527f7265737300000000000000000000000000000000000000000000000000000000602082015250565b600061363560248361267c565b9150613640826135d9565b604082019050919050565b6000602082019050818103600083015261366481613628565b9050919050565b7f4552433732313a20617070726f766520746f2063616c6c657200000000000000600082015250565b60006136a160198361267c565b91506136ac8261366b565b602082019050919050565b600060208201905081810360008301526136d081613694565b9050919050565b7f4552433732313a207472616e7366657220746f206e6f6e20455243373231526560008201527f63656976657220696d706c656d656e7465720000000000000000000000000000602082015250565b600061373360328361267c565b915061373e826136d7565b604082019050919050565b6000602082019050818103600083015261376281613726565b9050919050565b7f4e487b7100000000000000000000000000000000000000000000000000000000600052601260045260246000fd5b7f455243373231456e756d657261626c653a20636f6e736563757469766520747260008201527f616e7366657273206e6f7420737570706f727465640000000000000000000000602082015250565b60006137f460358361267c565b91506137ff82613798565b604082019050919050565b60006020820190508181036000830152613823816137e7565b9050919050565b600081519050919050565b600082825260208201905092915050565b60006138518261382a565b61385b8185613835565b935061386b81856020860161268d565b613874816126b7565b840191505092915050565b600060808201905061389460008301876127b8565b6138a160208301866127b8565b6138ae604083018561284e565b81810360608301526138c08184613846565b905095945050505050565b6000815190506138da816125e2565b92915050565b6000602082840312156138f6576138f56125ac565b5b6000613904848285016138cb565b91505092915050565b7f4e487b7100000000000000000000000000000000000000000000000000000000600052601160045260246000fd5b600061394782612723565b915061395283612723565b925082820390508181111561396a5761396961390d565b5b92915050565b7f4e487b7100000000000000000000000000000000000000000000000000000000600052603160045260246000fd5b7f4552433732313a206d696e7420746f20746865207a65726f2061646472657373600082015250565b60006139d560208361267c565b91506139e08261399f565b602082019050919050565b60006020820190508181036000830152613a04816139c8565b9050919050565b7f4552433732313a20746f6b656e20616c7265616479206d696e74656400000000600082015250565b6000613a41601c8361267c565b9150613a4c82613a0b565b602082019050919050565b60006020820190508181036000830152613a7081613a34565b905091905056fea2646970667358221220c743f3b15df8e6a4e071d709f0666db4ad4ac997e59c57a96bb92eae36beda2d64736f6c63430008130033",
  "immutableReferences": {},
  "source": "// SPDX-License-Identifier: UNLICENSED\r\npragma solidity ^0.8.19;\r\n\r\nimport \"@openzeppelin/contracts/token/ERC721/extensions/ERC721Enumerable.sol\";\r\nimport \"@openzeppelin/contracts/utils/Counters.sol\";\r\n\r\ncontract DiplomaCertificate is ERC721Enumerable{\r\n    using Counters for Counters.Counter;\r\n    Counters.Counter public _tokenIdCounter;\r\n\r\n    address private admin;\r\n    address private UniversityContract;\r\n\r\n    struct CertificateData {\r\n        string description;\r\n        string dateIssued;\r\n        string imageUrl; // URL or IPFS hash of the image\r\n    }\r\n\r\n    mapping(uint256 => CertificateData) private _certificateDetails;\r\n\r\n    modifier onlyAdmin() {\r\n        require(msg.sender == admin, \"Not authorized\");\r\n        _;\r\n    }\r\n\r\n    modifier onlyAdminOrUniversity() {\r\n        require(msg.sender == admin || msg.sender == UniversityContract, \"Not authorized\");\r\n        _;\r\n    }\r\n\r\n    constructor() ERC721(\"DiplomaCertificate\", \"DCERT\") {\r\n        admin = msg.sender;\r\n    }\r\n\r\n    function setUniversityContract(address universityContract) public onlyAdmin{\r\n        UniversityContract = universityContract;\r\n    }\r\n    function getUniversityAddress() public view returns (address) {\r\n        return UniversityContract;\r\n    }\r\n    \r\n    function mint(address recipient, string memory description, string memory dateIssued, string memory imageUrl) external onlyAdminOrUniversity {\r\n        _tokenIdCounter.increment();\r\n        uint256 newTokenId = _tokenIdCounter.current();\r\n        _safeMint(recipient, newTokenId);\r\n        \r\n        _certificateDetails[newTokenId] = CertificateData({\r\n            description: description,\r\n            dateIssued: dateIssued,\r\n            imageUrl: imageUrl \r\n        });\r\n    }\r\n    function burn(uint256 tokenId) external {\r\n        require(msg.sender == UniversityContract, \"Only UniversityToken can burn tokens.\");\r\n        _burn(tokenId); \r\n    }\r\n\r\n    function getCurrentTokenId() external view returns (uint256) {\r\n        return _tokenIdCounter.current();\r\n    }\r\n    \r\n    function getCertificateDetails(uint256 tokenId) external view returns (string memory description, string memory dateIssued, string memory imageUrl) {\r\n        CertificateData memory certData = _certificateDetails[tokenId];\r\n        return (certData.description, certData.dateIssued, certData.imageUrl);\r\n    }\r\n\r\n}",
  "sourcePath": "C:\\Users\\Stefan\\Documents\\Blockchains Project\\EduBlockchain\\project-contract\\contracts\\DiplomaCertificate.sol",
  "compiler": {
    "name": "solc",
    "version": "0.8.19+commit.7dd6d404.Emscripten.clang"
  },
  "schemaVersion": "3.4.16",
  "updatedAt": "2023-11-19T01:49:26.372Z",
  "networkType": "ethereum",
  "devdoc": {
    "events": {
      "Approval(address,address,uint256)": {
        "details": "Emitted when `owner` enables `approved` to manage the `tokenId` token."
      },
      "ApprovalForAll(address,address,bool)": {
        "details": "Emitted when `owner` enables or disables (`approved`) `operator` to manage all of its assets."
      },
      "Transfer(address,address,uint256)": {
        "details": "Emitted when `tokenId` token is transferred from `from` to `to`."
      }
    },
    "kind": "dev",
    "methods": {
      "approve(address,uint256)": {
        "details": "See {IERC721-approve}."
      },
      "balanceOf(address)": {
        "details": "See {IERC721-balanceOf}."
      },
      "getApproved(uint256)": {
        "details": "See {IERC721-getApproved}."
      },
      "isApprovedForAll(address,address)": {
        "details": "See {IERC721-isApprovedForAll}."
      },
      "name()": {
        "details": "See {IERC721Metadata-name}."
      },
      "ownerOf(uint256)": {
        "details": "See {IERC721-ownerOf}."
      },
      "safeTransferFrom(address,address,uint256)": {
        "details": "See {IERC721-safeTransferFrom}."
      },
      "safeTransferFrom(address,address,uint256,bytes)": {
        "details": "See {IERC721-safeTransferFrom}."
      },
      "setApprovalForAll(address,bool)": {
        "details": "See {IERC721-setApprovalForAll}."
      },
      "supportsInterface(bytes4)": {
        "details": "See {IERC165-supportsInterface}."
      },
      "symbol()": {
        "details": "See {IERC721Metadata-symbol}."
      },
      "tokenByIndex(uint256)": {
        "details": "See {IERC721Enumerable-tokenByIndex}."
      },
      "tokenOfOwnerByIndex(address,uint256)": {
        "details": "See {IERC721Enumerable-tokenOfOwnerByIndex}."
      },
      "tokenURI(uint256)": {
        "details": "See {IERC721Metadata-tokenURI}."
      },
      "totalSupply()": {
        "details": "See {IERC721Enumerable-totalSupply}."
      },
      "transferFrom(address,address,uint256)": {
        "details": "See {IERC721-transferFrom}."
      }
    },
    "version": 1
  },
  "userdoc": {
    "kind": "user",
    "methods": {},
    "version": 1
  }
}