{
  "contractName": "DiplomaCertificate",
  "abi": [
    {
      "inputs": [],
      "stateMutability": "nonpayable",
      "type": "constructor"
    },
    {
      "anonymous": false,
      "inputs": [
        {
          "indexed": true,
          "internalType": "address",
          "name": "owner",
          "type": "address"
        },
        {
          "indexed": true,
          "internalType": "address",
          "name": "approved",
          "type": "address"
        },
        {
          "indexed": true,
          "internalType": "uint256",
          "name": "tokenId",
          "type": "uint256"
        }
      ],
      "name": "Approval",
      "type": "event"
    },
    {
      "anonymous": false,
      "inputs": [
        {
          "indexed": true,
          "internalType": "address",
          "name": "owner",
          "type": "address"
        },
        {
          "indexed": true,
          "internalType": "address",
          "name": "operator",
          "type": "address"
        },
        {
          "indexed": false,
          "internalType": "bool",
          "name": "approved",
          "type": "bool"
        }
      ],
      "name": "ApprovalForAll",
      "type": "event"
    },
    {
      "anonymous": false,
      "inputs": [
        {
          "indexed": true,
          "internalType": "address",
          "name": "from",
          "type": "address"
        },
        {
          "indexed": true,
          "internalType": "address",
          "name": "to",
          "type": "address"
        },
        {
          "indexed": true,
          "internalType": "uint256",
          "name": "tokenId",
          "type": "uint256"
        }
      ],
      "name": "Transfer",
      "type": "event"
    },
    {
      "inputs": [],
      "name": "_tokenIdCounter",
      "outputs": [
        {
          "internalType": "uint256",
          "name": "_value",
          "type": "uint256"
        }
      ],
      "stateMutability": "view",
      "type": "function"
    },
    {
      "inputs": [
        {
          "internalType": "address",
          "name": "to",
          "type": "address"
        },
        {
          "internalType": "uint256",
          "name": "tokenId",
          "type": "uint256"
        }
      ],
      "name": "approve",
      "outputs": [],
      "stateMutability": "nonpayable",
      "type": "function"
    },
    {
      "inputs": [
        {
          "internalType": "address",
          "name": "owner",
          "type": "address"
        }
      ],
      "name": "balanceOf",
      "outputs": [
        {
          "internalType": "uint256",
          "name": "",
          "type": "uint256"
        }
      ],
      "stateMutability": "view",
      "type": "function"
    },
    {
      "inputs": [
        {
          "internalType": "uint256",
          "name": "tokenId",
          "type": "uint256"
        }
      ],
      "name": "getApproved",
      "outputs": [
        {
          "internalType": "address",
          "name": "",
          "type": "address"
        }
      ],
      "stateMutability": "view",
      "type": "function"
    },
    {
      "inputs": [
        {
          "internalType": "address",
          "name": "owner",
          "type": "address"
        },
        {
          "internalType": "address",
          "name": "operator",
          "type": "address"
        }
      ],
      "name": "isApprovedForAll",
      "outputs": [
        {
          "internalType": "bool",
          "name": "",
          "type": "bool"
        }
      ],
      "stateMutability": "view",
      "type": "function"
    },
    {
      "inputs": [],
      "name": "name",
      "outputs": [
        {
          "internalType": "string",
          "name": "",
          "type": "string"
        }
      ],
      "stateMutability": "view",
      "type": "function"
    },
    {
      "inputs": [
        {
          "internalType": "uint256",
          "name": "tokenId",
          "type": "uint256"
        }
      ],
      "name": "ownerOf",
      "outputs": [
        {
          "internalType": "address",
          "name": "",
          "type": "address"
        }
      ],
      "stateMutability": "view",
      "type": "function"
    },
    {
      "inputs": [
        {
          "internalType": "address",
          "name": "from",
          "type": "address"
        },
        {
          "internalType": "address",
          "name": "to",
          "type": "address"
        },
        {
          "internalType": "uint256",
          "name": "tokenId",
          "type": "uint256"
        }
      ],
      "name": "safeTransferFrom",
      "outputs": [],
      "stateMutability": "nonpayable",
      "type": "function"
    },
    {
      "inputs": [
        {
          "internalType": "address",
          "name": "from",
          "type": "address"
        },
        {
          "internalType": "address",
          "name": "to",
          "type": "address"
        },
        {
          "internalType": "uint256",
          "name": "tokenId",
          "type": "uint256"
        },
        {
          "internalType": "bytes",
          "name": "data",
          "type": "bytes"
        }
      ],
      "name": "safeTransferFrom",
      "outputs": [],
      "stateMutability": "nonpayable",
      "type": "function"
    },
    {
      "inputs": [
        {
          "internalType": "address",
          "name": "operator",
          "type": "address"
        },
        {
          "internalType": "bool",
          "name": "approved",
          "type": "bool"
        }
      ],
      "name": "setApprovalForAll",
      "outputs": [],
      "stateMutability": "nonpayable",
      "type": "function"
    },
    {
      "inputs": [
        {
          "internalType": "bytes4",
          "name": "interfaceId",
          "type": "bytes4"
        }
      ],
      "name": "supportsInterface",
      "outputs": [
        {
          "internalType": "bool",
          "name": "",
          "type": "bool"
        }
      ],
      "stateMutability": "view",
      "type": "function"
    },
    {
      "inputs": [],
      "name": "symbol",
      "outputs": [
        {
          "internalType": "string",
          "name": "",
          "type": "string"
        }
      ],
      "stateMutability": "view",
      "type": "function"
    },
    {
      "inputs": [
        {
          "internalType": "uint256",
          "name": "index",
          "type": "uint256"
        }
      ],
      "name": "tokenByIndex",
      "outputs": [
        {
          "internalType": "uint256",
          "name": "",
          "type": "uint256"
        }
      ],
      "stateMutability": "view",
      "type": "function"
    },
    {
      "inputs": [
        {
          "internalType": "address",
          "name": "owner",
          "type": "address"
        },
        {
          "internalType": "uint256",
          "name": "index",
          "type": "uint256"
        }
      ],
      "name": "tokenOfOwnerByIndex",
      "outputs": [
        {
          "internalType": "uint256",
          "name": "",
          "type": "uint256"
        }
      ],
      "stateMutability": "view",
      "type": "function"
    },
    {
      "inputs": [
        {
          "internalType": "uint256",
          "name": "tokenId",
          "type": "uint256"
        }
      ],
      "name": "tokenURI",
      "outputs": [
        {
          "internalType": "string",
          "name": "",
          "type": "string"
        }
      ],
      "stateMutability": "view",
      "type": "function"
    },
    {
      "inputs": [],
      "name": "totalSupply",
      "outputs": [
        {
          "internalType": "uint256",
          "name": "",
          "type": "uint256"
        }
      ],
      "stateMutability": "view",
      "type": "function"
    },
    {
      "inputs": [
        {
          "internalType": "address",
          "name": "from",
          "type": "address"
        },
        {
          "internalType": "address",
          "name": "to",
          "type": "address"
        },
        {
          "internalType": "uint256",
          "name": "tokenId",
          "type": "uint256"
        }
      ],
      "name": "transferFrom",
      "outputs": [],
      "stateMutability": "nonpayable",
      "type": "function"
    },
    {
      "inputs": [
        {
          "internalType": "address",
          "name": "universityContract",
          "type": "address"
        }
      ],
      "name": "setUniversityContract",
      "outputs": [],
      "stateMutability": "nonpayable",
      "type": "function"
    },
    {
      "inputs": [
        {
          "internalType": "address",
          "name": "recipient",
          "type": "address"
        },
        {
          "internalType": "string",
          "name": "description",
          "type": "string"
        },
        {
          "internalType": "string",
          "name": "dateIssued",
          "type": "string"
        }
      ],
      "name": "mint",
      "outputs": [],
      "stateMutability": "nonpayable",
      "type": "function"
    },
    {
      "inputs": [
        {
          "internalType": "uint256",
          "name": "tokenId",
          "type": "uint256"
        }
      ],
      "name": "burn",
      "outputs": [],
      "stateMutability": "nonpayable",
      "type": "function"
    },
    {
      "inputs": [],
      "name": "getCurrentTokenId",
      "outputs": [
        {
          "internalType": "uint256",
          "name": "",
          "type": "uint256"
        }
      ],
      "stateMutability": "view",
      "type": "function"
    },
    {
      "inputs": [
        {
          "internalType": "uint256",
          "name": "tokenId",
          "type": "uint256"
        }
      ],
      "name": "getCertificateDetails",
      "outputs": [
        {
          "internalType": "string",
          "name": "description",
          "type": "string"
        },
        {
          "internalType": "string",
          "name": "dateIssued",
          "type": "string"
        }
      ],
      "stateMutability": "view",
      "type": "function"
    }
  ],
  "bytecode": "0x608060405234801562000010575f80fd5b506040518060400160405280601281526020017f4469706c6f6d61436572746966696361746500000000000000000000000000008152506040518060400160405280600581526020017f4443455254000000000000000000000000000000000000000000000000000000815250815f90816200008d91906200034c565b5080600190816200009f91906200034c565b50505033600b5f6101000a81548173ffffffffffffffffffffffffffffffffffffffff021916908373ffffffffffffffffffffffffffffffffffffffff16021790555062000430565b5f81519050919050565b7f4e487b71000000000000000000000000000000000000000000000000000000005f52604160045260245ffd5b7f4e487b71000000000000000000000000000000000000000000000000000000005f52602260045260245ffd5b5f60028204905060018216806200016457607f821691505b6020821081036200017a57620001796200011f565b5b50919050565b5f819050815f5260205f209050919050565b5f6020601f8301049050919050565b5f82821b905092915050565b5f60088302620001de7fffffffffffffffffffffffffffffffffffffffffffffffffffffffffffffffff82620001a1565b620001ea8683620001a1565b95508019841693508086168417925050509392505050565b5f819050919050565b5f819050919050565b5f620002346200022e620002288462000202565b6200020b565b62000202565b9050919050565b5f819050919050565b6200024f8362000214565b620002676200025e826200023b565b848454620001ad565b825550505050565b5f90565b6200027d6200026f565b6200028a81848462000244565b505050565b5b81811015620002b157620002a55f8262000273565b60018101905062000290565b5050565b601f8211156200030057620002ca8162000180565b620002d58462000192565b81016020851015620002e5578190505b620002fd620002f48562000192565b8301826200028f565b50505b505050565b5f82821c905092915050565b5f620003225f198460080262000305565b1980831691505092915050565b5f6200033c838362000311565b9150826002028217905092915050565b6200035782620000e8565b67ffffffffffffffff811115620003735762000372620000f2565b5b6200037f82546200014c565b6200038c828285620002b5565b5f60209050601f831160018114620003c2575f8415620003ad578287015190505b620003b985826200032f565b86555062000428565b601f198416620003d28662000180565b5f5b82811015620003fb57848901518255600182019150602085019450602081019050620003d4565b868310156200041b578489015162000417601f89168262000311565b8355505b6001600288020188555050505b505050505050565b6137f6806200043e5f395ff3fe608060405234801561000f575f80fd5b5060043610610140575f3560e01c80636352211e116100b6578063990711901161007a5780639907119014610386578063a22cb465146103a2578063a901fe5e146103be578063b88d4fde146103ef578063c87b56dd1461040b578063e985e9c51461043b57610140565b80636352211e146102ce57806370a08231146102fe57806384c4bd4b1461032e5780638d46bda41461034c57806395d89b411461036857610140565b806323b872dd1161010857806323b872dd146101fc5780632f745c591461021857806342842e0e1461024857806342966c68146102645780634f6ccce71461028057806356189236146102b057610140565b806301ffc9a71461014457806306fdde0314610174578063081812fc14610192578063095ea7b3146101c257806318160ddd146101de575b5f80fd5b61015e60048036038101906101599190612440565b61046b565b60405161016b9190612485565b60405180910390f35b61017c6104e4565b6040516101899190612528565b60405180910390f35b6101ac60048036038101906101a7919061257b565b610573565b6040516101b991906125e5565b60405180910390f35b6101dc60048036038101906101d79190612628565b6105b5565b005b6101e66106cb565b6040516101f39190612675565b60405180910390f35b6102166004803603810190610211919061268e565b6106d7565b005b610232600480360381019061022d9190612628565b610737565b60405161023f9190612675565b60405180910390f35b610262600480360381019061025d919061268e565b6107d7565b005b61027e6004803603810190610279919061257b565b6107f6565b005b61029a6004803603810190610295919061257b565b610891565b6040516102a79190612675565b60405180910390f35b6102b86108ff565b6040516102c59190612675565b60405180910390f35b6102e860048036038101906102e3919061257b565b61090f565b6040516102f591906125e5565b60405180910390f35b610318600480360381019061031391906126de565b610993565b6040516103259190612675565b60405180910390f35b610336610a47565b6040516103439190612675565b60405180910390f35b610366600480360381019061036191906126de565b610a52565b005b610370610b24565b60405161037d9190612528565b60405180910390f35b6103a0600480360381019061039b9190612835565b610bb4565b005b6103bc60048036038101906103b791906128e7565b610d14565b005b6103d860048036038101906103d3919061257b565b610d2a565b6040516103e6929190612925565b60405180910390f35b610409600480360381019061040491906129f8565b610e7e565b005b6104256004803603810190610420919061257b565b610ee0565b6040516104329190612528565b60405180910390f35b61045560048036038101906104509190612a78565b610f45565b6040516104629190612485565b60405180910390f35b5f7f780e9d63000000000000000000000000000000000000000000000000000000007bffffffffffffffffffffffffffffffffffffffffffffffffffffffff1916827bffffffffffffffffffffffffffffffffffffffffffffffffffffffff191614806104dd57506104dc82610fd3565b5b9050919050565b60605f80546104f290612ae3565b80601f016020809104026020016040519081016040528092919081815260200182805461051e90612ae3565b80156105695780601f1061054057610100808354040283529160200191610569565b820191905f5260205f20905b81548152906001019060200180831161054c57829003601f168201915b5050505050905090565b5f61057d826110b4565b60045f8381526020019081526020015f205f9054906101000a900473ffffffffffffffffffffffffffffffffffffffff169050919050565b5f6105bf8261090f565b90508073ffffffffffffffffffffffffffffffffffffffff168373ffffffffffffffffffffffffffffffffffffffff160361062f576040517f08c379a000000000000000000000000000000000000000000000000000000000815260040161062690612b83565b60405180910390fd5b8073ffffffffffffffffffffffffffffffffffffffff1661064e6110ff565b73ffffffffffffffffffffffffffffffffffffffff16148061067d575061067c816106776110ff565b610f45565b5b6106bc576040517f08c379a00000000000000000000000000000000000000000000000000000000081526004016106b390612c11565b60405180910390fd5b6106c68383611106565b505050565b5f600880549050905090565b6106e86106e26110ff565b826111bc565b610727576040517f08c379a000000000000000000000000000000000000000000000000000000000815260040161071e90612c9f565b60405180910390fd5b610732838383611250565b505050565b5f61074183610993565b8210610782576040517f08c379a000000000000000000000000000000000000000000000000000000000815260040161077990612d2d565b60405180910390fd5b60065f8473ffffffffffffffffffffffffffffffffffffffff1673ffffffffffffffffffffffffffffffffffffffff1681526020019081526020015f205f8381526020019081526020015f2054905092915050565b6107f183838360405180602001604052805f815250610e7e565b505050565b600c5f9054906101000a900473ffffffffffffffffffffffffffffffffffffffff1673ffffffffffffffffffffffffffffffffffffffff163373ffffffffffffffffffffffffffffffffffffffff1614610885576040517f08c379a000000000000000000000000000000000000000000000000000000000815260040161087c90612dbb565b60405180910390fd5b61088e8161153c565b50565b5f61089a6106cb565b82106108db576040517f08c379a00000000000000000000000000000000000000000000000000000000081526004016108d290612e49565b60405180910390fd5b600882815481106108ef576108ee612e67565b5b905f5260205f2001549050919050565b5f61090a600a61167d565b905090565b5f8061091a83611689565b90505f73ffffffffffffffffffffffffffffffffffffffff168173ffffffffffffffffffffffffffffffffffffffff160361098a576040517f08c379a000000000000000000000000000000000000000000000000000000000815260040161098190612ede565b60405180910390fd5b80915050919050565b5f8073ffffffffffffffffffffffffffffffffffffffff168273ffffffffffffffffffffffffffffffffffffffff1603610a02576040517f08c379a00000000000000000000000000000000000000000000000000000000081526004016109f990612f6c565b60405180910390fd5b60035f8373ffffffffffffffffffffffffffffffffffffffff1673ffffffffffffffffffffffffffffffffffffffff1681526020019081526020015f20549050919050565b600a805f0154905081565b600b5f9054906101000a900473ffffffffffffffffffffffffffffffffffffffff1673ffffffffffffffffffffffffffffffffffffffff163373ffffffffffffffffffffffffffffffffffffffff1614610ae1576040517f08c379a0000000000000000000000000000000000000000000000000000000008152600401610ad890612fd4565b60405180910390fd5b80600c5f6101000a81548173ffffffffffffffffffffffffffffffffffffffff021916908373ffffffffffffffffffffffffffffffffffffffff16021790555050565b606060018054610b3390612ae3565b80601f0160208091040260200160405190810160405280929190818152602001828054610b5f90612ae3565b8015610baa5780601f10610b8157610100808354040283529160200191610baa565b820191905f5260205f20905b815481529060010190602001808311610b8d57829003601f168201915b5050505050905090565b600b5f9054906101000a900473ffffffffffffffffffffffffffffffffffffffff1673ffffffffffffffffffffffffffffffffffffffff163373ffffffffffffffffffffffffffffffffffffffff161480610c5b5750600c5f9054906101000a900473ffffffffffffffffffffffffffffffffffffffff1673ffffffffffffffffffffffffffffffffffffffff163373ffffffffffffffffffffffffffffffffffffffff16145b610c9a576040517f08c379a0000000000000000000000000000000000000000000000000000000008152600401610c9190612fd4565b60405180910390fd5b610ca4600a6116c2565b5f610caf600a61167d565b9050610cbb84826116d6565b604051806040016040528084815260200183815250600d5f8381526020019081526020015f205f820151815f019081610cf4919061318f565b506020820151816001019081610d0a919061318f565b5090505050505050565b610d26610d1f6110ff565b83836116f3565b5050565b6060805f600d5f8581526020019081526020015f206040518060400160405290815f82018054610d5990612ae3565b80601f0160208091040260200160405190810160405280929190818152602001828054610d8590612ae3565b8015610dd05780601f10610da757610100808354040283529160200191610dd0565b820191905f5260205f20905b815481529060010190602001808311610db357829003601f168201915b50505050508152602001600182018054610de990612ae3565b80601f0160208091040260200160405190810160405280929190818152602001828054610e1590612ae3565b8015610e605780601f10610e3757610100808354040283529160200191610e60565b820191905f5260205f20905b815481529060010190602001808311610e4357829003601f168201915b5050505050815250509050805f015181602001519250925050915091565b610e8f610e896110ff565b836111bc565b610ece576040517f08c379a0000000000000000000000000000000000000000000000000000000008152600401610ec590612c9f565b60405180910390fd5b610eda8484848461185a565b50505050565b6060610eeb826110b4565b5f610ef46118b6565b90505f815111610f125760405180602001604052805f815250610f3d565b80610f1c846118cc565b604051602001610f2d929190613298565b6040516020818303038152906040525b915050919050565b5f60055f8473ffffffffffffffffffffffffffffffffffffffff1673ffffffffffffffffffffffffffffffffffffffff1681526020019081526020015f205f8373ffffffffffffffffffffffffffffffffffffffff1673ffffffffffffffffffffffffffffffffffffffff1681526020019081526020015f205f9054906101000a900460ff16905092915050565b5f7f80ac58cd000000000000000000000000000000000000000000000000000000007bffffffffffffffffffffffffffffffffffffffffffffffffffffffff1916827bffffffffffffffffffffffffffffffffffffffffffffffffffffffff1916148061109d57507f5b5e139f000000000000000000000000000000000000000000000000000000007bffffffffffffffffffffffffffffffffffffffffffffffffffffffff1916827bffffffffffffffffffffffffffffffffffffffffffffffffffffffff1916145b806110ad57506110ac82611996565b5b9050919050565b6110bd816119ff565b6110fc576040517f08c379a00000000000000000000000000000000000000000000000000000000081526004016110f390612ede565b60405180910390fd5b50565b5f33905090565b8160045f8381526020019081526020015f205f6101000a81548173ffffffffffffffffffffffffffffffffffffffff021916908373ffffffffffffffffffffffffffffffffffffffff160217905550808273ffffffffffffffffffffffffffffffffffffffff166111768361090f565b73ffffffffffffffffffffffffffffffffffffffff167f8c5be1e5ebec7d5bd14f71427d1e84f3dd0314c0f7b2291e5b200ac8c7c3b92560405160405180910390a45050565b5f806111c78361090f565b90508073ffffffffffffffffffffffffffffffffffffffff168473ffffffffffffffffffffffffffffffffffffffff16148061120957506112088185610f45565b5b8061124757508373ffffffffffffffffffffffffffffffffffffffff1661122f84610573565b73ffffffffffffffffffffffffffffffffffffffff16145b91505092915050565b8273ffffffffffffffffffffffffffffffffffffffff166112708261090f565b73ffffffffffffffffffffffffffffffffffffffff16146112c6576040517f08c379a00000000000000000000000000000000000000000000000000000000081526004016112bd9061332b565b60405180910390fd5b5f73ffffffffffffffffffffffffffffffffffffffff168273ffffffffffffffffffffffffffffffffffffffff1603611334576040517f08c379a000000000000000000000000000000000000000000000000000000000815260040161132b906133b9565b60405180910390fd5b6113418383836001611a3f565b8273ffffffffffffffffffffffffffffffffffffffff166113618261090f565b73ffffffffffffffffffffffffffffffffffffffff16146113b7576040517f08c379a00000000000000000000000000000000000000000000000000000000081526004016113ae9061332b565b60405180910390fd5b60045f8281526020019081526020015f205f6101000a81549073ffffffffffffffffffffffffffffffffffffffff0219169055600160035f8573ffffffffffffffffffffffffffffffffffffffff1673ffffffffffffffffffffffffffffffffffffffff1681526020019081526020015f205f8282540392505081905550600160035f8473ffffffffffffffffffffffffffffffffffffffff1673ffffffffffffffffffffffffffffffffffffffff1681526020019081526020015f205f82825401925050819055508160025f8381526020019081526020015f205f6101000a81548173ffffffffffffffffffffffffffffffffffffffff021916908373ffffffffffffffffffffffffffffffffffffffff160217905550808273ffffffffffffffffffffffffffffffffffffffff168473ffffffffffffffffffffffffffffffffffffffff167fddf252ad1be2c89b69c2b068fc378daa952ba7f163c4a11628f55a4df523b3ef60405160405180910390a46115378383836001611b9a565b505050565b5f6115468261090f565b9050611555815f846001611a3f565b61155e8261090f565b905060045f8381526020019081526020015f205f6101000a81549073ffffffffffffffffffffffffffffffffffffffff0219169055600160035f8373ffffffffffffffffffffffffffffffffffffffff1673ffffffffffffffffffffffffffffffffffffffff1681526020019081526020015f205f828254039250508190555060025f8381526020019081526020015f205f6101000a81549073ffffffffffffffffffffffffffffffffffffffff0219169055815f73ffffffffffffffffffffffffffffffffffffffff168273ffffffffffffffffffffffffffffffffffffffff167fddf252ad1be2c89b69c2b068fc378daa952ba7f163c4a11628f55a4df523b3ef60405160405180910390a4611679815f846001611b9a565b5050565b5f815f01549050919050565b5f60025f8381526020019081526020015f205f9054906101000a900473ffffffffffffffffffffffffffffffffffffffff169050919050565b6001815f015f828254019250508190555050565b6116ef828260405180602001604052805f815250611ba0565b5050565b8173ffffffffffffffffffffffffffffffffffffffff168373ffffffffffffffffffffffffffffffffffffffff1603611761576040517f08c379a000000000000000000000000000000000000000000000000000000000815260040161175890613421565b60405180910390fd5b8060055f8573ffffffffffffffffffffffffffffffffffffffff1673ffffffffffffffffffffffffffffffffffffffff1681526020019081526020015f205f8473ffffffffffffffffffffffffffffffffffffffff1673ffffffffffffffffffffffffffffffffffffffff1681526020019081526020015f205f6101000a81548160ff0219169083151502179055508173ffffffffffffffffffffffffffffffffffffffff168373ffffffffffffffffffffffffffffffffffffffff167f17307eab39ab6107e8899845ad3d59bd9653f200f220920489ca2b5937696c318360405161184d9190612485565b60405180910390a3505050565b611865848484611250565b61187184848484611bfa565b6118b0576040517f08c379a00000000000000000000000000000000000000000000000000000000081526004016118a7906134af565b60405180910390fd5b50505050565b606060405180602001604052805f815250905090565b60605f60016118da84611d7c565b0190505f8167ffffffffffffffff8111156118f8576118f7612711565b5b6040519080825280601f01601f19166020018201604052801561192a5781602001600182028036833780820191505090505b5090505f82602001820190505b60011561198b578080600190039150507f3031323334353637383961626364656600000000000000000000000000000000600a86061a8153600a85816119805761197f6134cd565b5b0494505f8503611937575b819350505050919050565b5f7f01ffc9a7000000000000000000000000000000000000000000000000000000007bffffffffffffffffffffffffffffffffffffffffffffffffffffffff1916827bffffffffffffffffffffffffffffffffffffffffffffffffffffffff1916149050919050565b5f8073ffffffffffffffffffffffffffffffffffffffff16611a2083611689565b73ffffffffffffffffffffffffffffffffffffffff1614159050919050565b611a4b84848484611ecd565b6001811115611a8f576040517f08c379a0000000000000000000000000000000000000000000000000000000008152600401611a869061356a565b60405180910390fd5b5f8290505f73ffffffffffffffffffffffffffffffffffffffff168573ffffffffffffffffffffffffffffffffffffffff1603611ad457611acf81611ed3565b611b13565b8373ffffffffffffffffffffffffffffffffffffffff168573ffffffffffffffffffffffffffffffffffffffff1614611b1257611b118582611f17565b5b5b5f73ffffffffffffffffffffffffffffffffffffffff168473ffffffffffffffffffffffffffffffffffffffff1603611b5457611b4f8161206d565b611b93565b8473ffffffffffffffffffffffffffffffffffffffff168473ffffffffffffffffffffffffffffffffffffffff1614611b9257611b91848261212d565b5b5b5050505050565b50505050565b611baa83836121a5565b611bb65f848484611bfa565b611bf5576040517f08c379a0000000000000000000000000000000000000000000000000000000008152600401611bec906134af565b60405180910390fd5b505050565b5f611c1a8473ffffffffffffffffffffffffffffffffffffffff166123b8565b15611d6f578373ffffffffffffffffffffffffffffffffffffffff1663150b7a02611c436110ff565b8786866040518563ffffffff1660e01b8152600401611c6594939291906135da565b6020604051808303815f875af1925050508015611ca057506040513d601f19601f82011682018060405250810190611c9d9190613638565b60015b611d1f573d805f8114611cce576040519150601f19603f3d011682016040523d82523d5f602084013e611cd3565b606091505b505f815103611d17576040517f08c379a0000000000000000000000000000000000000000000000000000000008152600401611d0e906134af565b60405180910390fd5b805181602001fd5b63150b7a0260e01b7bffffffffffffffffffffffffffffffffffffffffffffffffffffffff1916817bffffffffffffffffffffffffffffffffffffffffffffffffffffffff191614915050611d74565b600190505b949350505050565b5f805f90507a184f03e93ff9f4daa797ed6e38ed64bf6a1f0100000000000000008310611dd8577a184f03e93ff9f4daa797ed6e38ed64bf6a1f0100000000000000008381611dce57611dcd6134cd565b5b0492506040810190505b6d04ee2d6d415b85acef81000000008310611e15576d04ee2d6d415b85acef81000000008381611e0b57611e0a6134cd565b5b0492506020810190505b662386f26fc100008310611e4457662386f26fc100008381611e3a57611e396134cd565b5b0492506010810190505b6305f5e1008310611e6d576305f5e1008381611e6357611e626134cd565b5b0492506008810190505b6127108310611e92576127108381611e8857611e876134cd565b5b0492506004810190505b60648310611eb55760648381611eab57611eaa6134cd565b5b0492506002810190505b600a8310611ec4576001810190505b80915050919050565b50505050565b60088054905060095f8381526020019081526020015f2081905550600881908060018154018082558091505060019003905f5260205f20015f909190919091505550565b5f6001611f2384610993565b611f2d9190613690565b90505f60075f8481526020019081526020015f20549050818114612004575f60065f8673ffffffffffffffffffffffffffffffffffffffff1673ffffffffffffffffffffffffffffffffffffffff1681526020019081526020015f205f8481526020019081526020015f205490508060065f8773ffffffffffffffffffffffffffffffffffffffff1673ffffffffffffffffffffffffffffffffffffffff1681526020019081526020015f205f8481526020019081526020015f20819055508160075f8381526020019081526020015f2081905550505b60075f8481526020019081526020015f205f905560065f8573ffffffffffffffffffffffffffffffffffffffff1673ffffffffffffffffffffffffffffffffffffffff1681526020019081526020015f205f8381526020019081526020015f205f905550505050565b5f60016008805490506120809190613690565b90505f60095f8481526020019081526020015f205490505f600883815481106120ac576120ab612e67565b5b905f5260205f200154905080600883815481106120cc576120cb612e67565b5b905f5260205f2001819055508160095f8381526020019081526020015f208190555060095f8581526020019081526020015f205f90556008805480612114576121136136c3565b5b600190038181905f5260205f20015f9055905550505050565b5f61213783610993565b90508160065f8573ffffffffffffffffffffffffffffffffffffffff1673ffffffffffffffffffffffffffffffffffffffff1681526020019081526020015f205f8381526020019081526020015f20819055508060075f8481526020019081526020015f2081905550505050565b5f73ffffffffffffffffffffffffffffffffffffffff168273ffffffffffffffffffffffffffffffffffffffff1603612213576040517f08c379a000000000000000000000000000000000000000000000000000000000815260040161220a9061373a565b60405180910390fd5b61221c816119ff565b1561225c576040517f08c379a0000000000000000000000000000000000000000000000000000000008152600401612253906137a2565b60405180910390fd5b6122695f83836001611a3f565b612272816119ff565b156122b2576040517f08c379a00000000000000000000000000000000000000000000000000000000081526004016122a9906137a2565b60405180910390fd5b600160035f8473ffffffffffffffffffffffffffffffffffffffff1673ffffffffffffffffffffffffffffffffffffffff1681526020019081526020015f205f82825401925050819055508160025f8381526020019081526020015f205f6101000a81548173ffffffffffffffffffffffffffffffffffffffff021916908373ffffffffffffffffffffffffffffffffffffffff160217905550808273ffffffffffffffffffffffffffffffffffffffff165f73ffffffffffffffffffffffffffffffffffffffff167fddf252ad1be2c89b69c2b068fc378daa952ba7f163c4a11628f55a4df523b3ef60405160405180910390a46123b45f83836001611b9a565b5050565b5f808273ffffffffffffffffffffffffffffffffffffffff163b119050919050565b5f604051905090565b5f80fd5b5f80fd5b5f7fffffffff0000000000000000000000000000000000000000000000000000000082169050919050565b61241f816123eb565b8114612429575f80fd5b50565b5f8135905061243a81612416565b92915050565b5f60208284031215612455576124546123e3565b5b5f6124628482850161242c565b91505092915050565b5f8115159050919050565b61247f8161246b565b82525050565b5f6020820190506124985f830184612476565b92915050565b5f81519050919050565b5f82825260208201905092915050565b5f5b838110156124d55780820151818401526020810190506124ba565b5f8484015250505050565b5f601f19601f8301169050919050565b5f6124fa8261249e565b61250481856124a8565b93506125148185602086016124b8565b61251d816124e0565b840191505092915050565b5f6020820190508181035f83015261254081846124f0565b905092915050565b5f819050919050565b61255a81612548565b8114612564575f80fd5b50565b5f8135905061257581612551565b92915050565b5f602082840312156125905761258f6123e3565b5b5f61259d84828501612567565b91505092915050565b5f73ffffffffffffffffffffffffffffffffffffffff82169050919050565b5f6125cf826125a6565b9050919050565b6125df816125c5565b82525050565b5f6020820190506125f85f8301846125d6565b92915050565b612607816125c5565b8114612611575f80fd5b50565b5f81359050612622816125fe565b92915050565b5f806040838503121561263e5761263d6123e3565b5b5f61264b85828601612614565b925050602061265c85828601612567565b9150509250929050565b61266f81612548565b82525050565b5f6020820190506126885f830184612666565b92915050565b5f805f606084860312156126a5576126a46123e3565b5b5f6126b286828701612614565b93505060206126c386828701612614565b92505060406126d486828701612567565b9150509250925092565b5f602082840312156126f3576126f26123e3565b5b5f61270084828501612614565b91505092915050565b5f80fd5b5f80fd5b7f4e487b71000000000000000000000000000000000000000000000000000000005f52604160045260245ffd5b612747826124e0565b810181811067ffffffffffffffff8211171561276657612765612711565b5b80604052505050565b5f6127786123da565b9050612784828261273e565b919050565b5f67ffffffffffffffff8211156127a3576127a2612711565b5b6127ac826124e0565b9050602081019050919050565b828183375f83830152505050565b5f6127d96127d484612789565b61276f565b9050828152602081018484840111156127f5576127f461270d565b5b6128008482856127b9565b509392505050565b5f82601f83011261281c5761281b612709565b5b813561282c8482602086016127c7565b91505092915050565b5f805f6060848603121561284c5761284b6123e3565b5b5f61285986828701612614565b935050602084013567ffffffffffffffff81111561287a576128796123e7565b5b61288686828701612808565b925050604084013567ffffffffffffffff8111156128a7576128a66123e7565b5b6128b386828701612808565b9150509250925092565b6128c68161246b565b81146128d0575f80fd5b50565b5f813590506128e1816128bd565b92915050565b5f80604083850312156128fd576128fc6123e3565b5b5f61290a85828601612614565b925050602061291b858286016128d3565b9150509250929050565b5f6040820190508181035f83015261293d81856124f0565b9050818103602083015261295181846124f0565b90509392505050565b5f67ffffffffffffffff82111561297457612973612711565b5b61297d826124e0565b9050602081019050919050565b5f61299c6129978461295a565b61276f565b9050828152602081018484840111156129b8576129b761270d565b5b6129c38482856127b9565b509392505050565b5f82601f8301126129df576129de612709565b5b81356129ef84826020860161298a565b91505092915050565b5f805f8060808587031215612a1057612a0f6123e3565b5b5f612a1d87828801612614565b9450506020612a2e87828801612614565b9350506040612a3f87828801612567565b925050606085013567ffffffffffffffff811115612a6057612a5f6123e7565b5b612a6c878288016129cb565b91505092959194509250565b5f8060408385031215612a8e57612a8d6123e3565b5b5f612a9b85828601612614565b9250506020612aac85828601612614565b9150509250929050565b7f4e487b71000000000000000000000000000000000000000000000000000000005f52602260045260245ffd5b5f6002820490506001821680612afa57607f821691505b602082108103612b0d57612b0c612ab6565b5b50919050565b7f4552433732313a20617070726f76616c20746f2063757272656e74206f776e655f8201527f7200000000000000000000000000000000000000000000000000000000000000602082015250565b5f612b6d6021836124a8565b9150612b7882612b13565b604082019050919050565b5f6020820190508181035f830152612b9a81612b61565b9050919050565b7f4552433732313a20617070726f76652063616c6c6572206973206e6f7420746f5f8201527f6b656e206f776e6572206f7220617070726f76656420666f7220616c6c000000602082015250565b5f612bfb603d836124a8565b9150612c0682612ba1565b604082019050919050565b5f6020820190508181035f830152612c2881612bef565b9050919050565b7f4552433732313a2063616c6c6572206973206e6f7420746f6b656e206f776e655f8201527f72206f7220617070726f76656400000000000000000000000000000000000000602082015250565b5f612c89602d836124a8565b9150612c9482612c2f565b604082019050919050565b5f6020820190508181035f830152612cb681612c7d565b9050919050565b7f455243373231456e756d657261626c653a206f776e657220696e646578206f755f8201527f74206f6620626f756e6473000000000000000000000000000000000000000000602082015250565b5f612d17602b836124a8565b9150612d2282612cbd565b604082019050919050565b5f6020820190508181035f830152612d4481612d0b565b9050919050565b7f4f6e6c7920556e6976657273697479546f6b656e2063616e206275726e20746f5f8201527f6b656e732e000000000000000000000000000000000000000000000000000000602082015250565b5f612da56025836124a8565b9150612db082612d4b565b604082019050919050565b5f6020820190508181035f830152612dd281612d99565b9050919050565b7f455243373231456e756d657261626c653a20676c6f62616c20696e646578206f5f8201527f7574206f6620626f756e64730000000000000000000000000000000000000000602082015250565b5f612e33602c836124a8565b9150612e3e82612dd9565b604082019050919050565b5f6020820190508181035f830152612e6081612e27565b9050919050565b7f4e487b71000000000000000000000000000000000000000000000000000000005f52603260045260245ffd5b7f4552433732313a20696e76616c696420746f6b656e20494400000000000000005f82015250565b5f612ec86018836124a8565b9150612ed382612e94565b602082019050919050565b5f6020820190508181035f830152612ef581612ebc565b9050919050565b7f4552433732313a2061646472657373207a65726f206973206e6f7420612076615f8201527f6c6964206f776e65720000000000000000000000000000000000000000000000602082015250565b5f612f566029836124a8565b9150612f6182612efc565b604082019050919050565b5f6020820190508181035f830152612f8381612f4a565b9050919050565b7f4e6f7420617574686f72697a65640000000000000000000000000000000000005f82015250565b5f612fbe600e836124a8565b9150612fc982612f8a565b602082019050919050565b5f6020820190508181035f830152612feb81612fb2565b9050919050565b5f819050815f5260205f209050919050565b5f6020601f8301049050919050565b5f82821b905092915050565b5f6008830261304e7fffffffffffffffffffffffffffffffffffffffffffffffffffffffffffffffff82613013565b6130588683613013565b95508019841693508086168417925050509392505050565b5f819050919050565b5f61309361308e61308984612548565b613070565b612548565b9050919050565b5f819050919050565b6130ac83613079565b6130c06130b88261309a565b84845461301f565b825550505050565b5f90565b6130d46130c8565b6130df8184846130a3565b505050565b5b81811015613102576130f75f826130cc565b6001810190506130e5565b5050565b601f8211156131475761311881612ff2565b61312184613004565b81016020851015613130578190505b61314461313c85613004565b8301826130e4565b50505b505050565b5f82821c905092915050565b5f6131675f198460080261314c565b1980831691505092915050565b5f61317f8383613158565b9150826002028217905092915050565b6131988261249e565b67ffffffffffffffff8111156131b1576131b0612711565b5b6131bb8254612ae3565b6131c6828285613106565b5f60209050601f8311600181146131f7575f84156131e5578287015190505b6131ef8582613174565b865550613256565b601f19841661320586612ff2565b5f5b8281101561322c57848901518255600182019150602085019450602081019050613207565b868310156132495784890151613245601f891682613158565b8355505b6001600288020188555050505b505050505050565b5f81905092915050565b5f6132728261249e565b61327c818561325e565b935061328c8185602086016124b8565b80840191505092915050565b5f6132a38285613268565b91506132af8284613268565b91508190509392505050565b7f4552433732313a207472616e736665722066726f6d20696e636f7272656374205f8201527f6f776e6572000000000000000000000000000000000000000000000000000000602082015250565b5f6133156025836124a8565b9150613320826132bb565b604082019050919050565b5f6020820190508181035f83015261334281613309565b9050919050565b7f4552433732313a207472616e7366657220746f20746865207a65726f206164645f8201527f7265737300000000000000000000000000000000000000000000000000000000602082015250565b5f6133a36024836124a8565b91506133ae82613349565b604082019050919050565b5f6020820190508181035f8301526133d081613397565b9050919050565b7f4552433732313a20617070726f766520746f2063616c6c6572000000000000005f82015250565b5f61340b6019836124a8565b9150613416826133d7565b602082019050919050565b5f6020820190508181035f830152613438816133ff565b9050919050565b7f4552433732313a207472616e7366657220746f206e6f6e2045524337323152655f8201527f63656976657220696d706c656d656e7465720000000000000000000000000000602082015250565b5f6134996032836124a8565b91506134a48261343f565b604082019050919050565b5f6020820190508181035f8301526134c68161348d565b9050919050565b7f4e487b71000000000000000000000000000000000000000000000000000000005f52601260045260245ffd5b7f455243373231456e756d657261626c653a20636f6e73656375746976652074725f8201527f616e7366657273206e6f7420737570706f727465640000000000000000000000602082015250565b5f6135546035836124a8565b915061355f826134fa565b604082019050919050565b5f6020820190508181035f83015261358181613548565b9050919050565b5f81519050919050565b5f82825260208201905092915050565b5f6135ac82613588565b6135b68185613592565b93506135c68185602086016124b8565b6135cf816124e0565b840191505092915050565b5f6080820190506135ed5f8301876125d6565b6135fa60208301866125d6565b6136076040830185612666565b818103606083015261361981846135a2565b905095945050505050565b5f8151905061363281612416565b92915050565b5f6020828403121561364d5761364c6123e3565b5b5f61365a84828501613624565b91505092915050565b7f4e487b71000000000000000000000000000000000000000000000000000000005f52601160045260245ffd5b5f61369a82612548565b91506136a583612548565b92508282039050818111156136bd576136bc613663565b5b92915050565b7f4e487b71000000000000000000000000000000000000000000000000000000005f52603160045260245ffd5b7f4552433732313a206d696e7420746f20746865207a65726f20616464726573735f82015250565b5f6137246020836124a8565b915061372f826136f0565b602082019050919050565b5f6020820190508181035f83015261375181613718565b9050919050565b7f4552433732313a20746f6b656e20616c7265616479206d696e746564000000005f82015250565b5f61378c601c836124a8565b915061379782613758565b602082019050919050565b5f6020820190508181035f8301526137b981613780565b905091905056fea2646970667358221220f7b9b683f8eba85c42792517015b0383b8d71ba9303771f983cf643ebfcee4f764736f6c63430008140033",
  "immutableReferences": {},
  "source": "// SPDX-License-Identifier: UNLICENSED\r\npragma solidity ^0.8.20;\r\n\r\nimport \"@openzeppelin/contracts/token/ERC721/extensions/ERC721Enumerable.sol\";\r\nimport \"@openzeppelin/contracts/utils/Counters.sol\";\r\n\r\ncontract DiplomaCertificate is ERC721Enumerable{\r\n    using Counters for Counters.Counter;\r\n    Counters.Counter public _tokenIdCounter;\r\n\r\n    address private admin;\r\n    address private UniversityContract;\r\n\r\n    struct CertificateData {\r\n        string description;\r\n        string dateIssued;\r\n    }\r\n\r\n    mapping(uint256 => CertificateData) private _certificateDetails;\r\n\r\n    modifier onlyAdmin() {\r\n        require(msg.sender == admin, \"Not authorized\");\r\n        _;\r\n    }\r\n\r\n    modifier onlyAdminOrUniversity() {\r\n        require(msg.sender == admin || msg.sender == UniversityContract, \"Not authorized\");\r\n        _;\r\n    }\r\n\r\n    constructor() ERC721(\"DiplomaCertificate\", \"DCERT\") {\r\n        admin = msg.sender;\r\n    }\r\n\r\n    function setUniversityContract(address universityContract) public onlyAdmin{\r\n        UniversityContract = universityContract;\r\n    }\r\n    \r\n    function mint(address recipient, string memory description, string memory dateIssued) external onlyAdminOrUniversity {\r\n        _tokenIdCounter.increment();\r\n        uint256 newTokenId = _tokenIdCounter.current();\r\n        _safeMint(recipient, newTokenId);\r\n        \r\n        _certificateDetails[newTokenId] = CertificateData({\r\n            description: description,\r\n            dateIssued: dateIssued\r\n        });\r\n    }\r\n    function burn(uint256 tokenId) external {\r\n        require(msg.sender == UniversityContract, \"Only UniversityToken can burn tokens.\");\r\n        _burn(tokenId); \r\n    }\r\n\r\n    function getCurrentTokenId() external view returns (uint256) {\r\n        return _tokenIdCounter.current();\r\n    }\r\n    \r\n    function getCertificateDetails(uint256 tokenId) external view returns (string memory description, string memory dateIssued) {\r\n        CertificateData memory certData = _certificateDetails[tokenId];\r\n        return (certData.description, certData.dateIssued);\r\n    }\r\n\r\n}",
  "sourcePath": "C:\\Users\\Stefan\\Documents\\Blockchains Project\\EduBlockchain\\project-contract\\contracts\\ERC721.sol",
  "compiler": {
    "name": "solc",
    "version": "0.8.20+commit.a1b79de6.Emscripten.clang"
  },
  "schemaVersion": "3.4.16",
  "updatedAt": "2023-11-15T22:07:24.499Z",
  "devdoc": {
    "events": {
      "Approval(address,address,uint256)": {
        "details": "Emitted when `owner` enables `approved` to manage the `tokenId` token."
      },
      "ApprovalForAll(address,address,bool)": {
        "details": "Emitted when `owner` enables or disables (`approved`) `operator` to manage all of its assets."
      },
      "Transfer(address,address,uint256)": {
        "details": "Emitted when `tokenId` token is transferred from `from` to `to`."
      }
    },
    "kind": "dev",
    "methods": {
      "approve(address,uint256)": {
        "details": "See {IERC721-approve}."
      },
      "balanceOf(address)": {
        "details": "See {IERC721-balanceOf}."
      },
      "getApproved(uint256)": {
        "details": "See {IERC721-getApproved}."
      },
      "isApprovedForAll(address,address)": {
        "details": "See {IERC721-isApprovedForAll}."
      },
      "name()": {
        "details": "See {IERC721Metadata-name}."
      },
      "ownerOf(uint256)": {
        "details": "See {IERC721-ownerOf}."
      },
      "safeTransferFrom(address,address,uint256)": {
        "details": "See {IERC721-safeTransferFrom}."
      },
      "safeTransferFrom(address,address,uint256,bytes)": {
        "details": "See {IERC721-safeTransferFrom}."
      },
      "setApprovalForAll(address,bool)": {
        "details": "See {IERC721-setApprovalForAll}."
      },
      "supportsInterface(bytes4)": {
        "details": "See {IERC165-supportsInterface}."
      },
      "symbol()": {
        "details": "See {IERC721Metadata-symbol}."
      },
      "tokenByIndex(uint256)": {
        "details": "See {IERC721Enumerable-tokenByIndex}."
      },
      "tokenOfOwnerByIndex(address,uint256)": {
        "details": "See {IERC721Enumerable-tokenOfOwnerByIndex}."
      },
      "tokenURI(uint256)": {
        "details": "See {IERC721Metadata-tokenURI}."
      },
      "totalSupply()": {
        "details": "See {IERC721Enumerable-totalSupply}."
      },
      "transferFrom(address,address,uint256)": {
        "details": "See {IERC721-transferFrom}."
      }
    },
    "version": 1
  },
  "userdoc": {
    "kind": "user",
    "methods": {},
    "version": 1
  }
}