{
  "contractName": "DiplomaCertificate",
  "abi": [
    {
      "inputs": [],
      "stateMutability": "nonpayable",
      "type": "constructor"
    },
    {
      "anonymous": false,
      "inputs": [
        {
          "indexed": true,
          "internalType": "address",
          "name": "owner",
          "type": "address"
        },
        {
          "indexed": true,
          "internalType": "address",
          "name": "approved",
          "type": "address"
        },
        {
          "indexed": true,
          "internalType": "uint256",
          "name": "tokenId",
          "type": "uint256"
        }
      ],
      "name": "Approval",
      "type": "event"
    },
    {
      "anonymous": false,
      "inputs": [
        {
          "indexed": true,
          "internalType": "address",
          "name": "owner",
          "type": "address"
        },
        {
          "indexed": true,
          "internalType": "address",
          "name": "operator",
          "type": "address"
        },
        {
          "indexed": false,
          "internalType": "bool",
          "name": "approved",
          "type": "bool"
        }
      ],
      "name": "ApprovalForAll",
      "type": "event"
    },
    {
      "anonymous": false,
      "inputs": [
        {
          "indexed": true,
          "internalType": "address",
          "name": "from",
          "type": "address"
        },
        {
          "indexed": true,
          "internalType": "address",
          "name": "to",
          "type": "address"
        },
        {
          "indexed": true,
          "internalType": "uint256",
          "name": "tokenId",
          "type": "uint256"
        }
      ],
      "name": "Transfer",
      "type": "event"
    },
    {
      "inputs": [],
      "name": "_tokenIdCounter",
      "outputs": [
        {
          "internalType": "uint256",
          "name": "_value",
          "type": "uint256"
        }
      ],
      "stateMutability": "view",
      "type": "function",
      "constant": true
    },
    {
      "inputs": [
        {
          "internalType": "address",
          "name": "to",
          "type": "address"
        },
        {
          "internalType": "uint256",
          "name": "tokenId",
          "type": "uint256"
        }
      ],
      "name": "approve",
      "outputs": [],
      "stateMutability": "nonpayable",
      "type": "function"
    },
    {
      "inputs": [
        {
          "internalType": "address",
          "name": "owner",
          "type": "address"
        }
      ],
      "name": "balanceOf",
      "outputs": [
        {
          "internalType": "uint256",
          "name": "",
          "type": "uint256"
        }
      ],
      "stateMutability": "view",
      "type": "function",
      "constant": true
    },
    {
      "inputs": [
        {
          "internalType": "uint256",
          "name": "tokenId",
          "type": "uint256"
        }
      ],
      "name": "getApproved",
      "outputs": [
        {
          "internalType": "address",
          "name": "",
          "type": "address"
        }
      ],
      "stateMutability": "view",
      "type": "function",
      "constant": true
    },
    {
      "inputs": [
        {
          "internalType": "address",
          "name": "owner",
          "type": "address"
        },
        {
          "internalType": "address",
          "name": "operator",
          "type": "address"
        }
      ],
      "name": "isApprovedForAll",
      "outputs": [
        {
          "internalType": "bool",
          "name": "",
          "type": "bool"
        }
      ],
      "stateMutability": "view",
      "type": "function",
      "constant": true
    },
    {
      "inputs": [],
      "name": "name",
      "outputs": [
        {
          "internalType": "string",
          "name": "",
          "type": "string"
        }
      ],
      "stateMutability": "view",
      "type": "function",
      "constant": true
    },
    {
      "inputs": [
        {
          "internalType": "uint256",
          "name": "tokenId",
          "type": "uint256"
        }
      ],
      "name": "ownerOf",
      "outputs": [
        {
          "internalType": "address",
          "name": "",
          "type": "address"
        }
      ],
      "stateMutability": "view",
      "type": "function",
      "constant": true
    },
    {
      "inputs": [
        {
          "internalType": "address",
          "name": "from",
          "type": "address"
        },
        {
          "internalType": "address",
          "name": "to",
          "type": "address"
        },
        {
          "internalType": "uint256",
          "name": "tokenId",
          "type": "uint256"
        }
      ],
      "name": "safeTransferFrom",
      "outputs": [],
      "stateMutability": "nonpayable",
      "type": "function"
    },
    {
      "inputs": [
        {
          "internalType": "address",
          "name": "from",
          "type": "address"
        },
        {
          "internalType": "address",
          "name": "to",
          "type": "address"
        },
        {
          "internalType": "uint256",
          "name": "tokenId",
          "type": "uint256"
        },
        {
          "internalType": "bytes",
          "name": "data",
          "type": "bytes"
        }
      ],
      "name": "safeTransferFrom",
      "outputs": [],
      "stateMutability": "nonpayable",
      "type": "function"
    },
    {
      "inputs": [
        {
          "internalType": "address",
          "name": "operator",
          "type": "address"
        },
        {
          "internalType": "bool",
          "name": "approved",
          "type": "bool"
        }
      ],
      "name": "setApprovalForAll",
      "outputs": [],
      "stateMutability": "nonpayable",
      "type": "function"
    },
    {
      "inputs": [
        {
          "internalType": "bytes4",
          "name": "interfaceId",
          "type": "bytes4"
        }
      ],
      "name": "supportsInterface",
      "outputs": [
        {
          "internalType": "bool",
          "name": "",
          "type": "bool"
        }
      ],
      "stateMutability": "view",
      "type": "function",
      "constant": true
    },
    {
      "inputs": [],
      "name": "symbol",
      "outputs": [
        {
          "internalType": "string",
          "name": "",
          "type": "string"
        }
      ],
      "stateMutability": "view",
      "type": "function",
      "constant": true
    },
    {
      "inputs": [
        {
          "internalType": "uint256",
          "name": "index",
          "type": "uint256"
        }
      ],
      "name": "tokenByIndex",
      "outputs": [
        {
          "internalType": "uint256",
          "name": "",
          "type": "uint256"
        }
      ],
      "stateMutability": "view",
      "type": "function",
      "constant": true
    },
    {
      "inputs": [
        {
          "internalType": "address",
          "name": "owner",
          "type": "address"
        },
        {
          "internalType": "uint256",
          "name": "index",
          "type": "uint256"
        }
      ],
      "name": "tokenOfOwnerByIndex",
      "outputs": [
        {
          "internalType": "uint256",
          "name": "",
          "type": "uint256"
        }
      ],
      "stateMutability": "view",
      "type": "function",
      "constant": true
    },
    {
      "inputs": [
        {
          "internalType": "uint256",
          "name": "tokenId",
          "type": "uint256"
        }
      ],
      "name": "tokenURI",
      "outputs": [
        {
          "internalType": "string",
          "name": "",
          "type": "string"
        }
      ],
      "stateMutability": "view",
      "type": "function",
      "constant": true
    },
    {
      "inputs": [],
      "name": "totalSupply",
      "outputs": [
        {
          "internalType": "uint256",
          "name": "",
          "type": "uint256"
        }
      ],
      "stateMutability": "view",
      "type": "function",
      "constant": true
    },
    {
      "inputs": [
        {
          "internalType": "address",
          "name": "from",
          "type": "address"
        },
        {
          "internalType": "address",
          "name": "to",
          "type": "address"
        },
        {
          "internalType": "uint256",
          "name": "tokenId",
          "type": "uint256"
        }
      ],
      "name": "transferFrom",
      "outputs": [],
      "stateMutability": "nonpayable",
      "type": "function"
    },
    {
      "inputs": [
        {
          "internalType": "address",
          "name": "universityContract",
          "type": "address"
        }
      ],
      "name": "setUniversityContract",
      "outputs": [],
      "stateMutability": "nonpayable",
      "type": "function"
    },
    {
      "inputs": [],
      "name": "getUniversityAddress",
      "outputs": [
        {
          "internalType": "address",
          "name": "",
          "type": "address"
        }
      ],
      "stateMutability": "view",
      "type": "function",
      "constant": true
    },
    {
      "inputs": [
        {
          "internalType": "address",
          "name": "recipient",
          "type": "address"
        },
        {
          "internalType": "string",
          "name": "description",
          "type": "string"
        },
        {
          "internalType": "string",
          "name": "dateIssued",
          "type": "string"
        }
      ],
      "name": "mint",
      "outputs": [],
      "stateMutability": "nonpayable",
      "type": "function"
    },
    {
      "inputs": [
        {
          "internalType": "uint256",
          "name": "tokenId",
          "type": "uint256"
        }
      ],
      "name": "burn",
      "outputs": [],
      "stateMutability": "nonpayable",
      "type": "function"
    },
    {
      "inputs": [],
      "name": "getCurrentTokenId",
      "outputs": [
        {
          "internalType": "uint256",
          "name": "",
          "type": "uint256"
        }
      ],
      "stateMutability": "view",
      "type": "function",
      "constant": true
    },
    {
      "inputs": [
        {
          "internalType": "uint256",
          "name": "tokenId",
          "type": "uint256"
        }
      ],
      "name": "getCertificateDetails",
      "outputs": [
        {
          "internalType": "string",
          "name": "description",
          "type": "string"
        },
        {
          "internalType": "string",
          "name": "dateIssued",
          "type": "string"
        }
      ],
      "stateMutability": "view",
      "type": "function",
      "constant": true
    }
  ],
  "bytecode": "0x60806040523480156200001157600080fd5b506040518060400160405280601281526020017f4469706c6f6d61436572746966696361746500000000000000000000000000008152506040518060400160405280600581526020017f444345525400000000000000000000000000000000000000000000000000000081525081600090816200008f919062000365565b508060019081620000a1919062000365565b50505033600b60006101000a81548173ffffffffffffffffffffffffffffffffffffffff021916908373ffffffffffffffffffffffffffffffffffffffff1602179055506200044c565b600081519050919050565b7f4e487b7100000000000000000000000000000000000000000000000000000000600052604160045260246000fd5b7f4e487b7100000000000000000000000000000000000000000000000000000000600052602260045260246000fd5b600060028204905060018216806200016d57607f821691505b60208210810362000183576200018262000125565b5b50919050565b60008190508160005260206000209050919050565b60006020601f8301049050919050565b600082821b905092915050565b600060088302620001ed7fffffffffffffffffffffffffffffffffffffffffffffffffffffffffffffffff82620001ae565b620001f98683620001ae565b95508019841693508086168417925050509392505050565b6000819050919050565b6000819050919050565b600062000246620002406200023a8462000211565b6200021b565b62000211565b9050919050565b6000819050919050565b620002628362000225565b6200027a62000271826200024d565b848454620001bb565b825550505050565b600090565b6200029162000282565b6200029e81848462000257565b505050565b5b81811015620002c657620002ba60008262000287565b600181019050620002a4565b5050565b601f8211156200031557620002df8162000189565b620002ea846200019e565b81016020851015620002fa578190505b6200031262000309856200019e565b830182620002a3565b50505b505050565b600082821c905092915050565b60006200033a600019846008026200031a565b1980831691505092915050565b600062000355838362000327565b9150826002028217905092915050565b6200037082620000eb565b67ffffffffffffffff8111156200038c576200038b620000f6565b5b62000398825462000154565b620003a5828285620002ca565b600060209050601f831160018114620003dd5760008415620003c8578287015190505b620003d4858262000347565b86555062000444565b601f198416620003ed8662000189565b60005b828110156200041757848901518255600182019150602085019450602081019050620003f0565b8683101562000437578489015162000433601f89168262000327565b8355505b6001600288020188555050505b505050505050565b6139ad806200045c6000396000f3fe608060405234801561001057600080fd5b506004361061014d5760003560e01c806356189236116100c3578063990711901161007c57806399071190146103b2578063a22cb465146103ce578063a901fe5e146103ea578063b88d4fde1461041b578063c87b56dd14610437578063e985e9c5146104675761014d565b806356189236146102dc5780636352211e146102fa57806370a082311461032a57806384c4bd4b1461035a5780638d46bda41461037857806395d89b41146103945761014d565b806318160ddd1161011557806318160ddd1461020a57806323b872dd146102285780632f745c591461024457806342842e0e1461027457806342966c68146102905780634f6ccce7146102ac5761014d565b806301ffc9a71461015257806306fdde0314610182578063081812fc146101a0578063095ea7b3146101d057806313b2a04a146101ec575b600080fd5b61016c60048036038101906101679190612553565b610497565b604051610179919061259b565b60405180910390f35b61018a610511565b6040516101979190612646565b60405180910390f35b6101ba60048036038101906101b5919061269e565b6105a3565b6040516101c7919061270c565b60405180910390f35b6101ea60048036038101906101e59190612753565b6105e9565b005b6101f4610700565b604051610201919061270c565b60405180910390f35b61021261072a565b60405161021f91906127a2565b60405180910390f35b610242600480360381019061023d91906127bd565b610737565b005b61025e60048036038101906102599190612753565b610797565b60405161026b91906127a2565b60405180910390f35b61028e600480360381019061028991906127bd565b61083c565b005b6102aa60048036038101906102a5919061269e565b61085c565b005b6102c660048036038101906102c1919061269e565b6108f8565b6040516102d391906127a2565b60405180910390f35b6102e4610969565b6040516102f191906127a2565b60405180910390f35b610314600480360381019061030f919061269e565b61097a565b604051610321919061270c565b60405180910390f35b610344600480360381019061033f9190612810565b610a00565b60405161035191906127a2565b60405180910390f35b610362610ab7565b60405161036f91906127a2565b60405180910390f35b610392600480360381019061038d9190612810565b610ac3565b005b61039c610b97565b6040516103a99190612646565b60405180910390f35b6103cc60048036038101906103c79190612972565b610c29565b005b6103e860048036038101906103e39190612a29565b610d90565b005b61040460048036038101906103ff919061269e565b610da6565b604051610412929190612a69565b60405180910390f35b61043560048036038101906104309190612b41565b610f03565b005b610451600480360381019061044c919061269e565b610f65565b60405161045e9190612646565b60405180910390f35b610481600480360381019061047c9190612bc4565b610fcd565b60405161048e919061259b565b60405180910390f35b60007f780e9d63000000000000000000000000000000000000000000000000000000007bffffffffffffffffffffffffffffffffffffffffffffffffffffffff1916827bffffffffffffffffffffffffffffffffffffffffffffffffffffffff1916148061050a575061050982611061565b5b9050919050565b60606000805461052090612c33565b80601f016020809104026020016040519081016040528092919081815260200182805461054c90612c33565b80156105995780601f1061056e57610100808354040283529160200191610599565b820191906000526020600020905b81548152906001019060200180831161057c57829003601f168201915b5050505050905090565b60006105ae82611143565b6004600083815260200190815260200160002060009054906101000a900473ffffffffffffffffffffffffffffffffffffffff169050919050565b60006105f48261097a565b90508073ffffffffffffffffffffffffffffffffffffffff168373ffffffffffffffffffffffffffffffffffffffff1603610664576040517f08c379a000000000000000000000000000000000000000000000000000000000815260040161065b90612cd6565b60405180910390fd5b8073ffffffffffffffffffffffffffffffffffffffff1661068361118e565b73ffffffffffffffffffffffffffffffffffffffff1614806106b257506106b1816106ac61118e565b610fcd565b5b6106f1576040517f08c379a00000000000000000000000000000000000000000000000000000000081526004016106e890612d68565b60405180910390fd5b6106fb8383611196565b505050565b6000600c60009054906101000a900473ffffffffffffffffffffffffffffffffffffffff16905090565b6000600880549050905090565b61074861074261118e565b8261124f565b610787576040517f08c379a000000000000000000000000000000000000000000000000000000000815260040161077e90612dfa565b60405180910390fd5b6107928383836112e4565b505050565b60006107a283610a00565b82106107e3576040517f08c379a00000000000000000000000000000000000000000000000000000000081526004016107da90612e8c565b60405180910390fd5b600660008473ffffffffffffffffffffffffffffffffffffffff1673ffffffffffffffffffffffffffffffffffffffff168152602001908152602001600020600083815260200190815260200160002054905092915050565b61085783838360405180602001604052806000815250610f03565b505050565b600c60009054906101000a900473ffffffffffffffffffffffffffffffffffffffff1673ffffffffffffffffffffffffffffffffffffffff163373ffffffffffffffffffffffffffffffffffffffff16146108ec576040517f08c379a00000000000000000000000000000000000000000000000000000000081526004016108e390612f1e565b60405180910390fd5b6108f5816115dd565b50565b600061090261072a565b8210610943576040517f08c379a000000000000000000000000000000000000000000000000000000000815260040161093a90612fb0565b60405180910390fd5b6008828154811061095757610956612fd0565b5b90600052602060002001549050919050565b6000610975600a61172b565b905090565b60008061098683611739565b9050600073ffffffffffffffffffffffffffffffffffffffff168173ffffffffffffffffffffffffffffffffffffffff16036109f7576040517f08c379a00000000000000000000000000000000000000000000000000000000081526004016109ee9061304b565b60405180910390fd5b80915050919050565b60008073ffffffffffffffffffffffffffffffffffffffff168273ffffffffffffffffffffffffffffffffffffffff1603610a70576040517f08c379a0000000000000000000000000000000000000000000000000000000008152600401610a67906130dd565b60405180910390fd5b600360008373ffffffffffffffffffffffffffffffffffffffff1673ffffffffffffffffffffffffffffffffffffffff168152602001908152602001600020549050919050565b600a8060000154905081565b600b60009054906101000a900473ffffffffffffffffffffffffffffffffffffffff1673ffffffffffffffffffffffffffffffffffffffff163373ffffffffffffffffffffffffffffffffffffffff1614610b53576040517f08c379a0000000000000000000000000000000000000000000000000000000008152600401610b4a90613149565b60405180910390fd5b80600c60006101000a81548173ffffffffffffffffffffffffffffffffffffffff021916908373ffffffffffffffffffffffffffffffffffffffff16021790555050565b606060018054610ba690612c33565b80601f0160208091040260200160405190810160405280929190818152602001828054610bd290612c33565b8015610c1f5780601f10610bf457610100808354040283529160200191610c1f565b820191906000526020600020905b815481529060010190602001808311610c0257829003601f168201915b5050505050905090565b600b60009054906101000a900473ffffffffffffffffffffffffffffffffffffffff1673ffffffffffffffffffffffffffffffffffffffff163373ffffffffffffffffffffffffffffffffffffffff161480610cd25750600c60009054906101000a900473ffffffffffffffffffffffffffffffffffffffff1673ffffffffffffffffffffffffffffffffffffffff163373ffffffffffffffffffffffffffffffffffffffff16145b610d11576040517f08c379a0000000000000000000000000000000000000000000000000000000008152600401610d0890613149565b60405180910390fd5b610d1b600a611776565b6000610d27600a61172b565b9050610d33848261178c565b604051806040016040528084815260200183815250600d60008381526020019081526020016000206000820151816000019081610d709190613315565b506020820151816001019081610d869190613315565b5090505050505050565b610da2610d9b61118e565b83836117aa565b5050565b6060806000600d6000858152602001908152602001600020604051806040016040529081600082018054610dd990612c33565b80601f0160208091040260200160405190810160405280929190818152602001828054610e0590612c33565b8015610e525780601f10610e2757610100808354040283529160200191610e52565b820191906000526020600020905b815481529060010190602001808311610e3557829003601f168201915b50505050508152602001600182018054610e6b90612c33565b80601f0160208091040260200160405190810160405280929190818152602001828054610e9790612c33565b8015610ee45780601f10610eb957610100808354040283529160200191610ee4565b820191906000526020600020905b815481529060010190602001808311610ec757829003601f168201915b5050505050815250509050806000015181602001519250925050915091565b610f14610f0e61118e565b8361124f565b610f53576040517f08c379a0000000000000000000000000000000000000000000000000000000008152600401610f4a90612dfa565b60405180910390fd5b610f5f84848484611916565b50505050565b6060610f7082611143565b6000610f7a611972565b90506000815111610f9a5760405180602001604052806000815250610fc5565b80610fa484611989565b604051602001610fb5929190613423565b6040516020818303038152906040525b915050919050565b6000600560008473ffffffffffffffffffffffffffffffffffffffff1673ffffffffffffffffffffffffffffffffffffffff16815260200190815260200160002060008373ffffffffffffffffffffffffffffffffffffffff1673ffffffffffffffffffffffffffffffffffffffff16815260200190815260200160002060009054906101000a900460ff16905092915050565b60007f80ac58cd000000000000000000000000000000000000000000000000000000007bffffffffffffffffffffffffffffffffffffffffffffffffffffffff1916827bffffffffffffffffffffffffffffffffffffffffffffffffffffffff1916148061112c57507f5b5e139f000000000000000000000000000000000000000000000000000000007bffffffffffffffffffffffffffffffffffffffffffffffffffffffff1916827bffffffffffffffffffffffffffffffffffffffffffffffffffffffff1916145b8061113c575061113b82611a57565b5b9050919050565b61114c81611ac1565b61118b576040517f08c379a00000000000000000000000000000000000000000000000000000000081526004016111829061304b565b60405180910390fd5b50565b600033905090565b816004600083815260200190815260200160002060006101000a81548173ffffffffffffffffffffffffffffffffffffffff021916908373ffffffffffffffffffffffffffffffffffffffff160217905550808273ffffffffffffffffffffffffffffffffffffffff166112098361097a565b73ffffffffffffffffffffffffffffffffffffffff167f8c5be1e5ebec7d5bd14f71427d1e84f3dd0314c0f7b2291e5b200ac8c7c3b92560405160405180910390a45050565b60008061125b8361097a565b90508073ffffffffffffffffffffffffffffffffffffffff168473ffffffffffffffffffffffffffffffffffffffff16148061129d575061129c8185610fcd565b5b806112db57508373ffffffffffffffffffffffffffffffffffffffff166112c3846105a3565b73ffffffffffffffffffffffffffffffffffffffff16145b91505092915050565b8273ffffffffffffffffffffffffffffffffffffffff166113048261097a565b73ffffffffffffffffffffffffffffffffffffffff161461135a576040517f08c379a0000000000000000000000000000000000000000000000000000000008152600401611351906134b9565b60405180910390fd5b600073ffffffffffffffffffffffffffffffffffffffff168273ffffffffffffffffffffffffffffffffffffffff16036113c9576040517f08c379a00000000000000000000000000000000000000000000000000000000081526004016113c09061354b565b60405180910390fd5b6113d68383836001611b02565b8273ffffffffffffffffffffffffffffffffffffffff166113f68261097a565b73ffffffffffffffffffffffffffffffffffffffff161461144c576040517f08c379a0000000000000000000000000000000000000000000000000000000008152600401611443906134b9565b60405180910390fd5b6004600082815260200190815260200160002060006101000a81549073ffffffffffffffffffffffffffffffffffffffff02191690556001600360008573ffffffffffffffffffffffffffffffffffffffff1673ffffffffffffffffffffffffffffffffffffffff168152602001908152602001600020600082825403925050819055506001600360008473ffffffffffffffffffffffffffffffffffffffff1673ffffffffffffffffffffffffffffffffffffffff16815260200190815260200160002060008282540192505081905550816002600083815260200190815260200160002060006101000a81548173ffffffffffffffffffffffffffffffffffffffff021916908373ffffffffffffffffffffffffffffffffffffffff160217905550808273ffffffffffffffffffffffffffffffffffffffff168473ffffffffffffffffffffffffffffffffffffffff167fddf252ad1be2c89b69c2b068fc378daa952ba7f163c4a11628f55a4df523b3ef60405160405180910390a46115d88383836001611c60565b505050565b60006115e88261097a565b90506115f8816000846001611b02565b6116018261097a565b90506004600083815260200190815260200160002060006101000a81549073ffffffffffffffffffffffffffffffffffffffff02191690556001600360008373ffffffffffffffffffffffffffffffffffffffff1673ffffffffffffffffffffffffffffffffffffffff168152602001908152602001600020600082825403925050819055506002600083815260200190815260200160002060006101000a81549073ffffffffffffffffffffffffffffffffffffffff021916905581600073ffffffffffffffffffffffffffffffffffffffff168273ffffffffffffffffffffffffffffffffffffffff167fddf252ad1be2c89b69c2b068fc378daa952ba7f163c4a11628f55a4df523b3ef60405160405180910390a4611727816000846001611c60565b5050565b600081600001549050919050565b60006002600083815260200190815260200160002060009054906101000a900473ffffffffffffffffffffffffffffffffffffffff169050919050565b6001816000016000828254019250508190555050565b6117a6828260405180602001604052806000815250611c66565b5050565b8173ffffffffffffffffffffffffffffffffffffffff168373ffffffffffffffffffffffffffffffffffffffff1603611818576040517f08c379a000000000000000000000000000000000000000000000000000000000815260040161180f906135b7565b60405180910390fd5b80600560008573ffffffffffffffffffffffffffffffffffffffff1673ffffffffffffffffffffffffffffffffffffffff16815260200190815260200160002060008473ffffffffffffffffffffffffffffffffffffffff1673ffffffffffffffffffffffffffffffffffffffff16815260200190815260200160002060006101000a81548160ff0219169083151502179055508173ffffffffffffffffffffffffffffffffffffffff168373ffffffffffffffffffffffffffffffffffffffff167f17307eab39ab6107e8899845ad3d59bd9653f200f220920489ca2b5937696c3183604051611909919061259b565b60405180910390a3505050565b6119218484846112e4565b61192d84848484611cc1565b61196c576040517f08c379a000000000000000000000000000000000000000000000000000000000815260040161196390613649565b60405180910390fd5b50505050565b606060405180602001604052806000815250905090565b60606000600161199884611e48565b01905060008167ffffffffffffffff8111156119b7576119b6612847565b5b6040519080825280601f01601f1916602001820160405280156119e95781602001600182028036833780820191505090505b509050600082602001820190505b600115611a4c578080600190039150507f3031323334353637383961626364656600000000000000000000000000000000600a86061a8153600a8581611a4057611a3f613669565b5b049450600085036119f7575b819350505050919050565b60007f01ffc9a7000000000000000000000000000000000000000000000000000000007bffffffffffffffffffffffffffffffffffffffffffffffffffffffff1916827bffffffffffffffffffffffffffffffffffffffffffffffffffffffff1916149050919050565b60008073ffffffffffffffffffffffffffffffffffffffff16611ae383611739565b73ffffffffffffffffffffffffffffffffffffffff1614159050919050565b611b0e84848484611f9b565b6001811115611b52576040517f08c379a0000000000000000000000000000000000000000000000000000000008152600401611b499061370a565b60405180910390fd5b6000829050600073ffffffffffffffffffffffffffffffffffffffff168573ffffffffffffffffffffffffffffffffffffffff1603611b9957611b9481611fa1565b611bd8565b8373ffffffffffffffffffffffffffffffffffffffff168573ffffffffffffffffffffffffffffffffffffffff1614611bd757611bd68582611fea565b5b5b600073ffffffffffffffffffffffffffffffffffffffff168473ffffffffffffffffffffffffffffffffffffffff1603611c1a57611c1581612157565b611c59565b8473ffffffffffffffffffffffffffffffffffffffff168473ffffffffffffffffffffffffffffffffffffffff1614611c5857611c578482612228565b5b5b5050505050565b50505050565b611c7083836122a7565b611c7d6000848484611cc1565b611cbc576040517f08c379a0000000000000000000000000000000000000000000000000000000008152600401611cb390613649565b60405180910390fd5b505050565b6000611ce28473ffffffffffffffffffffffffffffffffffffffff166124c4565b15611e3b578373ffffffffffffffffffffffffffffffffffffffff1663150b7a02611d0b61118e565b8786866040518563ffffffff1660e01b8152600401611d2d949392919061377f565b6020604051808303816000875af1925050508015611d6957506040513d601f19601f82011682018060405250810190611d6691906137e0565b60015b611deb573d8060008114611d99576040519150601f19603f3d011682016040523d82523d6000602084013e611d9e565b606091505b506000815103611de3576040517f08c379a0000000000000000000000000000000000000000000000000000000008152600401611dda90613649565b60405180910390fd5b805181602001fd5b63150b7a0260e01b7bffffffffffffffffffffffffffffffffffffffffffffffffffffffff1916817bffffffffffffffffffffffffffffffffffffffffffffffffffffffff191614915050611e40565b600190505b949350505050565b600080600090507a184f03e93ff9f4daa797ed6e38ed64bf6a1f0100000000000000008310611ea6577a184f03e93ff9f4daa797ed6e38ed64bf6a1f0100000000000000008381611e9c57611e9b613669565b5b0492506040810190505b6d04ee2d6d415b85acef81000000008310611ee3576d04ee2d6d415b85acef81000000008381611ed957611ed8613669565b5b0492506020810190505b662386f26fc100008310611f1257662386f26fc100008381611f0857611f07613669565b5b0492506010810190505b6305f5e1008310611f3b576305f5e1008381611f3157611f30613669565b5b0492506008810190505b6127108310611f60576127108381611f5657611f55613669565b5b0492506004810190505b60648310611f835760648381611f7957611f78613669565b5b0492506002810190505b600a8310611f92576001810190505b80915050919050565b50505050565b6008805490506009600083815260200190815260200160002081905550600881908060018154018082558091505060019003906000526020600020016000909190919091505550565b60006001611ff784610a00565b612001919061383c565b90506000600760008481526020019081526020016000205490508181146120e6576000600660008673ffffffffffffffffffffffffffffffffffffffff1673ffffffffffffffffffffffffffffffffffffffff168152602001908152602001600020600084815260200190815260200160002054905080600660008773ffffffffffffffffffffffffffffffffffffffff1673ffffffffffffffffffffffffffffffffffffffff168152602001908152602001600020600084815260200190815260200160002081905550816007600083815260200190815260200160002081905550505b6007600084815260200190815260200160002060009055600660008573ffffffffffffffffffffffffffffffffffffffff1673ffffffffffffffffffffffffffffffffffffffff16815260200190815260200160002060008381526020019081526020016000206000905550505050565b6000600160088054905061216b919061383c565b905060006009600084815260200190815260200160002054905060006008838154811061219b5761219a612fd0565b5b9060005260206000200154905080600883815481106121bd576121bc612fd0565b5b90600052602060002001819055508160096000838152602001908152602001600020819055506009600085815260200190815260200160002060009055600880548061220c5761220b613870565b5b6001900381819060005260206000200160009055905550505050565b600061223383610a00565b905081600660008573ffffffffffffffffffffffffffffffffffffffff1673ffffffffffffffffffffffffffffffffffffffff168152602001908152602001600020600083815260200190815260200160002081905550806007600084815260200190815260200160002081905550505050565b600073ffffffffffffffffffffffffffffffffffffffff168273ffffffffffffffffffffffffffffffffffffffff1603612316576040517f08c379a000000000000000000000000000000000000000000000000000000000815260040161230d906138eb565b60405180910390fd5b61231f81611ac1565b1561235f576040517f08c379a000000000000000000000000000000000000000000000000000000000815260040161235690613957565b60405180910390fd5b61236d600083836001611b02565b61237681611ac1565b156123b6576040517f08c379a00000000000000000000000000000000000000000000000000000000081526004016123ad90613957565b60405180910390fd5b6001600360008473ffffffffffffffffffffffffffffffffffffffff1673ffffffffffffffffffffffffffffffffffffffff16815260200190815260200160002060008282540192505081905550816002600083815260200190815260200160002060006101000a81548173ffffffffffffffffffffffffffffffffffffffff021916908373ffffffffffffffffffffffffffffffffffffffff160217905550808273ffffffffffffffffffffffffffffffffffffffff16600073ffffffffffffffffffffffffffffffffffffffff167fddf252ad1be2c89b69c2b068fc378daa952ba7f163c4a11628f55a4df523b3ef60405160405180910390a46124c0600083836001611c60565b5050565b6000808273ffffffffffffffffffffffffffffffffffffffff163b119050919050565b6000604051905090565b600080fd5b600080fd5b60007fffffffff0000000000000000000000000000000000000000000000000000000082169050919050565b612530816124fb565b811461253b57600080fd5b50565b60008135905061254d81612527565b92915050565b600060208284031215612569576125686124f1565b5b60006125778482850161253e565b91505092915050565b60008115159050919050565b61259581612580565b82525050565b60006020820190506125b0600083018461258c565b92915050565b600081519050919050565b600082825260208201905092915050565b60005b838110156125f05780820151818401526020810190506125d5565b60008484015250505050565b6000601f19601f8301169050919050565b6000612618826125b6565b61262281856125c1565b93506126328185602086016125d2565b61263b816125fc565b840191505092915050565b60006020820190508181036000830152612660818461260d565b905092915050565b6000819050919050565b61267b81612668565b811461268657600080fd5b50565b60008135905061269881612672565b92915050565b6000602082840312156126b4576126b36124f1565b5b60006126c284828501612689565b91505092915050565b600073ffffffffffffffffffffffffffffffffffffffff82169050919050565b60006126f6826126cb565b9050919050565b612706816126eb565b82525050565b600060208201905061272160008301846126fd565b92915050565b612730816126eb565b811461273b57600080fd5b50565b60008135905061274d81612727565b92915050565b6000806040838503121561276a576127696124f1565b5b60006127788582860161273e565b925050602061278985828601612689565b9150509250929050565b61279c81612668565b82525050565b60006020820190506127b76000830184612793565b92915050565b6000806000606084860312156127d6576127d56124f1565b5b60006127e48682870161273e565b93505060206127f58682870161273e565b925050604061280686828701612689565b9150509250925092565b600060208284031215612826576128256124f1565b5b60006128348482850161273e565b91505092915050565b600080fd5b600080fd5b7f4e487b7100000000000000000000000000000000000000000000000000000000600052604160045260246000fd5b61287f826125fc565b810181811067ffffffffffffffff8211171561289e5761289d612847565b5b80604052505050565b60006128b16124e7565b90506128bd8282612876565b919050565b600067ffffffffffffffff8211156128dd576128dc612847565b5b6128e6826125fc565b9050602081019050919050565b82818337600083830152505050565b6000612915612910846128c2565b6128a7565b90508281526020810184848401111561293157612930612842565b5b61293c8482856128f3565b509392505050565b600082601f8301126129595761295861283d565b5b8135612969848260208601612902565b91505092915050565b60008060006060848603121561298b5761298a6124f1565b5b60006129998682870161273e565b935050602084013567ffffffffffffffff8111156129ba576129b96124f6565b5b6129c686828701612944565b925050604084013567ffffffffffffffff8111156129e7576129e66124f6565b5b6129f386828701612944565b9150509250925092565b612a0681612580565b8114612a1157600080fd5b50565b600081359050612a23816129fd565b92915050565b60008060408385031215612a4057612a3f6124f1565b5b6000612a4e8582860161273e565b9250506020612a5f85828601612a14565b9150509250929050565b60006040820190508181036000830152612a83818561260d565b90508181036020830152612a97818461260d565b90509392505050565b600067ffffffffffffffff821115612abb57612aba612847565b5b612ac4826125fc565b9050602081019050919050565b6000612ae4612adf84612aa0565b6128a7565b905082815260208101848484011115612b0057612aff612842565b5b612b0b8482856128f3565b509392505050565b600082601f830112612b2857612b2761283d565b5b8135612b38848260208601612ad1565b91505092915050565b60008060008060808587031215612b5b57612b5a6124f1565b5b6000612b698782880161273e565b9450506020612b7a8782880161273e565b9350506040612b8b87828801612689565b925050606085013567ffffffffffffffff811115612bac57612bab6124f6565b5b612bb887828801612b13565b91505092959194509250565b60008060408385031215612bdb57612bda6124f1565b5b6000612be98582860161273e565b9250506020612bfa8582860161273e565b9150509250929050565b7f4e487b7100000000000000000000000000000000000000000000000000000000600052602260045260246000fd5b60006002820490506001821680612c4b57607f821691505b602082108103612c5e57612c5d612c04565b5b50919050565b7f4552433732313a20617070726f76616c20746f2063757272656e74206f776e6560008201527f7200000000000000000000000000000000000000000000000000000000000000602082015250565b6000612cc06021836125c1565b9150612ccb82612c64565b604082019050919050565b60006020820190508181036000830152612cef81612cb3565b9050919050565b7f4552433732313a20617070726f76652063616c6c6572206973206e6f7420746f60008201527f6b656e206f776e6572206f7220617070726f76656420666f7220616c6c000000602082015250565b6000612d52603d836125c1565b9150612d5d82612cf6565b604082019050919050565b60006020820190508181036000830152612d8181612d45565b9050919050565b7f4552433732313a2063616c6c6572206973206e6f7420746f6b656e206f776e6560008201527f72206f7220617070726f76656400000000000000000000000000000000000000602082015250565b6000612de4602d836125c1565b9150612def82612d88565b604082019050919050565b60006020820190508181036000830152612e1381612dd7565b9050919050565b7f455243373231456e756d657261626c653a206f776e657220696e646578206f7560008201527f74206f6620626f756e6473000000000000000000000000000000000000000000602082015250565b6000612e76602b836125c1565b9150612e8182612e1a565b604082019050919050565b60006020820190508181036000830152612ea581612e69565b9050919050565b7f4f6e6c7920556e6976657273697479546f6b656e2063616e206275726e20746f60008201527f6b656e732e000000000000000000000000000000000000000000000000000000602082015250565b6000612f086025836125c1565b9150612f1382612eac565b604082019050919050565b60006020820190508181036000830152612f3781612efb565b9050919050565b7f455243373231456e756d657261626c653a20676c6f62616c20696e646578206f60008201527f7574206f6620626f756e64730000000000000000000000000000000000000000602082015250565b6000612f9a602c836125c1565b9150612fa582612f3e565b604082019050919050565b60006020820190508181036000830152612fc981612f8d565b9050919050565b7f4e487b7100000000000000000000000000000000000000000000000000000000600052603260045260246000fd5b7f4552433732313a20696e76616c696420746f6b656e2049440000000000000000600082015250565b60006130356018836125c1565b915061304082612fff565b602082019050919050565b6000602082019050818103600083015261306481613028565b9050919050565b7f4552433732313a2061646472657373207a65726f206973206e6f74206120766160008201527f6c6964206f776e65720000000000000000000000000000000000000000000000602082015250565b60006130c76029836125c1565b91506130d28261306b565b604082019050919050565b600060208201905081810360008301526130f6816130ba565b9050919050565b7f4e6f7420617574686f72697a6564000000000000000000000000000000000000600082015250565b6000613133600e836125c1565b915061313e826130fd565b602082019050919050565b6000602082019050818103600083015261316281613126565b9050919050565b60008190508160005260206000209050919050565b60006020601f8301049050919050565b600082821b905092915050565b6000600883026131cb7fffffffffffffffffffffffffffffffffffffffffffffffffffffffffffffffff8261318e565b6131d5868361318e565b95508019841693508086168417925050509392505050565b6000819050919050565b600061321261320d61320884612668565b6131ed565b612668565b9050919050565b6000819050919050565b61322c836131f7565b61324061323882613219565b84845461319b565b825550505050565b600090565b613255613248565b613260818484613223565b505050565b5b818110156132845761327960008261324d565b600181019050613266565b5050565b601f8211156132c95761329a81613169565b6132a38461317e565b810160208510156132b2578190505b6132c66132be8561317e565b830182613265565b50505b505050565b600082821c905092915050565b60006132ec600019846008026132ce565b1980831691505092915050565b600061330583836132db565b9150826002028217905092915050565b61331e826125b6565b67ffffffffffffffff81111561333757613336612847565b5b6133418254612c33565b61334c828285613288565b600060209050601f83116001811461337f576000841561336d578287015190505b61337785826132f9565b8655506133df565b601f19841661338d86613169565b60005b828110156133b557848901518255600182019150602085019450602081019050613390565b868310156133d257848901516133ce601f8916826132db565b8355505b6001600288020188555050505b505050505050565b600081905092915050565b60006133fd826125b6565b61340781856133e7565b93506134178185602086016125d2565b80840191505092915050565b600061342f82856133f2565b915061343b82846133f2565b91508190509392505050565b7f4552433732313a207472616e736665722066726f6d20696e636f72726563742060008201527f6f776e6572000000000000000000000000000000000000000000000000000000602082015250565b60006134a36025836125c1565b91506134ae82613447565b604082019050919050565b600060208201905081810360008301526134d281613496565b9050919050565b7f4552433732313a207472616e7366657220746f20746865207a65726f2061646460008201527f7265737300000000000000000000000000000000000000000000000000000000602082015250565b60006135356024836125c1565b9150613540826134d9565b604082019050919050565b6000602082019050818103600083015261356481613528565b9050919050565b7f4552433732313a20617070726f766520746f2063616c6c657200000000000000600082015250565b60006135a16019836125c1565b91506135ac8261356b565b602082019050919050565b600060208201905081810360008301526135d081613594565b9050919050565b7f4552433732313a207472616e7366657220746f206e6f6e20455243373231526560008201527f63656976657220696d706c656d656e7465720000000000000000000000000000602082015250565b60006136336032836125c1565b915061363e826135d7565b604082019050919050565b6000602082019050818103600083015261366281613626565b9050919050565b7f4e487b7100000000000000000000000000000000000000000000000000000000600052601260045260246000fd5b7f455243373231456e756d657261626c653a20636f6e736563757469766520747260008201527f616e7366657273206e6f7420737570706f727465640000000000000000000000602082015250565b60006136f46035836125c1565b91506136ff82613698565b604082019050919050565b60006020820190508181036000830152613723816136e7565b9050919050565b600081519050919050565b600082825260208201905092915050565b60006137518261372a565b61375b8185613735565b935061376b8185602086016125d2565b613774816125fc565b840191505092915050565b600060808201905061379460008301876126fd565b6137a160208301866126fd565b6137ae6040830185612793565b81810360608301526137c08184613746565b905095945050505050565b6000815190506137da81612527565b92915050565b6000602082840312156137f6576137f56124f1565b5b6000613804848285016137cb565b91505092915050565b7f4e487b7100000000000000000000000000000000000000000000000000000000600052601160045260246000fd5b600061384782612668565b915061385283612668565b925082820390508181111561386a5761386961380d565b5b92915050565b7f4e487b7100000000000000000000000000000000000000000000000000000000600052603160045260246000fd5b7f4552433732313a206d696e7420746f20746865207a65726f2061646472657373600082015250565b60006138d56020836125c1565b91506138e08261389f565b602082019050919050565b60006020820190508181036000830152613904816138c8565b9050919050565b7f4552433732313a20746f6b656e20616c7265616479206d696e74656400000000600082015250565b6000613941601c836125c1565b915061394c8261390b565b602082019050919050565b6000602082019050818103600083015261397081613934565b905091905056fea2646970667358221220e0bb65a901ddd2cbff3190d4ec21b1dfb21f71b63e10e7fe6dd5383ce047fcbf64736f6c63430008130033",
  "immutableReferences": {},
  "source": "// SPDX-License-Identifier: UNLICENSED\r\npragma solidity ^0.8.19;\r\n\r\nimport \"@openzeppelin/contracts/token/ERC721/extensions/ERC721Enumerable.sol\";\r\nimport \"@openzeppelin/contracts/utils/Counters.sol\";\r\n\r\ncontract DiplomaCertificate is ERC721Enumerable{\r\n    using Counters for Counters.Counter;\r\n    Counters.Counter public _tokenIdCounter;\r\n\r\n    address private admin;\r\n    address private UniversityContract;\r\n\r\n    struct CertificateData {\r\n        string description;\r\n        string dateIssued;\r\n    }\r\n\r\n    mapping(uint256 => CertificateData) private _certificateDetails;\r\n\r\n    modifier onlyAdmin() {\r\n        require(msg.sender == admin, \"Not authorized\");\r\n        _;\r\n    }\r\n\r\n    modifier onlyAdminOrUniversity() {\r\n        require(msg.sender == admin || msg.sender == UniversityContract, \"Not authorized\");\r\n        _;\r\n    }\r\n\r\n    constructor() ERC721(\"DiplomaCertificate\", \"DCERT\") {\r\n        admin = msg.sender;\r\n    }\r\n\r\n    function setUniversityContract(address universityContract) public onlyAdmin{\r\n        UniversityContract = universityContract;\r\n    }\r\n    function getUniversityAddress() public view returns (address) {\r\n        return UniversityContract;\r\n    }\r\n    \r\n    function mint(address recipient, string memory description, string memory dateIssued) external onlyAdminOrUniversity {\r\n        _tokenIdCounter.increment();\r\n        uint256 newTokenId = _tokenIdCounter.current();\r\n        _safeMint(recipient, newTokenId);\r\n        \r\n        _certificateDetails[newTokenId] = CertificateData({\r\n            description: description,\r\n            dateIssued: dateIssued\r\n        });\r\n    }\r\n    function burn(uint256 tokenId) external {\r\n        require(msg.sender == UniversityContract, \"Only UniversityToken can burn tokens.\");\r\n        _burn(tokenId); \r\n    }\r\n\r\n    function getCurrentTokenId() external view returns (uint256) {\r\n        return _tokenIdCounter.current();\r\n    }\r\n    \r\n    function getCertificateDetails(uint256 tokenId) external view returns (string memory description, string memory dateIssued) {\r\n        CertificateData memory certData = _certificateDetails[tokenId];\r\n        return (certData.description, certData.dateIssued);\r\n    }\r\n\r\n}",
  "sourcePath": "C:\\Users\\Stefan\\Documents\\Blockchains Project\\EduBlockchain\\project-contract\\contracts\\DiplomaCertificate.sol",
  "compiler": {
    "name": "solc",
    "version": "0.8.19+commit.7dd6d404.Emscripten.clang"
  },
  "schemaVersion": "3.4.16",
  "updatedAt": "2023-11-16T20:52:30.400Z",
  "networkType": "ethereum",
  "devdoc": {
    "events": {
      "Approval(address,address,uint256)": {
        "details": "Emitted when `owner` enables `approved` to manage the `tokenId` token."
      },
      "ApprovalForAll(address,address,bool)": {
        "details": "Emitted when `owner` enables or disables (`approved`) `operator` to manage all of its assets."
      },
      "Transfer(address,address,uint256)": {
        "details": "Emitted when `tokenId` token is transferred from `from` to `to`."
      }
    },
    "kind": "dev",
    "methods": {
      "approve(address,uint256)": {
        "details": "See {IERC721-approve}."
      },
      "balanceOf(address)": {
        "details": "See {IERC721-balanceOf}."
      },
      "getApproved(uint256)": {
        "details": "See {IERC721-getApproved}."
      },
      "isApprovedForAll(address,address)": {
        "details": "See {IERC721-isApprovedForAll}."
      },
      "name()": {
        "details": "See {IERC721Metadata-name}."
      },
      "ownerOf(uint256)": {
        "details": "See {IERC721-ownerOf}."
      },
      "safeTransferFrom(address,address,uint256)": {
        "details": "See {IERC721-safeTransferFrom}."
      },
      "safeTransferFrom(address,address,uint256,bytes)": {
        "details": "See {IERC721-safeTransferFrom}."
      },
      "setApprovalForAll(address,bool)": {
        "details": "See {IERC721-setApprovalForAll}."
      },
      "supportsInterface(bytes4)": {
        "details": "See {IERC165-supportsInterface}."
      },
      "symbol()": {
        "details": "See {IERC721Metadata-symbol}."
      },
      "tokenByIndex(uint256)": {
        "details": "See {IERC721Enumerable-tokenByIndex}."
      },
      "tokenOfOwnerByIndex(address,uint256)": {
        "details": "See {IERC721Enumerable-tokenOfOwnerByIndex}."
      },
      "tokenURI(uint256)": {
        "details": "See {IERC721Metadata-tokenURI}."
      },
      "totalSupply()": {
        "details": "See {IERC721Enumerable-totalSupply}."
      },
      "transferFrom(address,address,uint256)": {
        "details": "See {IERC721-transferFrom}."
      }
    },
    "version": 1
  },
  "userdoc": {
    "kind": "user",
    "methods": {},
    "version": 1
  }
}