{
  "contractName": "UniversityToken",
  "abi": [
    {
      "inputs": [
        {
          "internalType": "address",
          "name": "gpaTokenAddress",
          "type": "address"
        },
        {
          "internalType": "address",
          "name": "diplomaCertificateAddress",
          "type": "address"
        }
      ],
      "stateMutability": "nonpayable",
      "type": "constructor"
    },
    {
      "anonymous": false,
      "inputs": [
        {
          "indexed": true,
          "internalType": "address",
          "name": "previousOwner",
          "type": "address"
        },
        {
          "indexed": true,
          "internalType": "address",
          "name": "newOwner",
          "type": "address"
        }
      ],
      "name": "OwnershipTransferred",
      "type": "event"
    },
    {
      "inputs": [],
      "name": "owner",
      "outputs": [
        {
          "internalType": "address",
          "name": "",
          "type": "address"
        }
      ],
      "stateMutability": "view",
      "type": "function"
    },
    {
      "inputs": [],
      "name": "renounceOwnership",
      "outputs": [],
      "stateMutability": "nonpayable",
      "type": "function"
    },
    {
      "inputs": [
        {
          "internalType": "address",
          "name": "newOwner",
          "type": "address"
        }
      ],
      "name": "transferOwnership",
      "outputs": [],
      "stateMutability": "nonpayable",
      "type": "function"
    },
    {
      "inputs": [
        {
          "internalType": "address",
          "name": "universityAddress",
          "type": "address"
        }
      ],
      "name": "addTrustedUniversity",
      "outputs": [],
      "stateMutability": "nonpayable",
      "type": "function"
    },
    {
      "inputs": [
        {
          "internalType": "address",
          "name": "universityAddress",
          "type": "address"
        }
      ],
      "name": "removeTrustedUniversity",
      "outputs": [],
      "stateMutability": "nonpayable",
      "type": "function"
    },
    {
      "inputs": [
        {
          "internalType": "address",
          "name": "certificateEntityAddress",
          "type": "address"
        }
      ],
      "name": "addTrustedCertificateEntities",
      "outputs": [],
      "stateMutability": "nonpayable",
      "type": "function"
    },
    {
      "inputs": [
        {
          "internalType": "address",
          "name": "certificateEntityAddress",
          "type": "address"
        }
      ],
      "name": "removeTrustedCertificateEntities",
      "outputs": [],
      "stateMutability": "nonpayable",
      "type": "function"
    },
    {
      "inputs": [
        {
          "internalType": "address",
          "name": "student",
          "type": "address"
        },
        {
          "internalType": "uint256",
          "name": "newGPA",
          "type": "uint256"
        }
      ],
      "name": "setGPA",
      "outputs": [],
      "stateMutability": "nonpayable",
      "type": "function"
    },
    {
      "inputs": [
        {
          "internalType": "address",
          "name": "student",
          "type": "address"
        },
        {
          "internalType": "string",
          "name": "description",
          "type": "string"
        },
        {
          "internalType": "string",
          "name": "dateIssued",
          "type": "string"
        }
      ],
      "name": "mintCertification",
      "outputs": [],
      "stateMutability": "nonpayable",
      "type": "function"
    },
    {
      "inputs": [
        {
          "internalType": "uint256",
          "name": "tokenId",
          "type": "uint256"
        }
      ],
      "name": "getTokenMinter",
      "outputs": [
        {
          "internalType": "address",
          "name": "",
          "type": "address"
        }
      ],
      "stateMutability": "view",
      "type": "function"
    },
    {
      "inputs": [
        {
          "internalType": "uint256",
          "name": "tokenId",
          "type": "uint256"
        }
      ],
      "name": "revokeToken",
      "outputs": [],
      "stateMutability": "nonpayable",
      "type": "function"
    },
    {
      "inputs": [
        {
          "internalType": "address",
          "name": "student",
          "type": "address"
        }
      ],
      "name": "getGPAOf",
      "outputs": [
        {
          "internalType": "uint256",
          "name": "",
          "type": "uint256"
        }
      ],
      "stateMutability": "view",
      "type": "function"
    },
    {
      "inputs": [
        {
          "internalType": "address",
          "name": "owner",
          "type": "address"
        }
      ],
      "name": "getCertificatesOf",
      "outputs": [
        {
          "components": [
            {
              "internalType": "uint256",
              "name": "tokenId",
              "type": "uint256"
            },
            {
              "internalType": "string",
              "name": "description",
              "type": "string"
            },
            {
              "internalType": "string",
              "name": "dateIssued",
              "type": "string"
            }
          ],
          "internalType": "struct UniversityToken.CertificateData[]",
          "name": "",
          "type": "tuple[]"
        }
      ],
      "stateMutability": "view",
      "type": "function"
    }
  ],
  "bytecode": "0x608060405234801562000010575f80fd5b5060405162001b0538038062001b0583398181016040528101906200003691906200020b565b620000566200004a620000de60201b60201c565b620000e560201b60201c565b8160015f6101000a81548173ffffffffffffffffffffffffffffffffffffffff021916908373ffffffffffffffffffffffffffffffffffffffff1602179055508060025f6101000a81548173ffffffffffffffffffffffffffffffffffffffff021916908373ffffffffffffffffffffffffffffffffffffffff160217905550505062000250565b5f33905090565b5f805f9054906101000a900473ffffffffffffffffffffffffffffffffffffffff169050815f806101000a81548173ffffffffffffffffffffffffffffffffffffffff021916908373ffffffffffffffffffffffffffffffffffffffff1602179055508173ffffffffffffffffffffffffffffffffffffffff168173ffffffffffffffffffffffffffffffffffffffff167f8be0079c531659141344cd1fd0a4f28419497f9722a3daafe3b4186f6b6457e060405160405180910390a35050565b5f80fd5b5f73ffffffffffffffffffffffffffffffffffffffff82169050919050565b5f620001d582620001aa565b9050919050565b620001e781620001c9565b8114620001f2575f80fd5b50565b5f815190506200020581620001dc565b92915050565b5f8060408385031215620002245762000223620001a6565b5b5f6200023385828601620001f5565b92505060206200024685828601620001f5565b9150509250929050565b6118a7806200025e5f395ff3fe608060405234801561000f575f80fd5b50600436106100cd575f3560e01c80638da5cb5b1161008a578063d0e4f39611610064578063d0e4f396146101d1578063d15b396514610201578063f2fde38b1461021d578063f6da683d14610239576100cd565b80638da5cb5b1461017b578063abd203d414610199578063cf26defa146101b5576100cd565b80633cc0146d146100d157806347533b07146101015780636af888111461011d578063715018a6146101395780637dc9e79b14610143578063806204111461015f575b5f80fd5b6100eb60048036038101906100e69190610ec8565b610269565b6040516100f891906110a4565b60405180910390f35b61011b60048036038101906101169190610ec8565b610502565b005b61013760048036038101906101329190610ec8565b6105b7565b005b61014161066a565b005b61015d600480360381019061015891906110ee565b61067d565b005b61017960048036038101906101749190610ec8565b6107a5565b005b610183610804565b6040516101909190611128565b60405180910390f35b6101b360048036038101906101ae9190610ec8565b61082b565b005b6101cf60048036038101906101ca919061126d565b61088b565b005b6101eb60048036038101906101e691906110ee565b610a85565b6040516101f89190611128565b60405180910390f35b61021b600480360381019061021691906112f5565b610abe565b005b61023760048036038101906102329190610ec8565b610bd4565b005b610253600480360381019061024e9190610ec8565b610c56565b6040516102609190611342565b60405180910390f35b60605f60025f9054906101000a900473ffffffffffffffffffffffffffffffffffffffff1673ffffffffffffffffffffffffffffffffffffffff166370a08231846040518263ffffffff1660e01b81526004016102c69190611128565b602060405180830381865afa1580156102e1573d5f803e3d5ffd5b505050506040513d601f19601f82011682018060405250810190610305919061136f565b90505f8167ffffffffffffffff81111561032257610321611149565b5b60405190808252806020026020018201604052801561035b57816020015b610348610e3d565b8152602001906001900390816103405790505b5090505f5b828110156104f7575f60025f9054906101000a900473ffffffffffffffffffffffffffffffffffffffff1673ffffffffffffffffffffffffffffffffffffffff16632f745c5987846040518363ffffffff1660e01b81526004016103c592919061139a565b602060405180830381865afa1580156103e0573d5f803e3d5ffd5b505050506040513d601f19601f82011682018060405250810190610404919061136f565b90505f8060025f9054906101000a900473ffffffffffffffffffffffffffffffffffffffff1673ffffffffffffffffffffffffffffffffffffffff1663a901fe5e846040518263ffffffff1660e01b81526004016104629190611342565b5f60405180830381865afa15801561047c573d5f803e3d5ffd5b505050506040513d5f823e3d601f19601f820116820180604052508101906104a4919061142f565b915091506040518060600160405280848152602001838152602001828152508585815181106104d6576104d56114a5565b5b602002602001018190525050505080806104ef906114ff565b915050610360565b508092505050919050565b61050a610cf7565b600160035f8373ffffffffffffffffffffffffffffffffffffffff1673ffffffffffffffffffffffffffffffffffffffff1681526020019081526020015f205f6101000a81548160ff021916908315150217905550600160045f8373ffffffffffffffffffffffffffffffffffffffff1673ffffffffffffffffffffffffffffffffffffffff1681526020019081526020015f205f6101000a81548160ff02191690831515021790555050565b6105bf610cf7565b5f60035f8373ffffffffffffffffffffffffffffffffffffffff1673ffffffffffffffffffffffffffffffffffffffff1681526020019081526020015f205f6101000a81548160ff0219169083151502179055505f60045f8373ffffffffffffffffffffffffffffffffffffffff1673ffffffffffffffffffffffffffffffffffffffff1681526020019081526020015f205f6101000a81548160ff02191690831515021790555050565b610672610cf7565b61067b5f610d75565b565b3373ffffffffffffffffffffffffffffffffffffffff1660055f8381526020019081526020015f205f9054906101000a900473ffffffffffffffffffffffffffffffffffffffff1673ffffffffffffffffffffffffffffffffffffffff161461071b576040517f08c379a0000000000000000000000000000000000000000000000000000000008152600401610712906115ec565b60405180910390fd5b60025f9054906101000a900473ffffffffffffffffffffffffffffffffffffffff1673ffffffffffffffffffffffffffffffffffffffff166342966c68826040518263ffffffff1660e01b81526004016107759190611342565b5f604051808303815f87803b15801561078c575f80fd5b505af115801561079e573d5f803e3d5ffd5b5050505050565b6107ad610cf7565b5f60045f8373ffffffffffffffffffffffffffffffffffffffff1673ffffffffffffffffffffffffffffffffffffffff1681526020019081526020015f205f6101000a81548160ff02191690831515021790555050565b5f805f9054906101000a900473ffffffffffffffffffffffffffffffffffffffff16905090565b610833610cf7565b600160045f8373ffffffffffffffffffffffffffffffffffffffff1673ffffffffffffffffffffffffffffffffffffffff1681526020019081526020015f205f6101000a81548160ff02191690831515021790555050565b60045f3373ffffffffffffffffffffffffffffffffffffffff1673ffffffffffffffffffffffffffffffffffffffff1681526020019081526020015f205f9054906101000a900460ff16610914576040517f08c379a000000000000000000000000000000000000000000000000000000000815260040161090b9061167a565b60405180910390fd5b60025f9054906101000a900473ffffffffffffffffffffffffffffffffffffffff1673ffffffffffffffffffffffffffffffffffffffff1663990711908484846040518463ffffffff1660e01b8152600401610972939291906116d0565b5f604051808303815f87803b158015610989575f80fd5b505af115801561099b573d5f803e3d5ffd5b505050505f60025f9054906101000a900473ffffffffffffffffffffffffffffffffffffffff1673ffffffffffffffffffffffffffffffffffffffff1663561892366040518163ffffffff1660e01b8152600401602060405180830381865afa158015610a0a573d5f803e3d5ffd5b505050506040513d601f19601f82011682018060405250810190610a2e919061136f565b90503360055f8381526020019081526020015f205f6101000a81548173ffffffffffffffffffffffffffffffffffffffff021916908373ffffffffffffffffffffffffffffffffffffffff16021790555050505050565b5f60055f8381526020019081526020015f205f9054906101000a900473ffffffffffffffffffffffffffffffffffffffff169050919050565b60035f3373ffffffffffffffffffffffffffffffffffffffff1673ffffffffffffffffffffffffffffffffffffffff1681526020019081526020015f205f9054906101000a900460ff16610b47576040517f08c379a0000000000000000000000000000000000000000000000000000000008152600401610b3e9061175d565b60405180910390fd5b60015f9054906101000a900473ffffffffffffffffffffffffffffffffffffffff1673ffffffffffffffffffffffffffffffffffffffff1663d15b396583836040518363ffffffff1660e01b8152600401610ba392919061139a565b5f604051808303815f87803b158015610bba575f80fd5b505af1158015610bcc573d5f803e3d5ffd5b505050505050565b610bdc610cf7565b5f73ffffffffffffffffffffffffffffffffffffffff168173ffffffffffffffffffffffffffffffffffffffff1603610c4a576040517f08c379a0000000000000000000000000000000000000000000000000000000008152600401610c41906117eb565b60405180910390fd5b610c5381610d75565b50565b5f60015f9054906101000a900473ffffffffffffffffffffffffffffffffffffffff1673ffffffffffffffffffffffffffffffffffffffff166370a08231836040518263ffffffff1660e01b8152600401610cb19190611128565b602060405180830381865afa158015610ccc573d5f803e3d5ffd5b505050506040513d601f19601f82011682018060405250810190610cf0919061136f565b9050919050565b610cff610e36565b73ffffffffffffffffffffffffffffffffffffffff16610d1d610804565b73ffffffffffffffffffffffffffffffffffffffff1614610d73576040517f08c379a0000000000000000000000000000000000000000000000000000000008152600401610d6a90611853565b60405180910390fd5b565b5f805f9054906101000a900473ffffffffffffffffffffffffffffffffffffffff169050815f806101000a81548173ffffffffffffffffffffffffffffffffffffffff021916908373ffffffffffffffffffffffffffffffffffffffff1602179055508173ffffffffffffffffffffffffffffffffffffffff168173ffffffffffffffffffffffffffffffffffffffff167f8be0079c531659141344cd1fd0a4f28419497f9722a3daafe3b4186f6b6457e060405160405180910390a35050565b5f33905090565b60405180606001604052805f815260200160608152602001606081525090565b5f604051905090565b5f80fd5b5f80fd5b5f73ffffffffffffffffffffffffffffffffffffffff82169050919050565b5f610e9782610e6e565b9050919050565b610ea781610e8d565b8114610eb1575f80fd5b50565b5f81359050610ec281610e9e565b92915050565b5f60208284031215610edd57610edc610e66565b5b5f610eea84828501610eb4565b91505092915050565b5f81519050919050565b5f82825260208201905092915050565b5f819050602082019050919050565b5f819050919050565b610f2e81610f1c565b82525050565b5f81519050919050565b5f82825260208201905092915050565b5f5b83811015610f6b578082015181840152602081019050610f50565b5f8484015250505050565b5f601f19601f8301169050919050565b5f610f9082610f34565b610f9a8185610f3e565b9350610faa818560208601610f4e565b610fb381610f76565b840191505092915050565b5f606083015f830151610fd35f860182610f25565b5060208301518482036020860152610feb8282610f86565b915050604083015184820360408601526110058282610f86565b9150508091505092915050565b5f61101d8383610fbe565b905092915050565b5f602082019050919050565b5f61103b82610ef3565b6110458185610efd565b93508360208202850161105785610f0d565b805f5b8581101561109257848403895281516110738582611012565b945061107e83611025565b925060208a0199505060018101905061105a565b50829750879550505050505092915050565b5f6020820190508181035f8301526110bc8184611031565b905092915050565b6110cd81610f1c565b81146110d7575f80fd5b50565b5f813590506110e8816110c4565b92915050565b5f6020828403121561110357611102610e66565b5b5f611110848285016110da565b91505092915050565b61112281610e8d565b82525050565b5f60208201905061113b5f830184611119565b92915050565b5f80fd5b5f80fd5b7f4e487b71000000000000000000000000000000000000000000000000000000005f52604160045260245ffd5b61117f82610f76565b810181811067ffffffffffffffff8211171561119e5761119d611149565b5b80604052505050565b5f6111b0610e5d565b90506111bc8282611176565b919050565b5f67ffffffffffffffff8211156111db576111da611149565b5b6111e482610f76565b9050602081019050919050565b828183375f83830152505050565b5f61121161120c846111c1565b6111a7565b90508281526020810184848401111561122d5761122c611145565b5b6112388482856111f1565b509392505050565b5f82601f83011261125457611253611141565b5b81356112648482602086016111ff565b91505092915050565b5f805f6060848603121561128457611283610e66565b5b5f61129186828701610eb4565b935050602084013567ffffffffffffffff8111156112b2576112b1610e6a565b5b6112be86828701611240565b925050604084013567ffffffffffffffff8111156112df576112de610e6a565b5b6112eb86828701611240565b9150509250925092565b5f806040838503121561130b5761130a610e66565b5b5f61131885828601610eb4565b9250506020611329858286016110da565b9150509250929050565b61133c81610f1c565b82525050565b5f6020820190506113555f830184611333565b92915050565b5f81519050611369816110c4565b92915050565b5f6020828403121561138457611383610e66565b5b5f6113918482850161135b565b91505092915050565b5f6040820190506113ad5f830185611119565b6113ba6020830184611333565b9392505050565b5f6113d36113ce846111c1565b6111a7565b9050828152602081018484840111156113ef576113ee611145565b5b6113fa848285610f4e565b509392505050565b5f82601f83011261141657611415611141565b5b81516114268482602086016113c1565b91505092915050565b5f806040838503121561144557611444610e66565b5b5f83015167ffffffffffffffff81111561146257611461610e6a565b5b61146e85828601611402565b925050602083015167ffffffffffffffff81111561148f5761148e610e6a565b5b61149b85828601611402565b9150509250929050565b7f4e487b71000000000000000000000000000000000000000000000000000000005f52603260045260245ffd5b7f4e487b71000000000000000000000000000000000000000000000000000000005f52601160045260245ffd5b5f61150982610f1c565b91507fffffffffffffffffffffffffffffffffffffffffffffffffffffffffffffffff820361153b5761153a6114d2565b5b600182019050919050565b5f82825260208201905092915050565b7f4f6e6c792074686520756e69766572736974792f696e737469747574652074685f8201527f6174206d696e7465642074686520746f6b656e2063616e207265766f6b65206960208201527f742e000000000000000000000000000000000000000000000000000000000000604082015250565b5f6115d6604283611546565b91506115e182611556565b606082019050919050565b5f6020820190508181035f830152611603816115ca565b9050919050565b7f4e6f7420616e20617574686f72697a65642043657274696669636174696f6e205f8201527f656e746974790000000000000000000000000000000000000000000000000000602082015250565b5f611664602683611546565b915061166f8261160a565b604082019050919050565b5f6020820190508181035f83015261169181611658565b9050919050565b5f6116a282610f34565b6116ac8185611546565b93506116bc818560208601610f4e565b6116c581610f76565b840191505092915050565b5f6060820190506116e35f830186611119565b81810360208301526116f58185611698565b905081810360408301526117098184611698565b9050949350505050565b7f4e6f7420616e20617574686f72697a656420556e6976657273697479000000005f82015250565b5f611747601c83611546565b915061175282611713565b602082019050919050565b5f6020820190508181035f8301526117748161173b565b9050919050565b7f4f776e61626c653a206e6577206f776e657220697320746865207a65726f20615f8201527f6464726573730000000000000000000000000000000000000000000000000000602082015250565b5f6117d5602683611546565b91506117e08261177b565b604082019050919050565b5f6020820190508181035f830152611802816117c9565b9050919050565b7f4f776e61626c653a2063616c6c6572206973206e6f7420746865206f776e65725f82015250565b5f61183d602083611546565b915061184882611809565b602082019050919050565b5f6020820190508181035f83015261186a81611831565b905091905056fea2646970667358221220d2b043eadd90ccfb9b052aeb25a72168d41686cee9c44be3f00fddfab81617c864736f6c63430008140033",
  "immutableReferences": {},
  "source": "// SPDX-License-Identifier: UNLICENSED\r\npragma solidity ^0.8.20;\r\n\r\nimport \"./ERC20.sol\";\r\nimport \"./ERC721.sol\";\r\nimport \"@openzeppelin/contracts/access/Ownable.sol\";\r\n\r\ncontract UniversityToken is Ownable {\r\n    GPAToken private _gpaToken;\r\n    DiplomaCertificate private _diplomaCertificate;\r\n\r\n    mapping(address => bool) private _trustedUniversities;\r\n    mapping(address => bool) private _trustedCertificationEntities;\r\n    mapping(uint256 => address) private tokenMinters;\r\n    \r\n    struct CertificateData {\r\n        uint256 tokenId;\r\n        string description;\r\n        string dateIssued;\r\n    }\r\n\r\n    modifier onlyTrustedUniversities() {\r\n        require(_trustedUniversities[msg.sender], \"Not an authorized University\");\r\n        _;\r\n    }\r\n    modifier onlyCertificationEntities() {\r\n        require(_trustedCertificationEntities[msg.sender], \"Not an authorized Certification entity\");\r\n        _;\r\n    }\r\n\r\n    constructor(address gpaTokenAddress, address diplomaCertificateAddress){\r\n        _gpaToken = GPAToken(gpaTokenAddress);\r\n        _diplomaCertificate = DiplomaCertificate(diplomaCertificateAddress);\r\n    }\r\n\r\n    function addTrustedUniversity(address universityAddress) external onlyOwner {\r\n        _trustedUniversities[universityAddress] = true;\r\n        _trustedCertificationEntities[universityAddress] = true;\r\n    }\r\n\r\n    function removeTrustedUniversity(address universityAddress) external onlyOwner {\r\n        _trustedUniversities[universityAddress] = false;\r\n        _trustedCertificationEntities[universityAddress] = false;\r\n    }\r\n\r\n    function addTrustedCertificateEntities(address certificateEntityAddress) external onlyOwner {\r\n        _trustedCertificationEntities[certificateEntityAddress] = true;\r\n    }\r\n    function removeTrustedCertificateEntities(address certificateEntityAddress) external onlyOwner {\r\n        _trustedCertificationEntities[certificateEntityAddress] = false;\r\n    }\r\n    //can only be called by universities\r\n    function setGPA(address student, uint256 newGPA) external onlyTrustedUniversities{\r\n        _gpaToken.setGPA(student, newGPA);\r\n    }\r\n    //mint's certification or DIPLOMA. can be called by universities or other trusted certifiers\r\n    function mintCertification(address student, string memory description, string memory dateIssued) external onlyCertificationEntities{\r\n        _diplomaCertificate.mint(student, description, dateIssued);\r\n        uint256 newTokenId = _diplomaCertificate.getCurrentTokenId(); // Assuming the token ID is sequential and based on totalSupply\r\n        tokenMinters[newTokenId] = msg.sender;\r\n    }\r\n\r\n    // Function to get the university that minted a specific token.\r\n    function getTokenMinter(uint256 tokenId) external view returns (address) {\r\n        return tokenMinters[tokenId];\r\n    }\r\n        // Function to allow a university to revoke (burn) a token they minted.\r\n    function revokeToken(uint256 tokenId) external {\r\n        require(tokenMinters[tokenId] == msg.sender, \"Only the university/institute that minted the token can revoke it.\");\r\n        _diplomaCertificate.burn(tokenId); // Assuming a burn function exists in the DiplomaCertificate contract.\r\n    }\r\n    //anyone can view the gpa of a student if student gives address\r\n    function getGPAOf(address student) external view returns (uint256) {\r\n        return _gpaToken.balanceOf(student); \r\n    }\r\n    //anyone can view the certificates of the student if student gives address\r\n    function getCertificatesOf(address owner) external view returns (CertificateData[] memory) {\r\n        uint256 tokenCount = _diplomaCertificate.balanceOf(owner);\r\n        CertificateData[] memory certificates = new CertificateData[](tokenCount);\r\n\r\n        for (uint256 i = 0; i < tokenCount; i++) {\r\n            uint256 tokenId = _diplomaCertificate.tokenOfOwnerByIndex(owner, i);\r\n            (string memory description, string memory dateIssued) = _diplomaCertificate.getCertificateDetails(tokenId);\r\n        \r\n            certificates[i] = CertificateData({\r\n                tokenId: tokenId,\r\n                description: description,\r\n                dateIssued: dateIssued\r\n            });\r\n        }\r\n\r\n        return certificates;\r\n    }\r\n\r\n}",
  "sourcePath": "C:\\Users\\Stefan\\Documents\\Blockchains Project\\EduBlockchain\\project-contract\\contracts\\ERC1155.sol",
  "compiler": {
    "name": "solc",
    "version": "0.8.20+commit.a1b79de6.Emscripten.clang"
  },
  "schemaVersion": "3.4.16",
  "updatedAt": "2023-11-15T22:07:24.488Z",
  "devdoc": {
    "kind": "dev",
    "methods": {
      "owner()": {
        "details": "Returns the address of the current owner."
      },
      "renounceOwnership()": {
        "details": "Leaves the contract without owner. It will not be possible to call `onlyOwner` functions. Can only be called by the current owner. NOTE: Renouncing ownership will leave the contract without an owner, thereby disabling any functionality that is only available to the owner."
      },
      "transferOwnership(address)": {
        "details": "Transfers ownership of the contract to a new account (`newOwner`). Can only be called by the current owner."
      }
    },
    "version": 1
  },
  "userdoc": {
    "kind": "user",
    "methods": {},
    "version": 1
  }
}