{
  "contractName": "UniversityToken",
  "abi": [
    {
      "inputs": [
        {
          "internalType": "address",
          "name": "gpaTokenAddress",
          "type": "address"
        },
        {
          "internalType": "address",
          "name": "diplomaCertificateAddress",
          "type": "address"
        }
      ],
      "stateMutability": "nonpayable",
      "type": "constructor"
    },
    {
      "anonymous": false,
      "inputs": [
        {
          "indexed": true,
          "internalType": "address",
          "name": "previousOwner",
          "type": "address"
        },
        {
          "indexed": true,
          "internalType": "address",
          "name": "newOwner",
          "type": "address"
        }
      ],
      "name": "OwnershipTransferred",
      "type": "event"
    },
    {
      "inputs": [],
      "name": "owner",
      "outputs": [
        {
          "internalType": "address",
          "name": "",
          "type": "address"
        }
      ],
      "stateMutability": "view",
      "type": "function",
      "constant": true
    },
    {
      "inputs": [],
      "name": "renounceOwnership",
      "outputs": [],
      "stateMutability": "nonpayable",
      "type": "function"
    },
    {
      "inputs": [
        {
          "internalType": "address",
          "name": "newOwner",
          "type": "address"
        }
      ],
      "name": "transferOwnership",
      "outputs": [],
      "stateMutability": "nonpayable",
      "type": "function"
    },
    {
      "inputs": [],
      "name": "getGpaTokenAddress",
      "outputs": [
        {
          "internalType": "address",
          "name": "",
          "type": "address"
        }
      ],
      "stateMutability": "view",
      "type": "function",
      "constant": true
    },
    {
      "inputs": [],
      "name": "getDiplomaCertificateAddress",
      "outputs": [
        {
          "internalType": "address",
          "name": "",
          "type": "address"
        }
      ],
      "stateMutability": "view",
      "type": "function",
      "constant": true
    },
    {
      "inputs": [
        {
          "internalType": "address",
          "name": "universityAddress",
          "type": "address"
        }
      ],
      "name": "addTrustedUniversity",
      "outputs": [],
      "stateMutability": "nonpayable",
      "type": "function"
    },
    {
      "inputs": [
        {
          "internalType": "address",
          "name": "universityAddress",
          "type": "address"
        }
      ],
      "name": "removeTrustedUniversity",
      "outputs": [],
      "stateMutability": "nonpayable",
      "type": "function"
    },
    {
      "inputs": [
        {
          "internalType": "address",
          "name": "certificateEntityAddress",
          "type": "address"
        }
      ],
      "name": "addTrustedCertificateEntities",
      "outputs": [],
      "stateMutability": "nonpayable",
      "type": "function"
    },
    {
      "inputs": [
        {
          "internalType": "address",
          "name": "certificateEntityAddress",
          "type": "address"
        }
      ],
      "name": "removeTrustedCertificateEntities",
      "outputs": [],
      "stateMutability": "nonpayable",
      "type": "function"
    },
    {
      "inputs": [
        {
          "internalType": "address",
          "name": "student",
          "type": "address"
        },
        {
          "internalType": "uint256",
          "name": "newGPA",
          "type": "uint256"
        }
      ],
      "name": "setGPA",
      "outputs": [],
      "stateMutability": "nonpayable",
      "type": "function"
    },
    {
      "inputs": [
        {
          "internalType": "address",
          "name": "student",
          "type": "address"
        },
        {
          "internalType": "string",
          "name": "description",
          "type": "string"
        },
        {
          "internalType": "string",
          "name": "dateIssued",
          "type": "string"
        }
      ],
      "name": "mintCertification",
      "outputs": [],
      "stateMutability": "nonpayable",
      "type": "function"
    },
    {
      "inputs": [
        {
          "internalType": "uint256",
          "name": "tokenId",
          "type": "uint256"
        }
      ],
      "name": "getTokenMinter",
      "outputs": [
        {
          "internalType": "address",
          "name": "",
          "type": "address"
        }
      ],
      "stateMutability": "view",
      "type": "function",
      "constant": true
    },
    {
      "inputs": [
        {
          "internalType": "uint256",
          "name": "tokenId",
          "type": "uint256"
        }
      ],
      "name": "revokeToken",
      "outputs": [],
      "stateMutability": "nonpayable",
      "type": "function"
    },
    {
      "inputs": [
        {
          "internalType": "address",
          "name": "student",
          "type": "address"
        }
      ],
      "name": "getGPAOf",
      "outputs": [
        {
          "internalType": "uint256",
          "name": "",
          "type": "uint256"
        }
      ],
      "stateMutability": "view",
      "type": "function",
      "constant": true
    },
    {
      "inputs": [
        {
          "internalType": "address",
          "name": "owner",
          "type": "address"
        }
      ],
      "name": "getCertificatesOf",
      "outputs": [
        {
          "components": [
            {
              "internalType": "uint256",
              "name": "tokenId",
              "type": "uint256"
            },
            {
              "internalType": "string",
              "name": "description",
              "type": "string"
            },
            {
              "internalType": "string",
              "name": "dateIssued",
              "type": "string"
            }
          ],
          "internalType": "struct UniversityToken.CertificateData[]",
          "name": "",
          "type": "tuple[]"
        }
      ],
      "stateMutability": "view",
      "type": "function",
      "constant": true
    }
  ],
  "bytecode": "0x60806040523480156200001157600080fd5b5060405162001c7e38038062001c7e833981810160405281019062000037919062000217565b620000576200004b620000e160201b60201c565b620000e960201b60201c565b81600160006101000a81548173ffffffffffffffffffffffffffffffffffffffff021916908373ffffffffffffffffffffffffffffffffffffffff16021790555080600260006101000a81548173ffffffffffffffffffffffffffffffffffffffff021916908373ffffffffffffffffffffffffffffffffffffffff16021790555050506200025e565b600033905090565b60008060009054906101000a900473ffffffffffffffffffffffffffffffffffffffff169050816000806101000a81548173ffffffffffffffffffffffffffffffffffffffff021916908373ffffffffffffffffffffffffffffffffffffffff1602179055508173ffffffffffffffffffffffffffffffffffffffff168173ffffffffffffffffffffffffffffffffffffffff167f8be0079c531659141344cd1fd0a4f28419497f9722a3daafe3b4186f6b6457e060405160405180910390a35050565b600080fd5b600073ffffffffffffffffffffffffffffffffffffffff82169050919050565b6000620001df82620001b2565b9050919050565b620001f181620001d2565b8114620001fd57600080fd5b50565b6000815190506200021181620001e6565b92915050565b60008060408385031215620002315762000230620001ad565b5b6000620002418582860162000200565b9250506020620002548582860162000200565b9150509250929050565b611a10806200026e6000396000f3fe608060405234801561001057600080fd5b50600436106100f55760003560e01c80638da5cb5b11610097578063d0e4f39611610066578063d0e4f39614610236578063d15b396514610266578063f2fde38b14610282578063f6da683d1461029e576100f5565b80638da5cb5b146101c25780639849070d146101e0578063abd203d4146101fe578063cf26defa1461021a576100f5565b8063715018a6116100d3578063715018a6146101625780637dc9e79b1461016c578063806204111461018857806383af5707146101a4576100f5565b80633cc0146d146100fa57806347533b071461012a5780636af8881114610146575b600080fd5b610114600480360381019061010f9190610fe0565b6102ce565b60405161012191906111cf565b60405180910390f35b610144600480360381019061013f9190610fe0565b610577565b005b610160600480360381019061015b9190610fe0565b610632565b005b61016a6106ed565b005b6101866004803603810190610181919061121d565b610701565b005b6101a2600480360381019061019d9190610fe0565b610832565b005b6101ac610895565b6040516101b99190611259565b60405180910390f35b6101ca6108bf565b6040516101d79190611259565b60405180910390f35b6101e86108e8565b6040516101f59190611259565b60405180910390f35b61021860048036038101906102139190610fe0565b610912565b005b610234600480360381019061022f91906113a9565b610975565b005b610250600480360381019061024b919061121d565b610b7f565b60405161025d9190611259565b60405180910390f35b610280600480360381019061027b9190611434565b610bbc565b005b61029c60048036038101906102979190610fe0565b610cdb565b005b6102b860048036038101906102b39190610fe0565b610d5e565b6040516102c59190611483565b60405180910390f35b60606000600260009054906101000a900473ffffffffffffffffffffffffffffffffffffffff1673ffffffffffffffffffffffffffffffffffffffff166370a08231846040518263ffffffff1660e01b815260040161032d9190611259565b602060405180830381865afa15801561034a573d6000803e3d6000fd5b505050506040513d601f19601f8201168201806040525081019061036e91906114b3565b905060008167ffffffffffffffff81111561038c5761038b61127e565b5b6040519080825280602002602001820160405280156103c557816020015b6103b2610f4d565b8152602001906001900390816103aa5790505b50905060005b8281101561056c576000600260009054906101000a900473ffffffffffffffffffffffffffffffffffffffff1673ffffffffffffffffffffffffffffffffffffffff16632f745c5987846040518363ffffffff1660e01b81526004016104329291906114e0565b602060405180830381865afa15801561044f573d6000803e3d6000fd5b505050506040513d601f19601f8201168201806040525081019061047391906114b3565b9050600080600260009054906101000a900473ffffffffffffffffffffffffffffffffffffffff1673ffffffffffffffffffffffffffffffffffffffff1663a901fe5e846040518263ffffffff1660e01b81526004016104d39190611483565b600060405180830381865afa1580156104f0573d6000803e3d6000fd5b505050506040513d6000823e3d601f19601f820116820180604052508101906105199190611579565b9150915060405180606001604052808481526020018381526020018281525085858151811061054b5761054a6115f1565b5b602002602001018190525050505080806105649061164f565b9150506103cb565b508092505050919050565b61057f610e03565b6001600360008373ffffffffffffffffffffffffffffffffffffffff1673ffffffffffffffffffffffffffffffffffffffff16815260200190815260200160002060006101000a81548160ff0219169083151502179055506001600460008373ffffffffffffffffffffffffffffffffffffffff1673ffffffffffffffffffffffffffffffffffffffff16815260200190815260200160002060006101000a81548160ff02191690831515021790555050565b61063a610e03565b6000600360008373ffffffffffffffffffffffffffffffffffffffff1673ffffffffffffffffffffffffffffffffffffffff16815260200190815260200160002060006101000a81548160ff0219169083151502179055506000600460008373ffffffffffffffffffffffffffffffffffffffff1673ffffffffffffffffffffffffffffffffffffffff16815260200190815260200160002060006101000a81548160ff02191690831515021790555050565b6106f5610e03565b6106ff6000610e81565b565b3373ffffffffffffffffffffffffffffffffffffffff166005600083815260200190815260200160002060009054906101000a900473ffffffffffffffffffffffffffffffffffffffff1673ffffffffffffffffffffffffffffffffffffffff16146107a2576040517f08c379a000000000000000000000000000000000000000000000000000000000815260040161079990611740565b60405180910390fd5b600260009054906101000a900473ffffffffffffffffffffffffffffffffffffffff1673ffffffffffffffffffffffffffffffffffffffff166342966c68826040518263ffffffff1660e01b81526004016107fd9190611483565b600060405180830381600087803b15801561081757600080fd5b505af115801561082b573d6000803e3d6000fd5b5050505050565b61083a610e03565b6000600460008373ffffffffffffffffffffffffffffffffffffffff1673ffffffffffffffffffffffffffffffffffffffff16815260200190815260200160002060006101000a81548160ff02191690831515021790555050565b6000600160009054906101000a900473ffffffffffffffffffffffffffffffffffffffff16905090565b60008060009054906101000a900473ffffffffffffffffffffffffffffffffffffffff16905090565b6000600260009054906101000a900473ffffffffffffffffffffffffffffffffffffffff16905090565b61091a610e03565b6001600460008373ffffffffffffffffffffffffffffffffffffffff1673ffffffffffffffffffffffffffffffffffffffff16815260200190815260200160002060006101000a81548160ff02191690831515021790555050565b600460003373ffffffffffffffffffffffffffffffffffffffff1673ffffffffffffffffffffffffffffffffffffffff16815260200190815260200160002060009054906101000a900460ff16610a01576040517f08c379a00000000000000000000000000000000000000000000000000000000081526004016109f8906117d2565b60405180910390fd5b600260009054906101000a900473ffffffffffffffffffffffffffffffffffffffff1673ffffffffffffffffffffffffffffffffffffffff1663990711908484846040518463ffffffff1660e01b8152600401610a609392919061182b565b600060405180830381600087803b158015610a7a57600080fd5b505af1158015610a8e573d6000803e3d6000fd5b505050506000600260009054906101000a900473ffffffffffffffffffffffffffffffffffffffff1673ffffffffffffffffffffffffffffffffffffffff1663561892366040518163ffffffff1660e01b8152600401602060405180830381865afa158015610b01573d6000803e3d6000fd5b505050506040513d601f19601f82011682018060405250810190610b2591906114b3565b9050336005600083815260200190815260200160002060006101000a81548173ffffffffffffffffffffffffffffffffffffffff021916908373ffffffffffffffffffffffffffffffffffffffff16021790555050505050565b60006005600083815260200190815260200160002060009054906101000a900473ffffffffffffffffffffffffffffffffffffffff169050919050565b600360003373ffffffffffffffffffffffffffffffffffffffff1673ffffffffffffffffffffffffffffffffffffffff16815260200190815260200160002060009054906101000a900460ff16610c48576040517f08c379a0000000000000000000000000000000000000000000000000000000008152600401610c3f906118bc565b60405180910390fd5b600160009054906101000a900473ffffffffffffffffffffffffffffffffffffffff1673ffffffffffffffffffffffffffffffffffffffff1663d15b396583836040518363ffffffff1660e01b8152600401610ca59291906114e0565b600060405180830381600087803b158015610cbf57600080fd5b505af1158015610cd3573d6000803e3d6000fd5b505050505050565b610ce3610e03565b600073ffffffffffffffffffffffffffffffffffffffff168173ffffffffffffffffffffffffffffffffffffffff1603610d52576040517f08c379a0000000000000000000000000000000000000000000000000000000008152600401610d499061194e565b60405180910390fd5b610d5b81610e81565b50565b6000600160009054906101000a900473ffffffffffffffffffffffffffffffffffffffff1673ffffffffffffffffffffffffffffffffffffffff166370a08231836040518263ffffffff1660e01b8152600401610dbb9190611259565b602060405180830381865afa158015610dd8573d6000803e3d6000fd5b505050506040513d601f19601f82011682018060405250810190610dfc91906114b3565b9050919050565b610e0b610f45565b73ffffffffffffffffffffffffffffffffffffffff16610e296108bf565b73ffffffffffffffffffffffffffffffffffffffff1614610e7f576040517f08c379a0000000000000000000000000000000000000000000000000000000008152600401610e76906119ba565b60405180910390fd5b565b60008060009054906101000a900473ffffffffffffffffffffffffffffffffffffffff169050816000806101000a81548173ffffffffffffffffffffffffffffffffffffffff021916908373ffffffffffffffffffffffffffffffffffffffff1602179055508173ffffffffffffffffffffffffffffffffffffffff168173ffffffffffffffffffffffffffffffffffffffff167f8be0079c531659141344cd1fd0a4f28419497f9722a3daafe3b4186f6b6457e060405160405180910390a35050565b600033905090565b60405180606001604052806000815260200160608152602001606081525090565b6000604051905090565b600080fd5b600080fd5b600073ffffffffffffffffffffffffffffffffffffffff82169050919050565b6000610fad82610f82565b9050919050565b610fbd81610fa2565b8114610fc857600080fd5b50565b600081359050610fda81610fb4565b92915050565b600060208284031215610ff657610ff5610f78565b5b600061100484828501610fcb565b91505092915050565b600081519050919050565b600082825260208201905092915050565b6000819050602082019050919050565b6000819050919050565b61104c81611039565b82525050565b600081519050919050565b600082825260208201905092915050565b60005b8381101561108c578082015181840152602081019050611071565b60008484015250505050565b6000601f19601f8301169050919050565b60006110b482611052565b6110be818561105d565b93506110ce81856020860161106e565b6110d781611098565b840191505092915050565b60006060830160008301516110fa6000860182611043565b506020830151848203602086015261111282826110a9565b9150506040830151848203604086015261112c82826110a9565b9150508091505092915050565b600061114583836110e2565b905092915050565b6000602082019050919050565b60006111658261100d565b61116f8185611018565b93508360208202850161118185611029565b8060005b858110156111bd578484038952815161119e8582611139565b94506111a98361114d565b925060208a01995050600181019050611185565b50829750879550505050505092915050565b600060208201905081810360008301526111e9818461115a565b905092915050565b6111fa81611039565b811461120557600080fd5b50565b600081359050611217816111f1565b92915050565b60006020828403121561123357611232610f78565b5b600061124184828501611208565b91505092915050565b61125381610fa2565b82525050565b600060208201905061126e600083018461124a565b92915050565b600080fd5b600080fd5b7f4e487b7100000000000000000000000000000000000000000000000000000000600052604160045260246000fd5b6112b682611098565b810181811067ffffffffffffffff821117156112d5576112d461127e565b5b80604052505050565b60006112e8610f6e565b90506112f482826112ad565b919050565b600067ffffffffffffffff8211156113145761131361127e565b5b61131d82611098565b9050602081019050919050565b82818337600083830152505050565b600061134c611347846112f9565b6112de565b90508281526020810184848401111561136857611367611279565b5b61137384828561132a565b509392505050565b600082601f8301126113905761138f611274565b5b81356113a0848260208601611339565b91505092915050565b6000806000606084860312156113c2576113c1610f78565b5b60006113d086828701610fcb565b935050602084013567ffffffffffffffff8111156113f1576113f0610f7d565b5b6113fd8682870161137b565b925050604084013567ffffffffffffffff81111561141e5761141d610f7d565b5b61142a8682870161137b565b9150509250925092565b6000806040838503121561144b5761144a610f78565b5b600061145985828601610fcb565b925050602061146a85828601611208565b9150509250929050565b61147d81611039565b82525050565b60006020820190506114986000830184611474565b92915050565b6000815190506114ad816111f1565b92915050565b6000602082840312156114c9576114c8610f78565b5b60006114d78482850161149e565b91505092915050565b60006040820190506114f5600083018561124a565b6115026020830184611474565b9392505050565b600061151c611517846112f9565b6112de565b90508281526020810184848401111561153857611537611279565b5b61154384828561106e565b509392505050565b600082601f8301126115605761155f611274565b5b8151611570848260208601611509565b91505092915050565b600080604083850312156115905761158f610f78565b5b600083015167ffffffffffffffff8111156115ae576115ad610f7d565b5b6115ba8582860161154b565b925050602083015167ffffffffffffffff8111156115db576115da610f7d565b5b6115e78582860161154b565b9150509250929050565b7f4e487b7100000000000000000000000000000000000000000000000000000000600052603260045260246000fd5b7f4e487b7100000000000000000000000000000000000000000000000000000000600052601160045260246000fd5b600061165a82611039565b91507fffffffffffffffffffffffffffffffffffffffffffffffffffffffffffffffff820361168c5761168b611620565b5b600182019050919050565b600082825260208201905092915050565b7f4f6e6c792074686520756e69766572736974792f696e7374697475746520746860008201527f6174206d696e7465642074686520746f6b656e2063616e207265766f6b65206960208201527f742e000000000000000000000000000000000000000000000000000000000000604082015250565b600061172a604283611697565b9150611735826116a8565b606082019050919050565b600060208201905081810360008301526117598161171d565b9050919050565b7f4e6f7420616e20617574686f72697a65642043657274696669636174696f6e2060008201527f656e746974790000000000000000000000000000000000000000000000000000602082015250565b60006117bc602683611697565b91506117c782611760565b604082019050919050565b600060208201905081810360008301526117eb816117af565b9050919050565b60006117fd82611052565b6118078185611697565b935061181781856020860161106e565b61182081611098565b840191505092915050565b6000606082019050611840600083018661124a565b818103602083015261185281856117f2565b9050818103604083015261186681846117f2565b9050949350505050565b7f4e6f7420616e20617574686f72697a656420556e697665727369747900000000600082015250565b60006118a6601c83611697565b91506118b182611870565b602082019050919050565b600060208201905081810360008301526118d581611899565b9050919050565b7f4f776e61626c653a206e6577206f776e657220697320746865207a65726f206160008201527f6464726573730000000000000000000000000000000000000000000000000000602082015250565b6000611938602683611697565b9150611943826118dc565b604082019050919050565b600060208201905081810360008301526119678161192b565b9050919050565b7f4f776e61626c653a2063616c6c6572206973206e6f7420746865206f776e6572600082015250565b60006119a4602083611697565b91506119af8261196e565b602082019050919050565b600060208201905081810360008301526119d381611997565b905091905056fea2646970667358221220abe9eff5caeffea780e474ea8b98653e563271d56a2e05b279185f1f1e05ba0b64736f6c63430008130033",
  "immutableReferences": {},
  "source": "// SPDX-License-Identifier: UNLICENSED\r\npragma solidity ^0.8.19;\r\n\r\nimport \"./GPAToken.sol\";\r\nimport \"./DiplomaCertificate.sol\";\r\nimport \"@openzeppelin/contracts/access/Ownable.sol\";\r\n\r\ncontract UniversityToken is Ownable {\r\n    GPAToken private _gpaToken;\r\n    DiplomaCertificate private _diplomaCertificate;\r\n\r\n    mapping(address => bool) private _trustedUniversities;\r\n    mapping(address => bool) private _trustedCertificationEntities;\r\n    mapping(uint256 => address) private tokenMinters;\r\n    \r\n    struct CertificateData {\r\n        uint256 tokenId;\r\n        string description;\r\n        string dateIssued;\r\n    }\r\n\r\n    modifier onlyTrustedUniversities() {\r\n        require(_trustedUniversities[msg.sender], \"Not an authorized University\");\r\n        _;\r\n    }\r\n    modifier onlyCertificationEntities() {\r\n        require(_trustedCertificationEntities[msg.sender], \"Not an authorized Certification entity\");\r\n        _;\r\n    }\r\n\r\n    constructor(address gpaTokenAddress, address diplomaCertificateAddress){\r\n        _gpaToken = GPAToken(gpaTokenAddress);\r\n        _diplomaCertificate = DiplomaCertificate(diplomaCertificateAddress);\r\n    }\r\n    function getGpaTokenAddress() public view returns (address) {\r\n        return address(_gpaToken);\r\n    }\r\n\r\n    function getDiplomaCertificateAddress() public view returns (address) {\r\n        return address(_diplomaCertificate);\r\n    }\r\n\r\n    function addTrustedUniversity(address universityAddress) external onlyOwner {\r\n        _trustedUniversities[universityAddress] = true;\r\n        _trustedCertificationEntities[universityAddress] = true;\r\n    }\r\n\r\n    function removeTrustedUniversity(address universityAddress) external onlyOwner {\r\n        _trustedUniversities[universityAddress] = false;\r\n        _trustedCertificationEntities[universityAddress] = false;\r\n    }\r\n\r\n    function addTrustedCertificateEntities(address certificateEntityAddress) external onlyOwner {\r\n        _trustedCertificationEntities[certificateEntityAddress] = true;\r\n    }\r\n    function removeTrustedCertificateEntities(address certificateEntityAddress) external onlyOwner {\r\n        _trustedCertificationEntities[certificateEntityAddress] = false;\r\n    }\r\n    //can only be called by universities\r\n    function setGPA(address student, uint256 newGPA) external onlyTrustedUniversities{\r\n        _gpaToken.setGPA(student, newGPA);\r\n    }\r\n    //mint's certification or DIPLOMA. can be called by universities or other trusted certifiers\r\n    function mintCertification(address student, string memory description, string memory dateIssued) external onlyCertificationEntities{\r\n        _diplomaCertificate.mint(student, description, dateIssued);\r\n        uint256 newTokenId = _diplomaCertificate.getCurrentTokenId(); // Assuming the token ID is sequential and based on totalSupply\r\n        tokenMinters[newTokenId] = msg.sender;\r\n    }\r\n\r\n    // Function to get the university that minted a specific token.\r\n    function getTokenMinter(uint256 tokenId) external view returns (address) {\r\n        return tokenMinters[tokenId];\r\n    }\r\n        // Function to allow a university to revoke (burn) a token they minted.\r\n    function revokeToken(uint256 tokenId) external {\r\n        require(tokenMinters[tokenId] == msg.sender, \"Only the university/institute that minted the token can revoke it.\");\r\n        _diplomaCertificate.burn(tokenId); // Assuming a burn function exists in the DiplomaCertificate contract.\r\n    }\r\n    //anyone can view the gpa of a student if student gives address\r\n    function getGPAOf(address student) external view returns (uint256) {\r\n        return _gpaToken.balanceOf(student); \r\n    }\r\n    //anyone can view the certificates of the student if student gives address\r\n    function getCertificatesOf(address owner) external view returns (CertificateData[] memory) {\r\n        uint256 tokenCount = _diplomaCertificate.balanceOf(owner);\r\n        CertificateData[] memory certificates = new CertificateData[](tokenCount);\r\n\r\n        for (uint256 i = 0; i < tokenCount; i++) {\r\n            uint256 tokenId = _diplomaCertificate.tokenOfOwnerByIndex(owner, i);\r\n            (string memory description, string memory dateIssued) = _diplomaCertificate.getCertificateDetails(tokenId);\r\n        \r\n            certificates[i] = CertificateData({\r\n                tokenId: tokenId,\r\n                description: description,\r\n                dateIssued: dateIssued\r\n            });\r\n        }\r\n\r\n        return certificates;\r\n    }\r\n\r\n}",
  "sourcePath": "C:\\Users\\Stefan\\Documents\\Blockchains Project\\EduBlockchain\\project-contract\\contracts\\UniversityToken.sol",
  "compiler": {
    "name": "solc",
    "version": "0.8.19+commit.7dd6d404.Emscripten.clang"
  },
  "schemaVersion": "3.4.16",
  "updatedAt": "2023-11-16T20:52:30.413Z",
  "networkType": "ethereum",
  "devdoc": {
    "kind": "dev",
    "methods": {
      "owner()": {
        "details": "Returns the address of the current owner."
      },
      "renounceOwnership()": {
        "details": "Leaves the contract without owner. It will not be possible to call `onlyOwner` functions. Can only be called by the current owner. NOTE: Renouncing ownership will leave the contract without an owner, thereby disabling any functionality that is only available to the owner."
      },
      "transferOwnership(address)": {
        "details": "Transfers ownership of the contract to a new account (`newOwner`). Can only be called by the current owner."
      }
    },
    "version": 1
  },
  "userdoc": {
    "kind": "user",
    "methods": {},
    "version": 1
  }
}