{
  "contractName": "UniversityToken",
  "abi": [
    {
      "inputs": [
        {
          "internalType": "address",
          "name": "gpaTokenAddress",
          "type": "address"
        },
        {
          "internalType": "address",
          "name": "diplomaCertificateAddress",
          "type": "address"
        }
      ],
      "stateMutability": "nonpayable",
      "type": "constructor"
    },
    {
      "anonymous": false,
      "inputs": [
        {
          "indexed": true,
          "internalType": "address",
          "name": "previousOwner",
          "type": "address"
        },
        {
          "indexed": true,
          "internalType": "address",
          "name": "newOwner",
          "type": "address"
        }
      ],
      "name": "OwnershipTransferred",
      "type": "event"
    },
    {
      "inputs": [],
      "name": "owner",
      "outputs": [
        {
          "internalType": "address",
          "name": "",
          "type": "address"
        }
      ],
      "stateMutability": "view",
      "type": "function",
      "constant": true
    },
    {
      "inputs": [],
      "name": "renounceOwnership",
      "outputs": [],
      "stateMutability": "nonpayable",
      "type": "function"
    },
    {
      "inputs": [
        {
          "internalType": "address",
          "name": "newOwner",
          "type": "address"
        }
      ],
      "name": "transferOwnership",
      "outputs": [],
      "stateMutability": "nonpayable",
      "type": "function"
    },
    {
      "inputs": [],
      "name": "getGpaTokenAddress",
      "outputs": [
        {
          "internalType": "address",
          "name": "",
          "type": "address"
        }
      ],
      "stateMutability": "view",
      "type": "function",
      "constant": true
    },
    {
      "inputs": [],
      "name": "getDiplomaCertificateAddress",
      "outputs": [
        {
          "internalType": "address",
          "name": "",
          "type": "address"
        }
      ],
      "stateMutability": "view",
      "type": "function",
      "constant": true
    },
    {
      "inputs": [
        {
          "internalType": "address",
          "name": "universityAddress",
          "type": "address"
        }
      ],
      "name": "addTrustedUniversity",
      "outputs": [],
      "stateMutability": "nonpayable",
      "type": "function"
    },
    {
      "inputs": [
        {
          "internalType": "address",
          "name": "universityAddress",
          "type": "address"
        }
      ],
      "name": "removeTrustedUniversity",
      "outputs": [],
      "stateMutability": "nonpayable",
      "type": "function"
    },
    {
      "inputs": [
        {
          "internalType": "address",
          "name": "certificateEntityAddress",
          "type": "address"
        }
      ],
      "name": "addTrustedCertificateEntities",
      "outputs": [],
      "stateMutability": "nonpayable",
      "type": "function"
    },
    {
      "inputs": [
        {
          "internalType": "address",
          "name": "certificateEntityAddress",
          "type": "address"
        }
      ],
      "name": "removeTrustedCertificateEntities",
      "outputs": [],
      "stateMutability": "nonpayable",
      "type": "function"
    },
    {
      "inputs": [
        {
          "internalType": "address",
          "name": "student",
          "type": "address"
        },
        {
          "internalType": "uint256",
          "name": "newGPA",
          "type": "uint256"
        }
      ],
      "name": "setGPA",
      "outputs": [],
      "stateMutability": "nonpayable",
      "type": "function"
    },
    {
      "inputs": [
        {
          "internalType": "address",
          "name": "student",
          "type": "address"
        },
        {
          "internalType": "string",
          "name": "description",
          "type": "string"
        },
        {
          "internalType": "string",
          "name": "dateIssued",
          "type": "string"
        },
        {
          "internalType": "string",
          "name": "imageUrl",
          "type": "string"
        }
      ],
      "name": "mintCertification",
      "outputs": [],
      "stateMutability": "nonpayable",
      "type": "function"
    },
    {
      "inputs": [
        {
          "internalType": "address",
          "name": "UniversityAddress",
          "type": "address"
        }
      ],
      "name": "isUniversity",
      "outputs": [
        {
          "internalType": "bool",
          "name": "",
          "type": "bool"
        }
      ],
      "stateMutability": "view",
      "type": "function",
      "constant": true
    },
    {
      "inputs": [
        {
          "internalType": "address",
          "name": "CertifierAddress",
          "type": "address"
        }
      ],
      "name": "isCertifier",
      "outputs": [
        {
          "internalType": "bool",
          "name": "",
          "type": "bool"
        }
      ],
      "stateMutability": "view",
      "type": "function",
      "constant": true
    },
    {
      "inputs": [
        {
          "internalType": "address",
          "name": "_address",
          "type": "address"
        }
      ],
      "name": "isOwner",
      "outputs": [
        {
          "internalType": "bool",
          "name": "",
          "type": "bool"
        }
      ],
      "stateMutability": "view",
      "type": "function",
      "constant": true
    },
    {
      "inputs": [
        {
          "internalType": "uint256",
          "name": "tokenId",
          "type": "uint256"
        }
      ],
      "name": "getTokenMinter",
      "outputs": [
        {
          "internalType": "address",
          "name": "",
          "type": "address"
        }
      ],
      "stateMutability": "view",
      "type": "function",
      "constant": true
    },
    {
      "inputs": [
        {
          "internalType": "uint256",
          "name": "tokenId",
          "type": "uint256"
        }
      ],
      "name": "revokeToken",
      "outputs": [],
      "stateMutability": "nonpayable",
      "type": "function"
    },
    {
      "inputs": [
        {
          "internalType": "address",
          "name": "student",
          "type": "address"
        }
      ],
      "name": "getGPAOf",
      "outputs": [
        {
          "internalType": "uint256",
          "name": "",
          "type": "uint256"
        }
      ],
      "stateMutability": "view",
      "type": "function",
      "constant": true
    },
    {
      "inputs": [
        {
          "internalType": "address",
          "name": "owner",
          "type": "address"
        }
      ],
      "name": "getCertificatesOf",
      "outputs": [
        {
          "components": [
            {
              "internalType": "uint256",
              "name": "tokenId",
              "type": "uint256"
            },
            {
              "internalType": "string",
              "name": "description",
              "type": "string"
            },
            {
              "internalType": "string",
              "name": "dateIssued",
              "type": "string"
            },
            {
              "internalType": "string",
              "name": "imageUrl",
              "type": "string"
            }
          ],
          "internalType": "struct UniversityToken.CertificateData[]",
          "name": "",
          "type": "tuple[]"
        }
      ],
      "stateMutability": "view",
      "type": "function",
      "constant": true
    }
  ],
  "bytecode": "0x60806040523480156200001157600080fd5b5060405162001ef338038062001ef3833981810160405281019062000037919062000217565b620000576200004b620000e160201b60201c565b620000e960201b60201c565b81600160006101000a81548173ffffffffffffffffffffffffffffffffffffffff021916908373ffffffffffffffffffffffffffffffffffffffff16021790555080600260006101000a81548173ffffffffffffffffffffffffffffffffffffffff021916908373ffffffffffffffffffffffffffffffffffffffff16021790555050506200025e565b600033905090565b60008060009054906101000a900473ffffffffffffffffffffffffffffffffffffffff169050816000806101000a81548173ffffffffffffffffffffffffffffffffffffffff021916908373ffffffffffffffffffffffffffffffffffffffff1602179055508173ffffffffffffffffffffffffffffffffffffffff168173ffffffffffffffffffffffffffffffffffffffff167f8be0079c531659141344cd1fd0a4f28419497f9722a3daafe3b4186f6b6457e060405160405180910390a35050565b600080fd5b600073ffffffffffffffffffffffffffffffffffffffff82169050919050565b6000620001df82620001b2565b9050919050565b620001f181620001d2565b8114620001fd57600080fd5b50565b6000815190506200021181620001e6565b92915050565b60008060408385031215620002315762000230620001ad565b5b6000620002418582860162000200565b9250506020620002548582860162000200565b9150509250929050565b611c85806200026e6000396000f3fe608060405234801561001057600080fd5b50600436106101165760003560e01c80638da5cb5b116100a2578063b9730cde11610071578063b9730cde146102b7578063d0e4f396146102e7578063d15b396514610317578063f2fde38b14610333578063f6da683d1461034f57610116565b80638da5cb5b146102435780639849070d14610261578063abd203d41461027f578063b293c95e1461029b57610116565b80636af88811116100e95780636af88811146101c7578063715018a6146101e35780637dc9e79b146101ed578063806204111461020957806383af57071461022557610116565b80631c2353e11461011b5780632f54bf6e1461014b5780633cc0146d1461017b57806347533b07146101ab575b600080fd5b61013560048036038101906101309190611191565b61037f565b60405161014291906111d9565b60405180910390f35b61016560048036038101906101609190611191565b6103d5565b60405161017291906111d9565b60405180910390f35b61019560048036038101906101909190611191565b610414565b6040516101a291906113d0565b60405180910390f35b6101c560048036038101906101c09190611191565b6106c8565b005b6101e160048036038101906101dc9190611191565b610783565b005b6101eb61083e565b005b6102076004803603810190610202919061141e565b610852565b005b610223600480360381019061021e9190611191565b610983565b005b61022d6109e6565b60405161023a919061145a565b60405180910390f35b61024b610a10565b604051610258919061145a565b60405180910390f35b610269610a39565b604051610276919061145a565b60405180910390f35b61029960048036038101906102949190611191565b610a63565b005b6102b560048036038101906102b091906115aa565b610ac6565b005b6102d160048036038101906102cc9190611191565b610cd3565b6040516102de91906111d9565b60405180910390f35b61030160048036038101906102fc919061141e565b610d29565b60405161030e919061145a565b60405180910390f35b610331600480360381019061032c9190611665565b610d66565b005b61034d60048036038101906103489190611191565b610e85565b005b61036960048036038101906103649190611191565b610f08565b60405161037691906116b4565b60405180910390f35b6000600460008373ffffffffffffffffffffffffffffffffffffffff1673ffffffffffffffffffffffffffffffffffffffff16815260200190815260200160002060009054906101000a900460ff169050919050565b60006103df610a10565b73ffffffffffffffffffffffffffffffffffffffff168273ffffffffffffffffffffffffffffffffffffffff16149050919050565b60606000600260009054906101000a900473ffffffffffffffffffffffffffffffffffffffff1673ffffffffffffffffffffffffffffffffffffffff166370a08231846040518263ffffffff1660e01b8152600401610473919061145a565b602060405180830381865afa158015610490573d6000803e3d6000fd5b505050506040513d601f19601f820116820180604052508101906104b491906116e4565b905060008167ffffffffffffffff8111156104d2576104d161147f565b5b60405190808252806020026020018201604052801561050b57816020015b6104f86110f7565b8152602001906001900390816104f05790505b50905060005b828110156106bd576000600260009054906101000a900473ffffffffffffffffffffffffffffffffffffffff1673ffffffffffffffffffffffffffffffffffffffff16632f745c5987846040518363ffffffff1660e01b8152600401610578929190611711565b602060405180830381865afa158015610595573d6000803e3d6000fd5b505050506040513d601f19601f820116820180604052508101906105b991906116e4565b90506000806000600260009054906101000a900473ffffffffffffffffffffffffffffffffffffffff1673ffffffffffffffffffffffffffffffffffffffff1663a901fe5e856040518263ffffffff1660e01b815260040161061b91906116b4565b600060405180830381865afa158015610638573d6000803e3d6000fd5b505050506040513d6000823e3d601f19601f8201168201806040525081019061066191906117aa565b92509250925060405180608001604052808581526020018481526020018381526020018281525086868151811061069b5761069a611851565b5b60200260200101819052505050505080806106b5906118af565b915050610511565b508092505050919050565b6106d0610fad565b6001600360008373ffffffffffffffffffffffffffffffffffffffff1673ffffffffffffffffffffffffffffffffffffffff16815260200190815260200160002060006101000a81548160ff0219169083151502179055506001600460008373ffffffffffffffffffffffffffffffffffffffff1673ffffffffffffffffffffffffffffffffffffffff16815260200190815260200160002060006101000a81548160ff02191690831515021790555050565b61078b610fad565b6000600360008373ffffffffffffffffffffffffffffffffffffffff1673ffffffffffffffffffffffffffffffffffffffff16815260200190815260200160002060006101000a81548160ff0219169083151502179055506000600460008373ffffffffffffffffffffffffffffffffffffffff1673ffffffffffffffffffffffffffffffffffffffff16815260200190815260200160002060006101000a81548160ff02191690831515021790555050565b610846610fad565b610850600061102b565b565b3373ffffffffffffffffffffffffffffffffffffffff166005600083815260200190815260200160002060009054906101000a900473ffffffffffffffffffffffffffffffffffffffff1673ffffffffffffffffffffffffffffffffffffffff16146108f3576040517f08c379a00000000000000000000000000000000000000000000000000000000081526004016108ea906119a0565b60405180910390fd5b600260009054906101000a900473ffffffffffffffffffffffffffffffffffffffff1673ffffffffffffffffffffffffffffffffffffffff166342966c68826040518263ffffffff1660e01b815260040161094e91906116b4565b600060405180830381600087803b15801561096857600080fd5b505af115801561097c573d6000803e3d6000fd5b5050505050565b61098b610fad565b6000600460008373ffffffffffffffffffffffffffffffffffffffff1673ffffffffffffffffffffffffffffffffffffffff16815260200190815260200160002060006101000a81548160ff02191690831515021790555050565b6000600160009054906101000a900473ffffffffffffffffffffffffffffffffffffffff16905090565b60008060009054906101000a900473ffffffffffffffffffffffffffffffffffffffff16905090565b6000600260009054906101000a900473ffffffffffffffffffffffffffffffffffffffff16905090565b610a6b610fad565b6001600460008373ffffffffffffffffffffffffffffffffffffffff1673ffffffffffffffffffffffffffffffffffffffff16815260200190815260200160002060006101000a81548160ff02191690831515021790555050565b600460003373ffffffffffffffffffffffffffffffffffffffff1673ffffffffffffffffffffffffffffffffffffffff16815260200190815260200160002060009054906101000a900460ff16610b52576040517f08c379a0000000000000000000000000000000000000000000000000000000008152600401610b4990611a32565b60405180910390fd5b600260009054906101000a900473ffffffffffffffffffffffffffffffffffffffff1673ffffffffffffffffffffffffffffffffffffffff16634a0706be858585856040518563ffffffff1660e01b8152600401610bb39493929190611a8b565b600060405180830381600087803b158015610bcd57600080fd5b505af1158015610be1573d6000803e3d6000fd5b505050506000600260009054906101000a900473ffffffffffffffffffffffffffffffffffffffff1673ffffffffffffffffffffffffffffffffffffffff1663561892366040518163ffffffff1660e01b8152600401602060405180830381865afa158015610c54573d6000803e3d6000fd5b505050506040513d601f19601f82011682018060405250810190610c7891906116e4565b9050336005600083815260200190815260200160002060006101000a81548173ffffffffffffffffffffffffffffffffffffffff021916908373ffffffffffffffffffffffffffffffffffffffff1602179055505050505050565b6000600360008373ffffffffffffffffffffffffffffffffffffffff1673ffffffffffffffffffffffffffffffffffffffff16815260200190815260200160002060009054906101000a900460ff169050919050565b60006005600083815260200190815260200160002060009054906101000a900473ffffffffffffffffffffffffffffffffffffffff169050919050565b600360003373ffffffffffffffffffffffffffffffffffffffff1673ffffffffffffffffffffffffffffffffffffffff16815260200190815260200160002060009054906101000a900460ff16610df2576040517f08c379a0000000000000000000000000000000000000000000000000000000008152600401610de990611b31565b60405180910390fd5b600160009054906101000a900473ffffffffffffffffffffffffffffffffffffffff1673ffffffffffffffffffffffffffffffffffffffff1663d15b396583836040518363ffffffff1660e01b8152600401610e4f929190611711565b600060405180830381600087803b158015610e6957600080fd5b505af1158015610e7d573d6000803e3d6000fd5b505050505050565b610e8d610fad565b600073ffffffffffffffffffffffffffffffffffffffff168173ffffffffffffffffffffffffffffffffffffffff1603610efc576040517f08c379a0000000000000000000000000000000000000000000000000000000008152600401610ef390611bc3565b60405180910390fd5b610f058161102b565b50565b6000600160009054906101000a900473ffffffffffffffffffffffffffffffffffffffff1673ffffffffffffffffffffffffffffffffffffffff166370a08231836040518263ffffffff1660e01b8152600401610f65919061145a565b602060405180830381865afa158015610f82573d6000803e3d6000fd5b505050506040513d601f19601f82011682018060405250810190610fa691906116e4565b9050919050565b610fb56110ef565b73ffffffffffffffffffffffffffffffffffffffff16610fd3610a10565b73ffffffffffffffffffffffffffffffffffffffff1614611029576040517f08c379a000000000000000000000000000000000000000000000000000000000815260040161102090611c2f565b60405180910390fd5b565b60008060009054906101000a900473ffffffffffffffffffffffffffffffffffffffff169050816000806101000a81548173ffffffffffffffffffffffffffffffffffffffff021916908373ffffffffffffffffffffffffffffffffffffffff1602179055508173ffffffffffffffffffffffffffffffffffffffff168173ffffffffffffffffffffffffffffffffffffffff167f8be0079c531659141344cd1fd0a4f28419497f9722a3daafe3b4186f6b6457e060405160405180910390a35050565b600033905090565b6040518060800160405280600081526020016060815260200160608152602001606081525090565b6000604051905090565b600080fd5b600080fd5b600073ffffffffffffffffffffffffffffffffffffffff82169050919050565b600061115e82611133565b9050919050565b61116e81611153565b811461117957600080fd5b50565b60008135905061118b81611165565b92915050565b6000602082840312156111a7576111a6611129565b5b60006111b58482850161117c565b91505092915050565b60008115159050919050565b6111d3816111be565b82525050565b60006020820190506111ee60008301846111ca565b92915050565b600081519050919050565b600082825260208201905092915050565b6000819050602082019050919050565b6000819050919050565b61123381611220565b82525050565b600081519050919050565b600082825260208201905092915050565b60005b83811015611273578082015181840152602081019050611258565b60008484015250505050565b6000601f19601f8301169050919050565b600061129b82611239565b6112a58185611244565b93506112b5818560208601611255565b6112be8161127f565b840191505092915050565b60006080830160008301516112e1600086018261122a565b50602083015184820360208601526112f98282611290565b915050604083015184820360408601526113138282611290565b9150506060830151848203606086015261132d8282611290565b9150508091505092915050565b600061134683836112c9565b905092915050565b6000602082019050919050565b6000611366826111f4565b61137081856111ff565b93508360208202850161138285611210565b8060005b858110156113be578484038952815161139f858261133a565b94506113aa8361134e565b925060208a01995050600181019050611386565b50829750879550505050505092915050565b600060208201905081810360008301526113ea818461135b565b905092915050565b6113fb81611220565b811461140657600080fd5b50565b600081359050611418816113f2565b92915050565b60006020828403121561143457611433611129565b5b600061144284828501611409565b91505092915050565b61145481611153565b82525050565b600060208201905061146f600083018461144b565b92915050565b600080fd5b600080fd5b7f4e487b7100000000000000000000000000000000000000000000000000000000600052604160045260246000fd5b6114b78261127f565b810181811067ffffffffffffffff821117156114d6576114d561147f565b5b80604052505050565b60006114e961111f565b90506114f582826114ae565b919050565b600067ffffffffffffffff8211156115155761151461147f565b5b61151e8261127f565b9050602081019050919050565b82818337600083830152505050565b600061154d611548846114fa565b6114df565b9050828152602081018484840111156115695761156861147a565b5b61157484828561152b565b509392505050565b600082601f83011261159157611590611475565b5b81356115a184826020860161153a565b91505092915050565b600080600080608085870312156115c4576115c3611129565b5b60006115d28782880161117c565b945050602085013567ffffffffffffffff8111156115f3576115f261112e565b5b6115ff8782880161157c565b935050604085013567ffffffffffffffff8111156116205761161f61112e565b5b61162c8782880161157c565b925050606085013567ffffffffffffffff81111561164d5761164c61112e565b5b6116598782880161157c565b91505092959194509250565b6000806040838503121561167c5761167b611129565b5b600061168a8582860161117c565b925050602061169b85828601611409565b9150509250929050565b6116ae81611220565b82525050565b60006020820190506116c960008301846116a5565b92915050565b6000815190506116de816113f2565b92915050565b6000602082840312156116fa576116f9611129565b5b6000611708848285016116cf565b91505092915050565b6000604082019050611726600083018561144b565b61173360208301846116a5565b9392505050565b600061174d611748846114fa565b6114df565b9050828152602081018484840111156117695761176861147a565b5b611774848285611255565b509392505050565b600082601f83011261179157611790611475565b5b81516117a184826020860161173a565b91505092915050565b6000806000606084860312156117c3576117c2611129565b5b600084015167ffffffffffffffff8111156117e1576117e061112e565b5b6117ed8682870161177c565b935050602084015167ffffffffffffffff81111561180e5761180d61112e565b5b61181a8682870161177c565b925050604084015167ffffffffffffffff81111561183b5761183a61112e565b5b6118478682870161177c565b9150509250925092565b7f4e487b7100000000000000000000000000000000000000000000000000000000600052603260045260246000fd5b7f4e487b7100000000000000000000000000000000000000000000000000000000600052601160045260246000fd5b60006118ba82611220565b91507fffffffffffffffffffffffffffffffffffffffffffffffffffffffffffffffff82036118ec576118eb611880565b5b600182019050919050565b600082825260208201905092915050565b7f4f6e6c792074686520756e69766572736974792f696e7374697475746520746860008201527f6174206d696e7465642074686520746f6b656e2063616e207265766f6b65206960208201527f742e000000000000000000000000000000000000000000000000000000000000604082015250565b600061198a6042836118f7565b915061199582611908565b606082019050919050565b600060208201905081810360008301526119b98161197d565b9050919050565b7f4e6f7420616e20617574686f72697a65642043657274696669636174696f6e2060008201527f656e746974790000000000000000000000000000000000000000000000000000602082015250565b6000611a1c6026836118f7565b9150611a27826119c0565b604082019050919050565b60006020820190508181036000830152611a4b81611a0f565b9050919050565b6000611a5d82611239565b611a6781856118f7565b9350611a77818560208601611255565b611a808161127f565b840191505092915050565b6000608082019050611aa0600083018761144b565b8181036020830152611ab28186611a52565b90508181036040830152611ac68185611a52565b90508181036060830152611ada8184611a52565b905095945050505050565b7f4e6f7420616e20617574686f72697a656420556e697665727369747900000000600082015250565b6000611b1b601c836118f7565b9150611b2682611ae5565b602082019050919050565b60006020820190508181036000830152611b4a81611b0e565b9050919050565b7f4f776e61626c653a206e6577206f776e657220697320746865207a65726f206160008201527f6464726573730000000000000000000000000000000000000000000000000000602082015250565b6000611bad6026836118f7565b9150611bb882611b51565b604082019050919050565b60006020820190508181036000830152611bdc81611ba0565b9050919050565b7f4f776e61626c653a2063616c6c6572206973206e6f7420746865206f776e6572600082015250565b6000611c196020836118f7565b9150611c2482611be3565b602082019050919050565b60006020820190508181036000830152611c4881611c0c565b905091905056fea2646970667358221220e6fcb1a5de80da48fed211f4d7ca5217badefbb07f780c26860af5b7cf43d4e964736f6c63430008130033",
  "immutableReferences": {},
  "source": "// SPDX-License-Identifier: UNLICENSED\r\npragma solidity ^0.8.19;\r\n\r\nimport \"./GPAToken.sol\";\r\nimport \"./DiplomaCertificate.sol\";\r\nimport \"@openzeppelin/contracts/access/Ownable.sol\";\r\n\r\ncontract UniversityToken is Ownable {\r\n    GPAToken private _gpaToken;\r\n    DiplomaCertificate private _diplomaCertificate;\r\n\r\n    mapping(address => bool) private _trustedUniversities;\r\n    mapping(address => bool) private _trustedCertificationEntities;\r\n    mapping(uint256 => address) private tokenMinters;\r\n    \r\n    struct CertificateData {\r\n        uint256 tokenId;\r\n        string description;\r\n        string dateIssued;\r\n        string imageUrl;\r\n    }\r\n\r\n    modifier onlyTrustedUniversities() {\r\n        require(_trustedUniversities[msg.sender], \"Not an authorized University\");\r\n        _;\r\n    }\r\n    modifier onlyCertificationEntities() {\r\n        require(_trustedCertificationEntities[msg.sender], \"Not an authorized Certification entity\");\r\n        _;\r\n    }\r\n\r\n    constructor(address gpaTokenAddress, address diplomaCertificateAddress){\r\n        _gpaToken = GPAToken(gpaTokenAddress);\r\n        _diplomaCertificate = DiplomaCertificate(diplomaCertificateAddress);\r\n    }\r\n    \r\n    function getGpaTokenAddress() public view returns (address) {\r\n        return address(_gpaToken);\r\n    }\r\n\r\n    function getDiplomaCertificateAddress() public view returns (address) {\r\n        return address(_diplomaCertificate);\r\n    }\r\n\r\n    function addTrustedUniversity(address universityAddress) external onlyOwner {\r\n        _trustedUniversities[universityAddress] = true;\r\n        _trustedCertificationEntities[universityAddress] = true;\r\n    }\r\n\r\n    function removeTrustedUniversity(address universityAddress) external onlyOwner {\r\n        _trustedUniversities[universityAddress] = false;\r\n        _trustedCertificationEntities[universityAddress] = false;\r\n    }\r\n\r\n    function addTrustedCertificateEntities(address certificateEntityAddress) external onlyOwner {\r\n        _trustedCertificationEntities[certificateEntityAddress] = true;\r\n    }\r\n    function removeTrustedCertificateEntities(address certificateEntityAddress) external onlyOwner {\r\n        _trustedCertificationEntities[certificateEntityAddress] = false;\r\n    }\r\n    //can only be called by universities\r\n    function setGPA(address student, uint256 newGPA) external onlyTrustedUniversities{\r\n        _gpaToken.setGPA(student, newGPA);\r\n    }\r\n    //mint's certification or DIPLOMA. can be called by universities or other trusted certifiers\r\n    function mintCertification(address student, string memory description, string memory dateIssued, string memory imageUrl) external onlyCertificationEntities{\r\n        _diplomaCertificate.mint(student, description, dateIssued, imageUrl);\r\n        uint256 newTokenId = _diplomaCertificate.getCurrentTokenId(); // Assuming the token ID is sequential and based on totalSupply\r\n        tokenMinters[newTokenId] = msg.sender;\r\n    }\r\n\r\n    function isUniversity(address UniversityAddress)external view returns (bool){\r\n        return _trustedUniversities[UniversityAddress];\r\n    }\r\n\r\n    function isCertifier(address CertifierAddress)external view returns (bool){\r\n        return _trustedCertificationEntities[CertifierAddress];\r\n    }\r\n    function isOwner(address _address) public view returns (bool) {\r\n        return _address == owner();\r\n    }\r\n\r\n    // Function to get the university that minted a specific token.\r\n    function getTokenMinter(uint256 tokenId) external view returns (address) {\r\n        return tokenMinters[tokenId];\r\n    }\r\n        // Function to allow a university to revoke (burn) a token they minted.\r\n    function revokeToken(uint256 tokenId) external {\r\n        require(tokenMinters[tokenId] == msg.sender, \"Only the university/institute that minted the token can revoke it.\");\r\n        _diplomaCertificate.burn(tokenId); // Assuming a burn function exists in the DiplomaCertificate contract.\r\n    }\r\n    //anyone can view the gpa of a student if student gives address\r\n    function getGPAOf(address student) external view returns (uint256) {\r\n        return _gpaToken.balanceOf(student); \r\n    }\r\n    //anyone can view the certificates of the student if student gives address\r\n    function getCertificatesOf(address owner) external view returns (CertificateData[] memory) {\r\n        uint256 tokenCount = _diplomaCertificate.balanceOf(owner);\r\n        CertificateData[] memory certificates = new CertificateData[](tokenCount);\r\n\r\n        for (uint256 i = 0; i < tokenCount; i++) {\r\n            uint256 tokenId = _diplomaCertificate.tokenOfOwnerByIndex(owner, i);\r\n            (string memory description, string memory dateIssued, string memory imageUrl) = _diplomaCertificate.getCertificateDetails(tokenId);\r\n        \r\n            certificates[i] = CertificateData({\r\n                tokenId: tokenId,\r\n                description: description,\r\n                dateIssued: dateIssued,\r\n                imageUrl: imageUrl\r\n            });\r\n        }\r\n\r\n        return certificates;\r\n    }\r\n\r\n}",
  "sourcePath": "C:\\Users\\Stefan\\Documents\\Blockchains Project\\EduBlockchain\\project-contract\\contracts\\UniversityToken.sol",
  "compiler": {
    "name": "solc",
    "version": "0.8.19+commit.7dd6d404.Emscripten.clang"
  },
  "schemaVersion": "3.4.16",
  "updatedAt": "2023-11-29T23:58:12.823Z",
  "networkType": "ethereum",
  "devdoc": {
    "kind": "dev",
    "methods": {
      "owner()": {
        "details": "Returns the address of the current owner."
      },
      "renounceOwnership()": {
        "details": "Leaves the contract without owner. It will not be possible to call `onlyOwner` functions. Can only be called by the current owner. NOTE: Renouncing ownership will leave the contract without an owner, thereby disabling any functionality that is only available to the owner."
      },
      "transferOwnership(address)": {
        "details": "Transfers ownership of the contract to a new account (`newOwner`). Can only be called by the current owner."
      }
    },
    "version": 1
  },
  "userdoc": {
    "kind": "user",
    "methods": {},
    "version": 1
  }
}